{
  "contractName": "BoxV2",
  "abi": [
    {
      "inputs": [],
      "name": "newValue",
      "outputs": [
        {
          "internalType": "uint256",
          "name": "",
          "type": "uint256"
        }
      ],
      "stateMutability": "view",
      "type": "function"
    },
    {
      "inputs": [],
      "name": "value",
      "outputs": [
        {
          "internalType": "uint256",
          "name": "",
          "type": "uint256"
        }
      ],
      "stateMutability": "view",
      "type": "function"
    },
    {
      "inputs": [
        {
          "internalType": "uint256",
          "name": "_value",
          "type": "uint256"
        }
      ],
      "name": "initialize",
      "outputs": [],
      "stateMutability": "nonpayable",
      "type": "function"
    },
    {
      "inputs": [
        {
          "internalType": "uint256",
          "name": "_value",
          "type": "uint256"
        }
      ],
      "name": "setValue",
      "outputs": [],
      "stateMutability": "nonpayable",
      "type": "function"
    }
  ],
  "bytecode": "0x608060405234801561001057600080fd5b50610356806100206000396000f3fe608060405234801561001057600080fd5b506004361061004c5760003560e01c80633fa4f24514610051578063552410771461006f5780637c65452c1461008b578063fe4b84df146100a9575b600080fd5b6100596100c5565b6040516100669190610204565b60405180910390f35b61008960048036038101906100849190610250565b6100cb565b005b6100936100d5565b6040516100a09190610204565b60405180910390f35b6100c360048036038101906100be9190610250565b6100db565b005b60015481565b8060028190555050565b60025481565b600060019054906101000a900460ff166101035760008054906101000a900460ff161561010c565b61010b6101c7565b5b61014b576040517f08c379a000000000000000000000000000000000000000000000000000000000815260040161014290610300565b60405180910390fd5b60008060019054906101000a900460ff16159050801561019b576001600060016101000a81548160ff02191690831515021790555060016000806101000a81548160ff0219169083151502179055505b8160018190555080156101c35760008060016101000a81548160ff0219169083151502179055505b5050565b60006101d2306101d8565b15905090565b600080823b905060008111915050919050565b6000819050919050565b6101fe816101eb565b82525050565b600060208201905061021960008301846101f5565b92915050565b600080fd5b61022d816101eb565b811461023857600080fd5b50565b60008135905061024a81610224565b92915050565b6000602082840312156102665761026561021f565b5b60006102748482850161023b565b91505092915050565b600082825260208201905092915050565b7f496e697469616c697a61626c653a20636f6e747261637420697320616c72656160008201527f647920696e697469616c697a6564000000000000000000000000000000000000602082015250565b60006102ea602e8361027d565b91506102f58261028e565b604082019050919050565b60006020820190508181036000830152610319816102dd565b905091905056fea2646970667358221220614577d7da3fcb8a7ff59ea46ba134d7eb54439168af6a8111d450f01ea9f02864736f6c634300080a0033",
  "immutableReferences": {},
  "source": "// SPDX-License-Identifier: MIT\npragma solidity ^0.8.0;\n\nimport \"@openzeppelin/contracts-upgradeable/proxy/utils/Initializable.sol\";\n\ncontract BoxV2 is Initializable {\n    uint256 public value;\n    uint256 public newValue;\n\n    function initialize(uint256 _value) public initializer {\n        value = _value;\n    }\n\n    function setValue(uint256 _value) public {\n        newValue = _value;\n    }\n}\n",
  "sourcePath": "/home/darovip/projects/mayland_labs/shattered-contracts/contracts/BoxV2.sol",
  "compiler": {
    "name": "solc",
    "version": "0.8.10+commit.fc410830.Emscripten.clang"
  },
  "schemaVersion": "3.4.4",
  "updatedAt": "2022-01-14T02:12:46.048Z",
  "devdoc": {
    "kind": "dev",
    "methods": {},
    "version": 1
  },
  "userdoc": {
    "kind": "user",
    "methods": {},
    "version": 1
  }
}