{
  "contractName": "Kingdom",
  "abi": [
    {
      "inputs": [],
      "stateMutability": "nonpayable",
      "type": "constructor"
    },
    {
      "anonymous": false,
      "inputs": [
        {
          "indexed": true,
          "internalType": "address",
          "name": "owner",
          "type": "address"
        },
        {
          "indexed": true,
          "internalType": "address",
          "name": "approved",
          "type": "address"
        },
        {
          "indexed": true,
          "internalType": "uint256",
          "name": "tokenId",
          "type": "uint256"
        }
      ],
      "name": "Approval",
      "type": "event"
    },
    {
      "anonymous": false,
      "inputs": [
        {
          "indexed": true,
          "internalType": "address",
          "name": "owner",
          "type": "address"
        },
        {
          "indexed": true,
          "internalType": "address",
          "name": "operator",
          "type": "address"
        },
        {
          "indexed": false,
          "internalType": "bool",
          "name": "approved",
          "type": "bool"
        }
      ],
      "name": "ApprovalForAll",
      "type": "event"
    },
    {
      "anonymous": false,
      "inputs": [
        {
          "indexed": true,
          "internalType": "address",
          "name": "previousOwner",
          "type": "address"
        },
        {
          "indexed": true,
          "internalType": "address",
          "name": "newOwner",
          "type": "address"
        }
      ],
      "name": "OwnershipTransferred",
      "type": "event"
    },
    {
      "anonymous": false,
      "inputs": [
        {
          "indexed": true,
          "internalType": "address",
          "name": "from",
          "type": "address"
        },
        {
          "indexed": true,
          "internalType": "address",
          "name": "to",
          "type": "address"
        },
        {
          "indexed": true,
          "internalType": "uint256",
          "name": "tokenId",
          "type": "uint256"
        }
      ],
      "name": "Transfer",
      "type": "event"
    },
    {
      "inputs": [
        {
          "internalType": "address",
          "name": "to",
          "type": "address"
        },
        {
          "internalType": "uint256",
          "name": "tokenId",
          "type": "uint256"
        }
      ],
      "name": "approve",
      "outputs": [],
      "stateMutability": "nonpayable",
      "type": "function"
    },
    {
      "inputs": [
        {
          "internalType": "address",
          "name": "owner",
          "type": "address"
        }
      ],
      "name": "balanceOf",
      "outputs": [
        {
          "internalType": "uint256",
          "name": "",
          "type": "uint256"
        }
      ],
      "stateMutability": "view",
      "type": "function"
    },
    {
      "inputs": [
        {
          "internalType": "uint256",
          "name": "tokenId",
          "type": "uint256"
        }
      ],
      "name": "getApproved",
      "outputs": [
        {
          "internalType": "address",
          "name": "",
          "type": "address"
        }
      ],
      "stateMutability": "view",
      "type": "function"
    },
    {
      "inputs": [
        {
          "internalType": "address",
          "name": "owner",
          "type": "address"
        },
        {
          "internalType": "address",
          "name": "operator",
          "type": "address"
        }
      ],
      "name": "isApprovedForAll",
      "outputs": [
        {
          "internalType": "bool",
          "name": "",
          "type": "bool"
        }
      ],
      "stateMutability": "view",
      "type": "function"
    },
    {
      "inputs": [
        {
          "internalType": "uint256",
          "name": "",
          "type": "uint256"
        }
      ],
      "name": "kingdomToLandCount",
      "outputs": [
        {
          "internalType": "uint256",
          "name": "",
          "type": "uint256"
        }
      ],
      "stateMutability": "view",
      "type": "function"
    },
    {
      "inputs": [],
      "name": "name",
      "outputs": [
        {
          "internalType": "string",
          "name": "",
          "type": "string"
        }
      ],
      "stateMutability": "view",
      "type": "function"
    },
    {
      "inputs": [],
      "name": "owner",
      "outputs": [
        {
          "internalType": "address",
          "name": "",
          "type": "address"
        }
      ],
      "stateMutability": "view",
      "type": "function"
    },
    {
      "inputs": [
        {
          "internalType": "uint256",
          "name": "tokenId",
          "type": "uint256"
        }
      ],
      "name": "ownerOf",
      "outputs": [
        {
          "internalType": "address",
          "name": "",
          "type": "address"
        }
      ],
      "stateMutability": "view",
      "type": "function"
    },
    {
      "inputs": [],
      "name": "renounceOwnership",
      "outputs": [],
      "stateMutability": "nonpayable",
      "type": "function"
    },
    {
      "inputs": [
        {
          "internalType": "address",
          "name": "from",
          "type": "address"
        },
        {
          "internalType": "address",
          "name": "to",
          "type": "address"
        },
        {
          "internalType": "uint256",
          "name": "tokenId",
          "type": "uint256"
        }
      ],
      "name": "safeTransferFrom",
      "outputs": [],
      "stateMutability": "nonpayable",
      "type": "function"
    },
    {
      "inputs": [
        {
          "internalType": "address",
          "name": "from",
          "type": "address"
        },
        {
          "internalType": "address",
          "name": "to",
          "type": "address"
        },
        {
          "internalType": "uint256",
          "name": "tokenId",
          "type": "uint256"
        },
        {
          "internalType": "bytes",
          "name": "_data",
          "type": "bytes"
        }
      ],
      "name": "safeTransferFrom",
      "outputs": [],
      "stateMutability": "nonpayable",
      "type": "function"
    },
    {
      "inputs": [
        {
          "internalType": "address",
          "name": "operator",
          "type": "address"
        },
        {
          "internalType": "bool",
          "name": "approved",
          "type": "bool"
        }
      ],
      "name": "setApprovalForAll",
      "outputs": [],
      "stateMutability": "nonpayable",
      "type": "function"
    },
    {
      "inputs": [
        {
          "internalType": "bytes4",
          "name": "interfaceId",
          "type": "bytes4"
        }
      ],
      "name": "supportsInterface",
      "outputs": [
        {
          "internalType": "bool",
          "name": "",
          "type": "bool"
        }
      ],
      "stateMutability": "view",
      "type": "function"
    },
    {
      "inputs": [],
      "name": "symbol",
      "outputs": [
        {
          "internalType": "string",
          "name": "",
          "type": "string"
        }
      ],
      "stateMutability": "view",
      "type": "function"
    },
    {
      "inputs": [
        {
          "internalType": "uint256",
          "name": "index",
          "type": "uint256"
        }
      ],
      "name": "tokenByIndex",
      "outputs": [
        {
          "internalType": "uint256",
          "name": "",
          "type": "uint256"
        }
      ],
      "stateMutability": "view",
      "type": "function"
    },
    {
      "inputs": [
        {
          "internalType": "uint256",
          "name": "",
          "type": "uint256"
        }
      ],
      "name": "tokenNames",
      "outputs": [
        {
          "internalType": "string",
          "name": "",
          "type": "string"
        }
      ],
      "stateMutability": "view",
      "type": "function"
    },
    {
      "inputs": [
        {
          "internalType": "address",
          "name": "owner",
          "type": "address"
        },
        {
          "internalType": "uint256",
          "name": "index",
          "type": "uint256"
        }
      ],
      "name": "tokenOfOwnerByIndex",
      "outputs": [
        {
          "internalType": "uint256",
          "name": "",
          "type": "uint256"
        }
      ],
      "stateMutability": "view",
      "type": "function"
    },
    {
      "inputs": [],
      "name": "totalSupply",
      "outputs": [
        {
          "internalType": "uint256",
          "name": "",
          "type": "uint256"
        }
      ],
      "stateMutability": "view",
      "type": "function"
    },
    {
      "inputs": [
        {
          "internalType": "address",
          "name": "from",
          "type": "address"
        },
        {
          "internalType": "address",
          "name": "to",
          "type": "address"
        },
        {
          "internalType": "uint256",
          "name": "tokenId",
          "type": "uint256"
        }
      ],
      "name": "transferFrom",
      "outputs": [],
      "stateMutability": "nonpayable",
      "type": "function"
    },
    {
      "inputs": [
        {
          "internalType": "address",
          "name": "newOwner",
          "type": "address"
        }
      ],
      "name": "transferOwnership",
      "outputs": [],
      "stateMutability": "nonpayable",
      "type": "function"
    },
    {
      "inputs": [
        {
          "internalType": "address",
          "name": "",
          "type": "address"
        }
      ],
      "name": "userToRegistered",
      "outputs": [
        {
          "internalType": "bool",
          "name": "",
          "type": "bool"
        }
      ],
      "stateMutability": "view",
      "type": "function"
    },
    {
      "inputs": [
        {
          "internalType": "string",
          "name": "tokenURI",
          "type": "string"
        },
        {
          "internalType": "string",
          "name": "landName",
          "type": "string"
        }
      ],
      "name": "mintNFT",
      "outputs": [
        {
          "internalType": "uint256",
          "name": "",
          "type": "uint256"
        }
      ],
      "stateMutability": "nonpayable",
      "type": "function"
    },
    {
      "inputs": [
        {
          "internalType": "address",
          "name": "_addr",
          "type": "address"
        },
        {
          "internalType": "bool",
          "name": "_value",
          "type": "bool"
        }
      ],
      "name": "set",
      "outputs": [],
      "stateMutability": "nonpayable",
      "type": "function"
    },
    {
      "inputs": [
        {
          "internalType": "uint256",
          "name": "_kingdomIndex",
          "type": "uint256"
        }
      ],
      "name": "addLand",
      "outputs": [],
      "stateMutability": "nonpayable",
      "type": "function"
    },
    {
      "inputs": [
        {
          "internalType": "uint256",
          "name": "tokenId",
          "type": "uint256"
        },
        {
          "internalType": "string",
          "name": "_kingdomName",
          "type": "string"
        }
      ],
      "name": "setKingdomName",
      "outputs": [],
      "stateMutability": "nonpayable",
      "type": "function"
    },
    {
      "inputs": [
        {
          "internalType": "uint256",
          "name": "tokenId",
          "type": "uint256"
        }
      ],
      "name": "tokenURI",
      "outputs": [
        {
          "internalType": "string",
          "name": "",
          "type": "string"
        }
      ],
      "stateMutability": "view",
      "type": "function"
    },
    {
      "inputs": [
        {
          "internalType": "uint256",
          "name": "tokenId",
          "type": "uint256"
        }
      ],
      "name": "burn",
      "outputs": [],
      "stateMutability": "nonpayable",
      "type": "function"
    }
  ],
  "bytecode": "0x60806040523480156200001157600080fd5b506040518060400160405280600781526020017f4b696e67646f6d000000000000000000000000000000000000000000000000008152506040518060400160405280600481526020017f4b494e4700000000000000000000000000000000000000000000000000000000815250816000908051906020019062000096929190620001a6565b508060019080519060200190620000af929190620001a6565b505050620000d2620000c6620000d860201b60201c565b620000e060201b60201c565b620002bb565b600033905090565b6000600a60009054906101000a900473ffffffffffffffffffffffffffffffffffffffff16905081600a60006101000a81548173ffffffffffffffffffffffffffffffffffffffff021916908373ffffffffffffffffffffffffffffffffffffffff1602179055508173ffffffffffffffffffffffffffffffffffffffff168173ffffffffffffffffffffffffffffffffffffffff167f8be0079c531659141344cd1fd0a4f28419497f9722a3daafe3b4186f6b6457e060405160405180910390a35050565b828054620001b49062000285565b90600052602060002090601f016020900481019282620001d8576000855562000224565b82601f10620001f357805160ff191683800117855562000224565b8280016001018555821562000224579182015b828111156200022357825182559160200191906001019062000206565b5b50905062000233919062000237565b5090565b5b808211156200025257600081600090555060010162000238565b5090565b7f4e487b7100000000000000000000000000000000000000000000000000000000600052602260045260246000fd5b600060028204905060018216806200029e57607f821691505b60208210811415620002b557620002b462000256565b5b50919050565b613ffd80620002cb6000396000f3fe608060405234801561001057600080fd5b50600436106101a95760003560e01c80634f6ccce7116100f9578063a22cb46511610097578063e960554411610071578063e9605544146104dc578063e985e9c51461050c578063f2fde38b1461053c578063fa92e6c014610558576101a9565b8063a22cb46514610474578063b88d4fde14610490578063c87b56dd146104ac576101a9565b8063715018a6116100d3578063715018a614610412578063737d3c391461041c5780638da5cb5b1461043857806395d89b4114610456576101a9565b80634f6ccce7146103825780636352211e146103b257806370a08231146103e2576101a9565b806318160ddd11610166578063310495ab11610140578063310495ab146102fe57806335e3b25a1461032e57806342842e0e1461034a57806342966c6814610366576101a9565b806318160ddd1461029457806323b872dd146102b25780632f745c59146102ce576101a9565b806301ffc9a7146101ae5780630335319d146101de57806306fdde031461020e578063081812fc1461022c578063095ea7b31461025c5780631498291314610278575b600080fd5b6101c860048036038101906101c391906128e0565b610588565b6040516101d59190612928565b60405180910390f35b6101f860048036038101906101f391906129a1565b610602565b6040516102059190612928565b60405180910390f35b610216610622565b6040516102239190612a67565b60405180910390f35b61024660048036038101906102419190612abf565b6106b4565b6040516102539190612afb565b60405180910390f35b61027660048036038101906102719190612b16565b610739565b005b610292600480360381019061028d9190612abf565b610851565b005b61029c6108db565b6040516102a99190612b65565b60405180910390f35b6102cc60048036038101906102c79190612b80565b6108e8565b005b6102e860048036038101906102e39190612b16565b610948565b6040516102f59190612b65565b60405180910390f35b61031860048036038101906103139190612abf565b6109ed565b6040516103259190612a67565b60405180910390f35b61034860048036038101906103439190612bff565b610a8d565b005b610364600480360381019061035f9190612b80565b610ae8565b005b610380600480360381019061037b9190612abf565b610b08565b005b61039c60048036038101906103979190612abf565b610b64565b6040516103a99190612b65565b60405180910390f35b6103cc60048036038101906103c79190612abf565b610bd5565b6040516103d99190612afb565b60405180910390f35b6103fc60048036038101906103f791906129a1565b610c87565b6040516104099190612b65565b60405180910390f35b61041a610d3f565b005b61043660048036038101906104319190612d74565b610dc7565b005b610440610e3b565b60405161044d9190612afb565b60405180910390f35b61045e610e65565b60405161046b9190612a67565b60405180910390f35b61048e60048036038101906104899190612bff565b610ef7565b005b6104aa60048036038101906104a59190612e71565b610f0d565b005b6104c660048036038101906104c19190612abf565b610f6f565b6040516104d39190612a67565b60405180910390f35b6104f660048036038101906104f19190612ef4565b6110c1565b6040516105039190612b65565b60405180910390f35b61052660048036038101906105219190612f6c565b611103565b6040516105339190612928565b60405180910390f35b610556600480360381019061055191906129a1565b611197565b005b610572600480360381019061056d9190612abf565b61128f565b60405161057f9190612b65565b60405180910390f35b60007f780e9d63000000000000000000000000000000000000000000000000000000007bffffffffffffffffffffffffffffffffffffffffffffffffffffffff1916827bffffffffffffffffffffffffffffffffffffffffffffffffffffffff191614806105fb57506105fa826112a7565b5b9050919050565b600e6020528060005260406000206000915054906101000a900460ff1681565b60606000805461063190612fdb565b80601f016020809104026020016040519081016040528092919081815260200182805461065d90612fdb565b80156106aa5780601f1061067f576101008083540402835291602001916106aa565b820191906000526020600020905b81548152906001019060200180831161068d57829003601f168201915b5050505050905090565b60006106bf82611389565b6106fe576040517f08c379a00000000000000000000000000000000000000000000000000000000081526004016106f59061307f565b60405180910390fd5b6004600083815260200190815260200160002060009054906101000a900473ffffffffffffffffffffffffffffffffffffffff169050919050565b600061074482610bd5565b90508073ffffffffffffffffffffffffffffffffffffffff168373ffffffffffffffffffffffffffffffffffffffff1614156107b5576040517f08c379a00000000000000000000000000000000000000000000000000000000081526004016107ac90613111565b60405180910390fd5b8073ffffffffffffffffffffffffffffffffffffffff166107d46113f5565b73ffffffffffffffffffffffffffffffffffffffff1614806108035750610802816107fd6113f5565b611103565b5b610842576040517f08c379a0000000000000000000000000000000000000000000000000000000008152600401610839906131a3565b60405180910390fd5b61084c83836113fd565b505050565b61085a81611389565b610899576040517f08c379a000000000000000000000000000000000000000000000000000000000815260040161089090613235565b60405180910390fd5b600f600082815260200190815260200160002060008154809291906108bd90613284565b91905055600f60008381526020019081526020016000208190555050565b6000600880549050905090565b6108f96108f36113f5565b826114b6565b610938576040517f08c379a000000000000000000000000000000000000000000000000000000000815260040161092f9061333f565b60405180910390fd5b610943838383611594565b505050565b600061095383610c87565b8210610994576040517f08c379a000000000000000000000000000000000000000000000000000000000815260040161098b906133d1565b60405180910390fd5b600660008473ffffffffffffffffffffffffffffffffffffffff1673ffffffffffffffffffffffffffffffffffffffff168152602001908152602001600020600083815260200190815260200160002054905092915050565b600d6020528060005260406000206000915090508054610a0c90612fdb565b80601f0160208091040260200160405190810160405280929190818152602001828054610a3890612fdb565b8015610a855780601f10610a5a57610100808354040283529160200191610a85565b820191906000526020600020905b815481529060010190602001808311610a6857829003601f168201915b505050505081565b80600e60008473ffffffffffffffffffffffffffffffffffffffff1673ffffffffffffffffffffffffffffffffffffffff16815260200190815260200160002060006101000a81548160ff0219169083151502179055505050565b610b0383838360405180602001604052806000815250610f0d565b505050565b610b19610b136113f5565b826114b6565b610b58576040517f08c379a0000000000000000000000000000000000000000000000000000000008152600401610b4f90613463565b60405180910390fd5b610b6181611620565b50565b6000610b6e6108db565b8210610baf576040517f08c379a0000000000000000000000000000000000000000000000000000000008152600401610ba6906134f5565b60405180910390fd5b60088281548110610bc357610bc2613515565b5b90600052602060002001549050919050565b6000806002600084815260200190815260200160002060009054906101000a900473ffffffffffffffffffffffffffffffffffffffff169050600073ffffffffffffffffffffffffffffffffffffffff168173ffffffffffffffffffffffffffffffffffffffff161415610c7e576040517f08c379a0000000000000000000000000000000000000000000000000000000008152600401610c75906135b6565b60405180910390fd5b80915050919050565b60008073ffffffffffffffffffffffffffffffffffffffff168273ffffffffffffffffffffffffffffffffffffffff161415610cf8576040517f08c379a0000000000000000000000000000000000000000000000000000000008152600401610cef90613648565b60405180910390fd5b600360008373ffffffffffffffffffffffffffffffffffffffff1673ffffffffffffffffffffffffffffffffffffffff168152602001908152602001600020549050919050565b610d476113f5565b73ffffffffffffffffffffffffffffffffffffffff16610d65610e3b565b73ffffffffffffffffffffffffffffffffffffffff1614610dbb576040517f08c379a0000000000000000000000000000000000000000000000000000000008152600401610db2906136b4565b60405180910390fd5b610dc56000611673565b565b610dd082611389565b610e0f576040517f08c379a0000000000000000000000000000000000000000000000000000000008152600401610e0690613746565b60405180910390fd5b80600d60008481526020019081526020016000209080519060200190610e36929190612791565b505050565b6000600a60009054906101000a900473ffffffffffffffffffffffffffffffffffffffff16905090565b606060018054610e7490612fdb565b80601f0160208091040260200160405190810160405280929190818152602001828054610ea090612fdb565b8015610eed5780601f10610ec257610100808354040283529160200191610eed565b820191906000526020600020905b815481529060010190602001808311610ed057829003601f168201915b5050505050905090565b610f09610f026113f5565b8383611739565b5050565b610f1e610f186113f5565b836114b6565b610f5d576040517f08c379a0000000000000000000000000000000000000000000000000000000008152600401610f549061333f565b60405180910390fd5b610f69848484846118a6565b50505050565b6060610f7a82611389565b610fb9576040517f08c379a0000000000000000000000000000000000000000000000000000000008152600401610fb0906137d8565b60405180910390fd5b6000600c60008481526020019081526020016000208054610fd990612fdb565b80601f016020809104026020016040519081016040528092919081815260200182805461100590612fdb565b80156110525780601f1061102757610100808354040283529160200191611052565b820191906000526020600020905b81548152906001019060200180831161103557829003601f168201915b505050505090506000611063611902565b90506000815114156110795781925050506110bc565b6000825111156110ae578082604051602001611096929190613834565b604051602081830303815290604052925050506110bc565b6110b784611919565b925050505b919050565b60006110cd600b6119c0565b60006110d9600b6119d6565b90506110e533826119e4565b6110ef8185611a02565b6110f98184610dc7565b8091505092915050565b6000600560008473ffffffffffffffffffffffffffffffffffffffff1673ffffffffffffffffffffffffffffffffffffffff16815260200190815260200160002060008373ffffffffffffffffffffffffffffffffffffffff1673ffffffffffffffffffffffffffffffffffffffff16815260200190815260200160002060009054906101000a900460ff16905092915050565b61119f6113f5565b73ffffffffffffffffffffffffffffffffffffffff166111bd610e3b565b73ffffffffffffffffffffffffffffffffffffffff1614611213576040517f08c379a000000000000000000000000000000000000000000000000000000000815260040161120a906136b4565b60405180910390fd5b600073ffffffffffffffffffffffffffffffffffffffff168173ffffffffffffffffffffffffffffffffffffffff161415611283576040517f08c379a000000000000000000000000000000000000000000000000000000000815260040161127a906138ca565b60405180910390fd5b61128c81611673565b50565b600f6020528060005260406000206000915090505481565b60007f80ac58cd000000000000000000000000000000000000000000000000000000007bffffffffffffffffffffffffffffffffffffffffffffffffffffffff1916827bffffffffffffffffffffffffffffffffffffffffffffffffffffffff1916148061137257507f5b5e139f000000000000000000000000000000000000000000000000000000007bffffffffffffffffffffffffffffffffffffffffffffffffffffffff1916827bffffffffffffffffffffffffffffffffffffffffffffffffffffffff1916145b80611382575061138182611a76565b5b9050919050565b60008073ffffffffffffffffffffffffffffffffffffffff166002600084815260200190815260200160002060009054906101000a900473ffffffffffffffffffffffffffffffffffffffff1673ffffffffffffffffffffffffffffffffffffffff1614159050919050565b600033905090565b816004600083815260200190815260200160002060006101000a81548173ffffffffffffffffffffffffffffffffffffffff021916908373ffffffffffffffffffffffffffffffffffffffff160217905550808273ffffffffffffffffffffffffffffffffffffffff1661147083610bd5565b73ffffffffffffffffffffffffffffffffffffffff167f8c5be1e5ebec7d5bd14f71427d1e84f3dd0314c0f7b2291e5b200ac8c7c3b92560405160405180910390a45050565b60006114c182611389565b611500576040517f08c379a00000000000000000000000000000000000000000000000000000000081526004016114f79061395c565b60405180910390fd5b600061150b83610bd5565b90508073ffffffffffffffffffffffffffffffffffffffff168473ffffffffffffffffffffffffffffffffffffffff16148061157a57508373ffffffffffffffffffffffffffffffffffffffff16611562846106b4565b73ffffffffffffffffffffffffffffffffffffffff16145b8061158b575061158a8185611103565b5b91505092915050565b61159c6113f5565b73ffffffffffffffffffffffffffffffffffffffff166115ba610e3b565b73ffffffffffffffffffffffffffffffffffffffff1614611610576040517f08c379a0000000000000000000000000000000000000000000000000000000008152600401611607906136b4565b60405180910390fd5b61161b838383611ae0565b505050565b61162981611d3c565b6000600c6000838152602001908152602001600020805461164990612fdb565b90501461167057600c6000828152602001908152602001600020600061166f9190612817565b5b50565b6000600a60009054906101000a900473ffffffffffffffffffffffffffffffffffffffff16905081600a60006101000a81548173ffffffffffffffffffffffffffffffffffffffff021916908373ffffffffffffffffffffffffffffffffffffffff1602179055508173ffffffffffffffffffffffffffffffffffffffff168173ffffffffffffffffffffffffffffffffffffffff167f8be0079c531659141344cd1fd0a4f28419497f9722a3daafe3b4186f6b6457e060405160405180910390a35050565b8173ffffffffffffffffffffffffffffffffffffffff168373ffffffffffffffffffffffffffffffffffffffff1614156117a8576040517f08c379a000000000000000000000000000000000000000000000000000000000815260040161179f906139c8565b60405180910390fd5b80600560008573ffffffffffffffffffffffffffffffffffffffff1673ffffffffffffffffffffffffffffffffffffffff16815260200190815260200160002060008473ffffffffffffffffffffffffffffffffffffffff1673ffffffffffffffffffffffffffffffffffffffff16815260200190815260200160002060006101000a81548160ff0219169083151502179055508173ffffffffffffffffffffffffffffffffffffffff168373ffffffffffffffffffffffffffffffffffffffff167f17307eab39ab6107e8899845ad3d59bd9653f200f220920489ca2b5937696c31836040516118999190612928565b60405180910390a3505050565b6118b1848484611594565b6118bd84848484611e4d565b6118fc576040517f08c379a00000000000000000000000000000000000000000000000000000000081526004016118f390613a5a565b60405180910390fd5b50505050565b606060405180602001604052806000815250905090565b606061192482611389565b611963576040517f08c379a000000000000000000000000000000000000000000000000000000000815260040161195a90613aec565b60405180910390fd5b600061196d611902565b9050600081511161198d57604051806020016040528060008152506119b8565b8061199784611fd5565b6040516020016119a8929190613834565b6040516020818303038152906040525b915050919050565b6001816000016000828254019250508190555050565b600081600001549050919050565b6119fe828260405180602001604052806000815250612136565b5050565b611a0b82611389565b611a4a576040517f08c379a0000000000000000000000000000000000000000000000000000000008152600401611a4190613b7e565b60405180910390fd5b80600c60008481526020019081526020016000209080519060200190611a71929190612791565b505050565b60007f01ffc9a7000000000000000000000000000000000000000000000000000000007bffffffffffffffffffffffffffffffffffffffffffffffffffffffff1916827bffffffffffffffffffffffffffffffffffffffffffffffffffffffff1916149050919050565b8273ffffffffffffffffffffffffffffffffffffffff16611b0082610bd5565b73ffffffffffffffffffffffffffffffffffffffff1614611b56576040517f08c379a0000000000000000000000000000000000000000000000000000000008152600401611b4d90613c10565b60405180910390fd5b600073ffffffffffffffffffffffffffffffffffffffff168273ffffffffffffffffffffffffffffffffffffffff161415611bc6576040517f08c379a0000000000000000000000000000000000000000000000000000000008152600401611bbd90613ca2565b60405180910390fd5b611bd1838383612191565b611bdc6000826113fd565b6001600360008573ffffffffffffffffffffffffffffffffffffffff1673ffffffffffffffffffffffffffffffffffffffff1681526020019081526020016000206000828254611c2c9190613cc2565b925050819055506001600360008473ffffffffffffffffffffffffffffffffffffffff1673ffffffffffffffffffffffffffffffffffffffff1681526020019081526020016000206000828254611c839190613cf6565b92505081905550816002600083815260200190815260200160002060006101000a81548173ffffffffffffffffffffffffffffffffffffffff021916908373ffffffffffffffffffffffffffffffffffffffff160217905550808273ffffffffffffffffffffffffffffffffffffffff168473ffffffffffffffffffffffffffffffffffffffff167fddf252ad1be2c89b69c2b068fc378daa952ba7f163c4a11628f55a4df523b3ef60405160405180910390a4505050565b6000611d4782610bd5565b9050611d5581600084612191565b611d606000836113fd565b6001600360008373ffffffffffffffffffffffffffffffffffffffff1673ffffffffffffffffffffffffffffffffffffffff1681526020019081526020016000206000828254611db09190613cc2565b925050819055506002600083815260200190815260200160002060006101000a81549073ffffffffffffffffffffffffffffffffffffffff021916905581600073ffffffffffffffffffffffffffffffffffffffff168273ffffffffffffffffffffffffffffffffffffffff167fddf252ad1be2c89b69c2b068fc378daa952ba7f163c4a11628f55a4df523b3ef60405160405180910390a45050565b6000611e6e8473ffffffffffffffffffffffffffffffffffffffff166122a5565b15611fc8578373ffffffffffffffffffffffffffffffffffffffff1663150b7a02611e976113f5565b8786866040518563ffffffff1660e01b8152600401611eb99493929190613da1565b6020604051808303816000875af1925050508015611ef557506040513d601f19601f82011682018060405250810190611ef29190613e02565b60015b611f78573d8060008114611f25576040519150601f19603f3d011682016040523d82523d6000602084013e611f2a565b606091505b50600081511415611f70576040517f08c379a0000000000000000000000000000000000000000000000000000000008152600401611f6790613a5a565b60405180910390fd5b805181602001fd5b63150b7a0260e01b7bffffffffffffffffffffffffffffffffffffffffffffffffffffffff1916817bffffffffffffffffffffffffffffffffffffffffffffffffffffffff191614915050611fcd565b600190505b949350505050565b6060600082141561201d576040518060400160405280600181526020017f30000000000000000000000000000000000000000000000000000000000000008152509050612131565b600082905060005b6000821461204f57808061203890613284565b915050600a826120489190613e5e565b9150612025565b60008167ffffffffffffffff81111561206b5761206a612c49565b5b6040519080825280601f01601f19166020018201604052801561209d5781602001600182028036833780820191505090505b5090505b6000851461212a576001826120b69190613cc2565b9150600a856120c59190613e8f565b60306120d19190613cf6565b60f81b8183815181106120e7576120e6613515565b5b60200101907effffffffffffffffffffffffffffffffffffffffffffffffffffffffffffff1916908160001a905350600a856121239190613e5e565b94506120a1565b8093505050505b919050565b61214083836122b8565b61214d6000848484611e4d565b61218c576040517f08c379a000000000000000000000000000000000000000000000000000000000815260040161218390613a5a565b60405180910390fd5b505050565b61219c838383612486565b600073ffffffffffffffffffffffffffffffffffffffff168373ffffffffffffffffffffffffffffffffffffffff1614156121df576121da8161248b565b61221e565b8173ffffffffffffffffffffffffffffffffffffffff168373ffffffffffffffffffffffffffffffffffffffff161461221d5761221c83826124d4565b5b5b600073ffffffffffffffffffffffffffffffffffffffff168273ffffffffffffffffffffffffffffffffffffffff1614156122615761225c81612641565b6122a0565b8273ffffffffffffffffffffffffffffffffffffffff168273ffffffffffffffffffffffffffffffffffffffff161461229f5761229e8282612712565b5b5b505050565b600080823b905060008111915050919050565b600073ffffffffffffffffffffffffffffffffffffffff168273ffffffffffffffffffffffffffffffffffffffff161415612328576040517f08c379a000000000000000000000000000000000000000000000000000000000815260040161231f90613f0c565b60405180910390fd5b61233181611389565b15612371576040517f08c379a000000000000000000000000000000000000000000000000000000000815260040161236890613f78565b60405180910390fd5b61237d60008383612191565b6001600360008473ffffffffffffffffffffffffffffffffffffffff1673ffffffffffffffffffffffffffffffffffffffff16815260200190815260200160002060008282546123cd9190613cf6565b92505081905550816002600083815260200190815260200160002060006101000a81548173ffffffffffffffffffffffffffffffffffffffff021916908373ffffffffffffffffffffffffffffffffffffffff160217905550808273ffffffffffffffffffffffffffffffffffffffff16600073ffffffffffffffffffffffffffffffffffffffff167fddf252ad1be2c89b69c2b068fc378daa952ba7f163c4a11628f55a4df523b3ef60405160405180910390a45050565b505050565b6008805490506009600083815260200190815260200160002081905550600881908060018154018082558091505060019003906000526020600020016000909190919091505550565b600060016124e184610c87565b6124eb9190613cc2565b90506000600760008481526020019081526020016000205490508181146125d0576000600660008673ffffffffffffffffffffffffffffffffffffffff1673ffffffffffffffffffffffffffffffffffffffff168152602001908152602001600020600084815260200190815260200160002054905080600660008773ffffffffffffffffffffffffffffffffffffffff1673ffffffffffffffffffffffffffffffffffffffff168152602001908152602001600020600084815260200190815260200160002081905550816007600083815260200190815260200160002081905550505b6007600084815260200190815260200160002060009055600660008573ffffffffffffffffffffffffffffffffffffffff1673ffffffffffffffffffffffffffffffffffffffff16815260200190815260200160002060008381526020019081526020016000206000905550505050565b600060016008805490506126559190613cc2565b905060006009600084815260200190815260200160002054905060006008838154811061268557612684613515565b5b9060005260206000200154905080600883815481106126a7576126a6613515565b5b9060005260206000200181905550816009600083815260200190815260200160002081905550600960008581526020019081526020016000206000905560088054806126f6576126f5613f98565b5b6001900381819060005260206000200160009055905550505050565b600061271d83610c87565b905081600660008573ffffffffffffffffffffffffffffffffffffffff1673ffffffffffffffffffffffffffffffffffffffff168152602001908152602001600020600083815260200190815260200160002081905550806007600084815260200190815260200160002081905550505050565b82805461279d90612fdb565b90600052602060002090601f0160209004810192826127bf5760008555612806565b82601f106127d857805160ff1916838001178555612806565b82800160010185558215612806579182015b828111156128055782518255916020019190600101906127ea565b5b5090506128139190612857565b5090565b50805461282390612fdb565b6000825580601f106128355750612854565b601f0160209004906000526020600020908101906128539190612857565b5b50565b5b80821115612870576000816000905550600101612858565b5090565b6000604051905090565b600080fd5b600080fd5b60007fffffffff0000000000000000000000000000000000000000000000000000000082169050919050565b6128bd81612888565b81146128c857600080fd5b50565b6000813590506128da816128b4565b92915050565b6000602082840312156128f6576128f561287e565b5b6000612904848285016128cb565b91505092915050565b60008115159050919050565b6129228161290d565b82525050565b600060208201905061293d6000830184612919565b92915050565b600073ffffffffffffffffffffffffffffffffffffffff82169050919050565b600061296e82612943565b9050919050565b61297e81612963565b811461298957600080fd5b50565b60008135905061299b81612975565b92915050565b6000602082840312156129b7576129b661287e565b5b60006129c58482850161298c565b91505092915050565b600081519050919050565b600082825260208201905092915050565b60005b83811015612a085780820151818401526020810190506129ed565b83811115612a17576000848401525b50505050565b6000601f19601f8301169050919050565b6000612a39826129ce565b612a4381856129d9565b9350612a538185602086016129ea565b612a5c81612a1d565b840191505092915050565b60006020820190508181036000830152612a818184612a2e565b905092915050565b6000819050919050565b612a9c81612a89565b8114612aa757600080fd5b50565b600081359050612ab981612a93565b92915050565b600060208284031215612ad557612ad461287e565b5b6000612ae384828501612aaa565b91505092915050565b612af581612963565b82525050565b6000602082019050612b106000830184612aec565b92915050565b60008060408385031215612b2d57612b2c61287e565b5b6000612b3b8582860161298c565b9250506020612b4c85828601612aaa565b9150509250929050565b612b5f81612a89565b82525050565b6000602082019050612b7a6000830184612b56565b92915050565b600080600060608486031215612b9957612b9861287e565b5b6000612ba78682870161298c565b9350506020612bb88682870161298c565b9250506040612bc986828701612aaa565b9150509250925092565b612bdc8161290d565b8114612be757600080fd5b50565b600081359050612bf981612bd3565b92915050565b60008060408385031215612c1657612c1561287e565b5b6000612c248582860161298c565b9250506020612c3585828601612bea565b9150509250929050565b600080fd5b600080fd5b7f4e487b7100000000000000000000000000000000000000000000000000000000600052604160045260246000fd5b612c8182612a1d565b810181811067ffffffffffffffff82111715612ca057612c9f612c49565b5b80604052505050565b6000612cb3612874565b9050612cbf8282612c78565b919050565b600067ffffffffffffffff821115612cdf57612cde612c49565b5b612ce882612a1d565b9050602081019050919050565b82818337600083830152505050565b6000612d17612d1284612cc4565b612ca9565b905082815260208101848484011115612d3357612d32612c44565b5b612d3e848285612cf5565b509392505050565b600082601f830112612d5b57612d5a612c3f565b5b8135612d6b848260208601612d04565b91505092915050565b60008060408385031215612d8b57612d8a61287e565b5b6000612d9985828601612aaa565b925050602083013567ffffffffffffffff811115612dba57612db9612883565b5b612dc685828601612d46565b9150509250929050565b600067ffffffffffffffff821115612deb57612dea612c49565b5b612df482612a1d565b9050602081019050919050565b6000612e14612e0f84612dd0565b612ca9565b905082815260208101848484011115612e3057612e2f612c44565b5b612e3b848285612cf5565b509392505050565b600082601f830112612e5857612e57612c3f565b5b8135612e68848260208601612e01565b91505092915050565b60008060008060808587031215612e8b57612e8a61287e565b5b6000612e998782880161298c565b9450506020612eaa8782880161298c565b9350506040612ebb87828801612aaa565b925050606085013567ffffffffffffffff811115612edc57612edb612883565b5b612ee887828801612e43565b91505092959194509250565b60008060408385031215612f0b57612f0a61287e565b5b600083013567ffffffffffffffff811115612f2957612f28612883565b5b612f3585828601612d46565b925050602083013567ffffffffffffffff811115612f5657612f55612883565b5b612f6285828601612d46565b9150509250929050565b60008060408385031215612f8357612f8261287e565b5b6000612f918582860161298c565b9250506020612fa28582860161298c565b9150509250929050565b7f4e487b7100000000000000000000000000000000000000000000000000000000600052602260045260246000fd5b60006002820490506001821680612ff357607f821691505b6020821081141561300757613006612fac565b5b50919050565b7f4552433732313a20617070726f76656420717565727920666f72206e6f6e657860008201527f697374656e7420746f6b656e0000000000000000000000000000000000000000602082015250565b6000613069602c836129d9565b91506130748261300d565b604082019050919050565b600060208201905081810360008301526130988161305c565b9050919050565b7f4552433732313a20617070726f76616c20746f2063757272656e74206f776e6560008201527f7200000000000000000000000000000000000000000000000000000000000000602082015250565b60006130fb6021836129d9565b91506131068261309f565b604082019050919050565b6000602082019050818103600083015261312a816130ee565b9050919050565b7f4552433732313a20617070726f76652063616c6c6572206973206e6f74206f7760008201527f6e6572206e6f7220617070726f76656420666f7220616c6c0000000000000000602082015250565b600061318d6038836129d9565b915061319882613131565b604082019050919050565b600060208201905081810360008301526131bc81613180565b9050919050565b7f45524337323155524953746f726167653a205f6b696e67646f6d496e6465782060008201527f736574206f66206e6f6e6578697374656e7420746f6b656e0000000000000000602082015250565b600061321f6038836129d9565b915061322a826131c3565b604082019050919050565b6000602082019050818103600083015261324e81613212565b9050919050565b7f4e487b7100000000000000000000000000000000000000000000000000000000600052601160045260246000fd5b600061328f82612a89565b91507fffffffffffffffffffffffffffffffffffffffffffffffffffffffffffffffff8214156132c2576132c1613255565b5b600182019050919050565b7f4552433732313a207472616e736665722063616c6c6572206973206e6f74206f60008201527f776e6572206e6f7220617070726f766564000000000000000000000000000000602082015250565b60006133296031836129d9565b9150613334826132cd565b604082019050919050565b600060208201905081810360008301526133588161331c565b9050919050565b7f455243373231456e756d657261626c653a206f776e657220696e646578206f7560008201527f74206f6620626f756e6473000000000000000000000000000000000000000000602082015250565b60006133bb602b836129d9565b91506133c68261335f565b604082019050919050565b600060208201905081810360008301526133ea816133ae565b9050919050565b7f4552433732314275726e61626c653a2063616c6c6572206973206e6f74206f7760008201527f6e6572206e6f7220617070726f76656400000000000000000000000000000000602082015250565b600061344d6030836129d9565b9150613458826133f1565b604082019050919050565b6000602082019050818103600083015261347c81613440565b9050919050565b7f455243373231456e756d657261626c653a20676c6f62616c20696e646578206f60008201527f7574206f6620626f756e64730000000000000000000000000000000000000000602082015250565b60006134df602c836129d9565b91506134ea82613483565b604082019050919050565b6000602082019050818103600083015261350e816134d2565b9050919050565b7f4e487b7100000000000000000000000000000000000000000000000000000000600052603260045260246000fd5b7f4552433732313a206f776e657220717565727920666f72206e6f6e657869737460008201527f656e7420746f6b656e0000000000000000000000000000000000000000000000602082015250565b60006135a06029836129d9565b91506135ab82613544565b604082019050919050565b600060208201905081810360008301526135cf81613593565b9050919050565b7f4552433732313a2062616c616e636520717565727920666f7220746865207a6560008201527f726f206164647265737300000000000000000000000000000000000000000000602082015250565b6000613632602a836129d9565b915061363d826135d6565b604082019050919050565b6000602082019050818103600083015261366181613625565b9050919050565b7f4f776e61626c653a2063616c6c6572206973206e6f7420746865206f776e6572600082015250565b600061369e6020836129d9565b91506136a982613668565b602082019050919050565b600060208201905081810360008301526136cd81613691565b9050919050565b7f45524337323155524953746f726167653a206c616e644e616d6520736574206f60008201527f66206e6f6e6578697374656e7420746f6b656e00000000000000000000000000602082015250565b60006137306033836129d9565b915061373b826136d4565b604082019050919050565b6000602082019050818103600083015261375f81613723565b9050919050565b7f45524337323155524953746f726167653a2055524920717565727920666f722060008201527f6e6f6e6578697374656e7420746f6b656e000000000000000000000000000000602082015250565b60006137c26031836129d9565b91506137cd82613766565b604082019050919050565b600060208201905081810360008301526137f1816137b5565b9050919050565b600081905092915050565b600061380e826129ce565b61381881856137f8565b93506138288185602086016129ea565b80840191505092915050565b60006138408285613803565b915061384c8284613803565b91508190509392505050565b7f4f776e61626c653a206e6577206f776e657220697320746865207a65726f206160008201527f6464726573730000000000000000000000000000000000000000000000000000602082015250565b60006138b46026836129d9565b91506138bf82613858565b604082019050919050565b600060208201905081810360008301526138e3816138a7565b9050919050565b7f4552433732313a206f70657261746f7220717565727920666f72206e6f6e657860008201527f697374656e7420746f6b656e0000000000000000000000000000000000000000602082015250565b6000613946602c836129d9565b9150613951826138ea565b604082019050919050565b6000602082019050818103600083015261397581613939565b9050919050565b7f4552433732313a20617070726f766520746f2063616c6c657200000000000000600082015250565b60006139b26019836129d9565b91506139bd8261397c565b602082019050919050565b600060208201905081810360008301526139e1816139a5565b9050919050565b7f4552433732313a207472616e7366657220746f206e6f6e20455243373231526560008201527f63656976657220696d706c656d656e7465720000000000000000000000000000602082015250565b6000613a446032836129d9565b9150613a4f826139e8565b604082019050919050565b60006020820190508181036000830152613a7381613a37565b9050919050565b7f4552433732314d657461646174613a2055524920717565727920666f72206e6f60008201527f6e6578697374656e7420746f6b656e0000000000000000000000000000000000602082015250565b6000613ad6602f836129d9565b9150613ae182613a7a565b604082019050919050565b60006020820190508181036000830152613b0581613ac9565b9050919050565b7f45524337323155524953746f726167653a2055524920736574206f66206e6f6e60008201527f6578697374656e7420746f6b656e000000000000000000000000000000000000602082015250565b6000613b68602e836129d9565b9150613b7382613b0c565b604082019050919050565b60006020820190508181036000830152613b9781613b5b565b9050919050565b7f4552433732313a207472616e73666572206f6620746f6b656e2074686174206960008201527f73206e6f74206f776e0000000000000000000000000000000000000000000000602082015250565b6000613bfa6029836129d9565b9150613c0582613b9e565b604082019050919050565b60006020820190508181036000830152613c2981613bed565b9050919050565b7f4552433732313a207472616e7366657220746f20746865207a65726f2061646460008201527f7265737300000000000000000000000000000000000000000000000000000000602082015250565b6000613c8c6024836129d9565b9150613c9782613c30565b604082019050919050565b60006020820190508181036000830152613cbb81613c7f565b9050919050565b6000613ccd82612a89565b9150613cd883612a89565b925082821015613ceb57613cea613255565b5b828203905092915050565b6000613d0182612a89565b9150613d0c83612a89565b9250827fffffffffffffffffffffffffffffffffffffffffffffffffffffffffffffffff03821115613d4157613d40613255565b5b828201905092915050565b600081519050919050565b600082825260208201905092915050565b6000613d7382613d4c565b613d7d8185613d57565b9350613d8d8185602086016129ea565b613d9681612a1d565b840191505092915050565b6000608082019050613db66000830187612aec565b613dc36020830186612aec565b613dd06040830185612b56565b8181036060830152613de28184613d68565b905095945050505050565b600081519050613dfc816128b4565b92915050565b600060208284031215613e1857613e1761287e565b5b6000613e2684828501613ded565b91505092915050565b7f4e487b7100000000000000000000000000000000000000000000000000000000600052601260045260246000fd5b6000613e6982612a89565b9150613e7483612a89565b925082613e8457613e83613e2f565b5b828204905092915050565b6000613e9a82612a89565b9150613ea583612a89565b925082613eb557613eb4613e2f565b5b828206905092915050565b7f4552433732313a206d696e7420746f20746865207a65726f2061646472657373600082015250565b6000613ef66020836129d9565b9150613f0182613ec0565b602082019050919050565b60006020820190508181036000830152613f2581613ee9565b9050919050565b7f4552433732313a20746f6b656e20616c7265616479206d696e74656400000000600082015250565b6000613f62601c836129d9565b9150613f6d82613f2c565b602082019050919050565b60006020820190508181036000830152613f9181613f55565b9050919050565b7f4e487b7100000000000000000000000000000000000000000000000000000000600052603160045260246000fdfea2646970667358221220c5dfd15eb0a5937ba6e7682a97a248b3567eeccfb2fef87a7c911ead24920bde64736f6c634300080a0033",
  "immutableReferences": {},
  "source": "// SPDX-License-Identifier: MIT\npragma solidity ^0.8.0;\n\nimport \"@openzeppelin/contracts/token/ERC721/extensions/ERC721URIStorage.sol\";\nimport \"@openzeppelin/contracts/token/ERC721/extensions/ERC721Burnable.sol\";\nimport \"@openzeppelin/contracts/token/ERC721/extensions/ERC721Enumerable.sol\";\nimport \"@openzeppelin/contracts/utils/Counters.sol\";\nimport \"@openzeppelin/contracts/access/Ownable.sol\";\nimport \"./Lands.sol\";\n\ncontract Kingdom is ERC721Enumerable, Ownable {\n    using Counters for Counters.Counter;\n    Counters.Counter private _tokenIds;\n    using Strings for uint256;\n\n    // Optional mapping for token URIs\n    mapping(uint256 => string) private _tokenURIs;\n\n    mapping(uint256 => string) public tokenNames;\n\n    mapping(address => bool) public userToRegistered;\n\n    mapping(uint256 => uint256) public kingdomToLandCount;\n\n    constructor() public ERC721(\"Kingdom\", \"KING\") {}\n\n    function mintNFT(string memory tokenURI, string memory landName)\n        public\n        returns (uint256)\n    {\n        _tokenIds.increment();\n        uint256 newItemId = _tokenIds.current();\n        _safeMint(msg.sender, newItemId);\n        _setTokenURI(newItemId, tokenURI);\n        setKingdomName(newItemId, landName);\n        return newItemId;\n    }\n\n    // function get(address _addr) public view returns (uint) {\n    //     // Mapping always returns a value.\n    //     // If the value was never set, it will return the default value.\n    //     return myMap[_addr];\n    // }\n\n    function set(address _addr, bool _value) public {\n        // Update the value at this address\n        userToRegistered[_addr] = _value;\n    }\n\n    function addLand(uint256 _kingdomIndex) public {\n        // Check if user owns land at index 'landIndex'\n        // require(_msgSender() == ERC721.ownerOf(landIndex));\n        require(\n            _exists(_kingdomIndex),\n            \"ERC721URIStorage: _kingdomIndex set of nonexistent token\"\n        );\n        kingdomToLandCount[_kingdomIndex] = kingdomToLandCount[_kingdomIndex]++;\n    }\n\n    function setKingdomName(uint256 tokenId, string memory _kingdomName)\n        public\n    {\n        require(\n            _exists(tokenId),\n            \"ERC721URIStorage: landName set of nonexistent token\"\n        );\n        tokenNames[tokenId] = _kingdomName;\n    }\n\n    /**\n     * @dev See {IERC721Metadata-tokenURI}.\n     */\n    function tokenURI(uint256 tokenId)\n        public\n        view\n        virtual\n        override\n        returns (string memory)\n    {\n        require(\n            _exists(tokenId),\n            \"ERC721URIStorage: URI query for nonexistent token\"\n        );\n\n        string memory _tokenURI = _tokenURIs[tokenId];\n        string memory base = _baseURI();\n\n        // If there is no base URI, return the token URI.\n        if (bytes(base).length == 0) {\n            return _tokenURI;\n        }\n        // If both are set, concatenate the baseURI and tokenURI (via abi.encodePacked).\n        if (bytes(_tokenURI).length > 0) {\n            return string(abi.encodePacked(base, _tokenURI));\n        }\n\n        return super.tokenURI(tokenId);\n    }\n\n    function burn(uint256 tokenId) public virtual {\n        //solhint-disable-next-line max-line-length\n        require(\n            _isApprovedOrOwner(_msgSender(), tokenId),\n            \"ERC721Burnable: caller is not owner nor approved\"\n        );\n        _burn(tokenId);\n    }\n\n    /**\n     * @dev Sets `_tokenURI` as the tokenURI of `tokenId`.\n     *\n     * Requirements:\n     *\n     * - `tokenId` must exist.\n     */\n    function _setTokenURI(uint256 tokenId, string memory _tokenURI)\n        internal\n        virtual\n    {\n        require(\n            _exists(tokenId),\n            \"ERC721URIStorage: URI set of nonexistent token\"\n        );\n        _tokenURIs[tokenId] = _tokenURI;\n    }\n\n    /**\n     * @dev Destroys `tokenId`.\n     * The approval is cleared when the token is burned.\n     *\n     * Requirements:\n     *\n     * - `tokenId` must exist.\n     *\n     * Emits a {Transfer} event.\n     */\n    function _burn(uint256 tokenId) internal virtual override {\n        super._burn(tokenId);\n\n        if (bytes(_tokenURIs[tokenId]).length != 0) {\n            delete _tokenURIs[tokenId];\n        }\n    }\n\n    function _transfer(\n        address from,\n        address to,\n        uint256 tokenId\n    ) internal override onlyOwner {\n        super._transfer(from, to, tokenId);\n    }\n}\n",
  "sourcePath": "/home/darovip/projects/mayland_labs/shattered-contracts/contracts/Kingdom.sol",
  "compiler": {
    "name": "solc",
    "version": "0.8.10+commit.fc410830.Emscripten.clang"
  },
  "schemaVersion": "3.4.4",
  "updatedAt": "2022-01-14T06:16:51.105Z",
  "devdoc": {
    "kind": "dev",
    "methods": {
      "approve(address,uint256)": {
        "details": "See {IERC721-approve}."
      },
      "balanceOf(address)": {
        "details": "See {IERC721-balanceOf}."
      },
      "getApproved(uint256)": {
        "details": "See {IERC721-getApproved}."
      },
      "isApprovedForAll(address,address)": {
        "details": "See {IERC721-isApprovedForAll}."
      },
      "name()": {
        "details": "See {IERC721Metadata-name}."
      },
      "owner()": {
        "details": "Returns the address of the current owner."
      },
      "ownerOf(uint256)": {
        "details": "See {IERC721-ownerOf}."
      },
      "renounceOwnership()": {
        "details": "Leaves the contract without owner. It will not be possible to call `onlyOwner` functions anymore. Can only be called by the current owner. NOTE: Renouncing ownership will leave the contract without an owner, thereby removing any functionality that is only available to the owner."
      },
      "safeTransferFrom(address,address,uint256)": {
        "details": "See {IERC721-safeTransferFrom}."
      },
      "safeTransferFrom(address,address,uint256,bytes)": {
        "details": "See {IERC721-safeTransferFrom}."
      },
      "setApprovalForAll(address,bool)": {
        "details": "See {IERC721-setApprovalForAll}."
      },
      "supportsInterface(bytes4)": {
        "details": "See {IERC165-supportsInterface}."
      },
      "symbol()": {
        "details": "See {IERC721Metadata-symbol}."
      },
      "tokenByIndex(uint256)": {
        "details": "See {IERC721Enumerable-tokenByIndex}."
      },
      "tokenOfOwnerByIndex(address,uint256)": {
        "details": "See {IERC721Enumerable-tokenOfOwnerByIndex}."
      },
      "tokenURI(uint256)": {
        "details": "See {IERC721Metadata-tokenURI}."
      },
      "totalSupply()": {
        "details": "See {IERC721Enumerable-totalSupply}."
      },
      "transferFrom(address,address,uint256)": {
        "details": "See {IERC721-transferFrom}."
      },
      "transferOwnership(address)": {
        "details": "Transfers ownership of the contract to a new account (`newOwner`). Can only be called by the current owner."
      }
    },
    "version": 1
  },
  "userdoc": {
    "kind": "user",
    "methods": {},
    "version": 1
  }
}