{
  "contractName": "Lands",
  "abi": [
    {
      "inputs": [],
      "stateMutability": "nonpayable",
      "type": "constructor"
    },
    {
      "anonymous": false,
      "inputs": [
        {
          "indexed": true,
          "internalType": "address",
          "name": "owner",
          "type": "address"
        },
        {
          "indexed": true,
          "internalType": "address",
          "name": "approved",
          "type": "address"
        },
        {
          "indexed": true,
          "internalType": "uint256",
          "name": "tokenId",
          "type": "uint256"
        }
      ],
      "name": "Approval",
      "type": "event"
    },
    {
      "anonymous": false,
      "inputs": [
        {
          "indexed": true,
          "internalType": "address",
          "name": "owner",
          "type": "address"
        },
        {
          "indexed": true,
          "internalType": "address",
          "name": "operator",
          "type": "address"
        },
        {
          "indexed": false,
          "internalType": "bool",
          "name": "approved",
          "type": "bool"
        }
      ],
      "name": "ApprovalForAll",
      "type": "event"
    },
    {
      "anonymous": false,
      "inputs": [
        {
          "indexed": true,
          "internalType": "address",
          "name": "previousOwner",
          "type": "address"
        },
        {
          "indexed": true,
          "internalType": "address",
          "name": "newOwner",
          "type": "address"
        }
      ],
      "name": "OwnershipTransferred",
      "type": "event"
    },
    {
      "anonymous": false,
      "inputs": [
        {
          "indexed": true,
          "internalType": "address",
          "name": "from",
          "type": "address"
        },
        {
          "indexed": true,
          "internalType": "address",
          "name": "to",
          "type": "address"
        },
        {
          "indexed": true,
          "internalType": "uint256",
          "name": "tokenId",
          "type": "uint256"
        }
      ],
      "name": "Transfer",
      "type": "event"
    },
    {
      "inputs": [
        {
          "internalType": "address",
          "name": "to",
          "type": "address"
        },
        {
          "internalType": "uint256",
          "name": "tokenId",
          "type": "uint256"
        }
      ],
      "name": "approve",
      "outputs": [],
      "stateMutability": "nonpayable",
      "type": "function"
    },
    {
      "inputs": [
        {
          "internalType": "address",
          "name": "owner",
          "type": "address"
        }
      ],
      "name": "balanceOf",
      "outputs": [
        {
          "internalType": "uint256",
          "name": "",
          "type": "uint256"
        }
      ],
      "stateMutability": "view",
      "type": "function"
    },
    {
      "inputs": [
        {
          "internalType": "uint256",
          "name": "tokenId",
          "type": "uint256"
        }
      ],
      "name": "getApproved",
      "outputs": [
        {
          "internalType": "address",
          "name": "",
          "type": "address"
        }
      ],
      "stateMutability": "view",
      "type": "function"
    },
    {
      "inputs": [
        {
          "internalType": "uint256",
          "name": "",
          "type": "uint256"
        }
      ],
      "name": "indexToBuilding",
      "outputs": [
        {
          "internalType": "contract Building",
          "name": "",
          "type": "address"
        }
      ],
      "stateMutability": "view",
      "type": "function"
    },
    {
      "inputs": [
        {
          "internalType": "address",
          "name": "owner",
          "type": "address"
        },
        {
          "internalType": "address",
          "name": "operator",
          "type": "address"
        }
      ],
      "name": "isApprovedForAll",
      "outputs": [
        {
          "internalType": "bool",
          "name": "",
          "type": "bool"
        }
      ],
      "stateMutability": "view",
      "type": "function"
    },
    {
      "inputs": [],
      "name": "name",
      "outputs": [
        {
          "internalType": "string",
          "name": "",
          "type": "string"
        }
      ],
      "stateMutability": "view",
      "type": "function"
    },
    {
      "inputs": [
        {
          "internalType": "address",
          "name": "",
          "type": "address"
        }
      ],
      "name": "names",
      "outputs": [
        {
          "internalType": "string",
          "name": "",
          "type": "string"
        }
      ],
      "stateMutability": "view",
      "type": "function"
    },
    {
      "inputs": [],
      "name": "owner",
      "outputs": [
        {
          "internalType": "address",
          "name": "",
          "type": "address"
        }
      ],
      "stateMutability": "view",
      "type": "function"
    },
    {
      "inputs": [
        {
          "internalType": "uint256",
          "name": "tokenId",
          "type": "uint256"
        }
      ],
      "name": "ownerOf",
      "outputs": [
        {
          "internalType": "address",
          "name": "",
          "type": "address"
        }
      ],
      "stateMutability": "view",
      "type": "function"
    },
    {
      "inputs": [],
      "name": "renounceOwnership",
      "outputs": [],
      "stateMutability": "nonpayable",
      "type": "function"
    },
    {
      "inputs": [
        {
          "internalType": "address",
          "name": "from",
          "type": "address"
        },
        {
          "internalType": "address",
          "name": "to",
          "type": "address"
        },
        {
          "internalType": "uint256",
          "name": "tokenId",
          "type": "uint256"
        }
      ],
      "name": "safeTransferFrom",
      "outputs": [],
      "stateMutability": "nonpayable",
      "type": "function"
    },
    {
      "inputs": [
        {
          "internalType": "address",
          "name": "from",
          "type": "address"
        },
        {
          "internalType": "address",
          "name": "to",
          "type": "address"
        },
        {
          "internalType": "uint256",
          "name": "tokenId",
          "type": "uint256"
        },
        {
          "internalType": "bytes",
          "name": "_data",
          "type": "bytes"
        }
      ],
      "name": "safeTransferFrom",
      "outputs": [],
      "stateMutability": "nonpayable",
      "type": "function"
    },
    {
      "inputs": [
        {
          "internalType": "address",
          "name": "operator",
          "type": "address"
        },
        {
          "internalType": "bool",
          "name": "approved",
          "type": "bool"
        }
      ],
      "name": "setApprovalForAll",
      "outputs": [],
      "stateMutability": "nonpayable",
      "type": "function"
    },
    {
      "inputs": [
        {
          "internalType": "bytes4",
          "name": "interfaceId",
          "type": "bytes4"
        }
      ],
      "name": "supportsInterface",
      "outputs": [
        {
          "internalType": "bool",
          "name": "",
          "type": "bool"
        }
      ],
      "stateMutability": "view",
      "type": "function"
    },
    {
      "inputs": [],
      "name": "symbol",
      "outputs": [
        {
          "internalType": "string",
          "name": "",
          "type": "string"
        }
      ],
      "stateMutability": "view",
      "type": "function"
    },
    {
      "inputs": [
        {
          "internalType": "uint256",
          "name": "index",
          "type": "uint256"
        }
      ],
      "name": "tokenByIndex",
      "outputs": [
        {
          "internalType": "uint256",
          "name": "",
          "type": "uint256"
        }
      ],
      "stateMutability": "view",
      "type": "function"
    },
    {
      "inputs": [
        {
          "internalType": "uint256",
          "name": "",
          "type": "uint256"
        }
      ],
      "name": "tokenNames",
      "outputs": [
        {
          "internalType": "string",
          "name": "",
          "type": "string"
        }
      ],
      "stateMutability": "view",
      "type": "function"
    },
    {
      "inputs": [
        {
          "internalType": "address",
          "name": "owner",
          "type": "address"
        },
        {
          "internalType": "uint256",
          "name": "index",
          "type": "uint256"
        }
      ],
      "name": "tokenOfOwnerByIndex",
      "outputs": [
        {
          "internalType": "uint256",
          "name": "",
          "type": "uint256"
        }
      ],
      "stateMutability": "view",
      "type": "function"
    },
    {
      "inputs": [],
      "name": "totalSupply",
      "outputs": [
        {
          "internalType": "uint256",
          "name": "",
          "type": "uint256"
        }
      ],
      "stateMutability": "view",
      "type": "function"
    },
    {
      "inputs": [
        {
          "internalType": "address",
          "name": "from",
          "type": "address"
        },
        {
          "internalType": "address",
          "name": "to",
          "type": "address"
        },
        {
          "internalType": "uint256",
          "name": "tokenId",
          "type": "uint256"
        }
      ],
      "name": "transferFrom",
      "outputs": [],
      "stateMutability": "nonpayable",
      "type": "function"
    },
    {
      "inputs": [
        {
          "internalType": "address",
          "name": "newOwner",
          "type": "address"
        }
      ],
      "name": "transferOwnership",
      "outputs": [],
      "stateMutability": "nonpayable",
      "type": "function"
    },
    {
      "inputs": [
        {
          "internalType": "string",
          "name": "tokenURI",
          "type": "string"
        },
        {
          "internalType": "string",
          "name": "landName",
          "type": "string"
        }
      ],
      "name": "mintNFT",
      "outputs": [
        {
          "internalType": "uint256",
          "name": "",
          "type": "uint256"
        }
      ],
      "stateMutability": "nonpayable",
      "type": "function"
    },
    {
      "inputs": [
        {
          "internalType": "uint256",
          "name": "tokenId",
          "type": "uint256"
        },
        {
          "internalType": "string",
          "name": "_landName",
          "type": "string"
        }
      ],
      "name": "setLandName",
      "outputs": [],
      "stateMutability": "nonpayable",
      "type": "function"
    },
    {
      "inputs": [],
      "name": "addLandType",
      "outputs": [],
      "stateMutability": "nonpayable",
      "type": "function"
    },
    {
      "inputs": [
        {
          "internalType": "string",
          "name": "name",
          "type": "string"
        }
      ],
      "name": "changeName",
      "outputs": [],
      "stateMutability": "nonpayable",
      "type": "function"
    },
    {
      "inputs": [
        {
          "internalType": "uint256",
          "name": "_building",
          "type": "uint256"
        }
      ],
      "name": "build",
      "outputs": [],
      "stateMutability": "nonpayable",
      "type": "function"
    },
    {
      "inputs": [
        {
          "internalType": "uint256",
          "name": "tokenId",
          "type": "uint256"
        }
      ],
      "name": "tokenURI",
      "outputs": [
        {
          "internalType": "string",
          "name": "",
          "type": "string"
        }
      ],
      "stateMutability": "view",
      "type": "function"
    },
    {
      "inputs": [
        {
          "internalType": "uint256",
          "name": "tokenId",
          "type": "uint256"
        }
      ],
      "name": "burn",
      "outputs": [],
      "stateMutability": "nonpayable",
      "type": "function"
    }
  ],
  "bytecode": "0x60806040523480156200001157600080fd5b506040518060400160405280600481526020017f4c616e64000000000000000000000000000000000000000000000000000000008152506040518060400160405280600481526020017f4c414e4400000000000000000000000000000000000000000000000000000000815250816000908051906020019062000096929190620001a6565b508060019080519060200190620000af929190620001a6565b505050620000d2620000c6620000d860201b60201c565b620000e060201b60201c565b620002bb565b600033905090565b6000600a60009054906101000a900473ffffffffffffffffffffffffffffffffffffffff16905081600a60006101000a81548173ffffffffffffffffffffffffffffffffffffffff021916908373ffffffffffffffffffffffffffffffffffffffff1602179055508173ffffffffffffffffffffffffffffffffffffffff168173ffffffffffffffffffffffffffffffffffffffff167f8be0079c531659141344cd1fd0a4f28419497f9722a3daafe3b4186f6b6457e060405160405180910390a35050565b828054620001b49062000285565b90600052602060002090601f016020900481019282620001d8576000855562000224565b82601f10620001f357805160ff191683800117855562000224565b8280016001018555821562000224579182015b828111156200022357825182559160200191906001019062000206565b5b50905062000233919062000237565b5090565b5b808211156200025257600081600090555060010162000238565b5090565b7f4e487b7100000000000000000000000000000000000000000000000000000000600052602260045260246000fd5b600060028204905060018216806200029e57607f821691505b60208210811415620002b557620002b462000256565b5b50919050565b61405580620002cb6000396000f3fe608060405234801561001057600080fd5b50600436106101c45760003560e01c80635cf3d346116100f957806395d89b4111610097578063c87b56dd11610071578063c87b56dd14610501578063e960554414610531578063e985e9c514610561578063f2fde38b14610591576101c4565b806395d89b41146104ab578063a22cb465146104c9578063b88d4fde146104e5576101c4565b8063715018a6116100d3578063715018a61461044b57806377fc2b19146104555780638da5cb5b14610471578063938ce40a1461048f576101c4565b80635cf3d346146103bb5780636352211e146103eb57806370a082311461041b576101c4565b80632f745c591161016657806342966c681161014057806342966c6814610323578063452460a91461033f5780634f6ccce71461036f5780635353a2d81461039f576101c4565b80632f745c59146102a7578063310495ab146102d757806342842e0e14610307576101c4565b8063095ea7b3116101a2578063095ea7b31461024757806318160ddd1461026357806323b872dd14610281578063270592b51461029d576101c4565b806301ffc9a7146101c957806306fdde03146101f9578063081812fc14610217575b600080fd5b6101e360048036038101906101de9190612907565b6105ad565b6040516101f0919061294f565b60405180910390f35b610201610627565b60405161020e9190612a03565b60405180910390f35b610231600480360381019061022c9190612a5b565b6106b9565b60405161023e9190612ac9565b60405180910390f35b610261600480360381019061025c9190612b10565b61073e565b005b61026b610856565b6040516102789190612b5f565b60405180910390f35b61029b60048036038101906102969190612b7a565b610863565b005b6102a56108c3565b005b6102c160048036038101906102bc9190612b10565b610941565b6040516102ce9190612b5f565b60405180910390f35b6102f160048036038101906102ec9190612a5b565b6109e6565b6040516102fe9190612a03565b60405180910390f35b610321600480360381019061031c9190612b7a565b610a86565b005b61033d60048036038101906103389190612a5b565b610aa6565b005b61035960048036038101906103549190612a5b565b610b02565b6040516103669190612c2c565b60405180910390f35b61038960048036038101906103849190612a5b565b610b35565b6040516103969190612b5f565b60405180910390f35b6103b960048036038101906103b49190612d7c565b610ba6565b005b6103d560048036038101906103d09190612dc5565b610bfd565b6040516103e29190612a03565b60405180910390f35b61040560048036038101906104009190612a5b565b610c9d565b6040516104129190612ac9565b60405180910390f35b61043560048036038101906104309190612dc5565b610d4f565b6040516104429190612b5f565b60405180910390f35b610453610e07565b005b61046f600480360381019061046a9190612a5b565b610e8f565b005b610479610e92565b6040516104869190612ac9565b60405180910390f35b6104a960048036038101906104a49190612df2565b610ebc565b005b6104b3610f30565b6040516104c09190612a03565b60405180910390f35b6104e360048036038101906104de9190612e7a565b610fc2565b005b6104ff60048036038101906104fa9190612f5b565b610fd8565b005b61051b60048036038101906105169190612a5b565b61103a565b6040516105289190612a03565b60405180910390f35b61054b60048036038101906105469190612fde565b61118c565b6040516105589190612b5f565b60405180910390f35b61057b60048036038101906105769190613056565b6111ce565b604051610588919061294f565b60405180910390f35b6105ab60048036038101906105a69190612dc5565b611262565b005b60007f780e9d63000000000000000000000000000000000000000000000000000000007bffffffffffffffffffffffffffffffffffffffffffffffffffffffff1916827bffffffffffffffffffffffffffffffffffffffffffffffffffffffff19161480610620575061061f8261135a565b5b9050919050565b606060008054610636906130c5565b80601f0160208091040260200160405190810160405280929190818152602001828054610662906130c5565b80156106af5780601f10610684576101008083540402835291602001916106af565b820191906000526020600020905b81548152906001019060200180831161069257829003601f168201915b5050505050905090565b60006106c48261143c565b610703576040517f08c379a00000000000000000000000000000000000000000000000000000000081526004016106fa90613169565b60405180910390fd5b6004600083815260200190815260200160002060009054906101000a900473ffffffffffffffffffffffffffffffffffffffff169050919050565b600061074982610c9d565b90508073ffffffffffffffffffffffffffffffffffffffff168373ffffffffffffffffffffffffffffffffffffffff1614156107ba576040517f08c379a00000000000000000000000000000000000000000000000000000000081526004016107b1906131fb565b60405180910390fd5b8073ffffffffffffffffffffffffffffffffffffffff166107d96114a8565b73ffffffffffffffffffffffffffffffffffffffff1614806108085750610807816108026114a8565b6111ce565b5b610847576040517f08c379a000000000000000000000000000000000000000000000000000000000815260040161083e9061328d565b60405180910390fd5b61085183836114b0565b505050565b6000600880549050905090565b61087461086e6114a8565b82611569565b6108b3576040517f08c379a00000000000000000000000000000000000000000000000000000000081526004016108aa9061331f565b60405180910390fd5b6108be838383611647565b505050565b6108cb6114a8565b73ffffffffffffffffffffffffffffffffffffffff166108e9610e92565b73ffffffffffffffffffffffffffffffffffffffff161461093f576040517f08c379a00000000000000000000000000000000000000000000000000000000081526004016109369061338b565b60405180910390fd5b565b600061094c83610d4f565b821061098d576040517f08c379a00000000000000000000000000000000000000000000000000000000081526004016109849061341d565b60405180910390fd5b600660008473ffffffffffffffffffffffffffffffffffffffff1673ffffffffffffffffffffffffffffffffffffffff168152602001908152602001600020600083815260200190815260200160002054905092915050565b600e6020528060005260406000206000915090508054610a05906130c5565b80601f0160208091040260200160405190810160405280929190818152602001828054610a31906130c5565b8015610a7e5780601f10610a5357610100808354040283529160200191610a7e565b820191906000526020600020905b815481529060010190602001808311610a6157829003601f168201915b505050505081565b610aa183838360405180602001604052806000815250610fd8565b505050565b610ab7610ab16114a8565b82611569565b610af6576040517f08c379a0000000000000000000000000000000000000000000000000000000008152600401610aed906134af565b60405180910390fd5b610aff816118a3565b50565b600f6020528060005260406000206000915054906101000a900473ffffffffffffffffffffffffffffffffffffffff1681565b6000610b3f610856565b8210610b80576040517f08c379a0000000000000000000000000000000000000000000000000000000008152600401610b7790613541565b60405180910390fd5b60088281548110610b9457610b93613561565b5b90600052602060002001549050919050565b80600c60003373ffffffffffffffffffffffffffffffffffffffff1673ffffffffffffffffffffffffffffffffffffffff1681526020019081526020016000209080519060200190610bf99291906127b8565b5050565b600c6020528060005260406000206000915090508054610c1c906130c5565b80601f0160208091040260200160405190810160405280929190818152602001828054610c48906130c5565b8015610c955780601f10610c6a57610100808354040283529160200191610c95565b820191906000526020600020905b815481529060010190602001808311610c7857829003601f168201915b505050505081565b6000806002600084815260200190815260200160002060009054906101000a900473ffffffffffffffffffffffffffffffffffffffff169050600073ffffffffffffffffffffffffffffffffffffffff168173ffffffffffffffffffffffffffffffffffffffff161415610d46576040517f08c379a0000000000000000000000000000000000000000000000000000000008152600401610d3d90613602565b60405180910390fd5b80915050919050565b60008073ffffffffffffffffffffffffffffffffffffffff168273ffffffffffffffffffffffffffffffffffffffff161415610dc0576040517f08c379a0000000000000000000000000000000000000000000000000000000008152600401610db790613694565b60405180910390fd5b600360008373ffffffffffffffffffffffffffffffffffffffff1673ffffffffffffffffffffffffffffffffffffffff168152602001908152602001600020549050919050565b610e0f6114a8565b73ffffffffffffffffffffffffffffffffffffffff16610e2d610e92565b73ffffffffffffffffffffffffffffffffffffffff1614610e83576040517f08c379a0000000000000000000000000000000000000000000000000000000008152600401610e7a9061338b565b60405180910390fd5b610e8d60006118f6565b565b50565b6000600a60009054906101000a900473ffffffffffffffffffffffffffffffffffffffff16905090565b610ec58261143c565b610f04576040517f08c379a0000000000000000000000000000000000000000000000000000000008152600401610efb90613726565b60405180910390fd5b80600e60008481526020019081526020016000209080519060200190610f2b9291906127b8565b505050565b606060018054610f3f906130c5565b80601f0160208091040260200160405190810160405280929190818152602001828054610f6b906130c5565b8015610fb85780601f10610f8d57610100808354040283529160200191610fb8565b820191906000526020600020905b815481529060010190602001808311610f9b57829003601f168201915b5050505050905090565b610fd4610fcd6114a8565b83836119bc565b5050565b610fe9610fe36114a8565b83611569565b611028576040517f08c379a000000000000000000000000000000000000000000000000000000000815260040161101f9061331f565b60405180910390fd5b61103484848484611b29565b50505050565b60606110458261143c565b611084576040517f08c379a000000000000000000000000000000000000000000000000000000000815260040161107b906137b8565b60405180910390fd5b6000600d600084815260200190815260200160002080546110a4906130c5565b80601f01602080910402602001604051908101604052809291908181526020018280546110d0906130c5565b801561111d5780601f106110f25761010080835404028352916020019161111d565b820191906000526020600020905b81548152906001019060200180831161110057829003601f168201915b50505050509050600061112e611b85565b9050600081511415611144578192505050611187565b600082511115611179578082604051602001611161929190613814565b60405160208183030381529060405292505050611187565b61118284611b9c565b925050505b919050565b6000611198600b611c43565b60006111a4600b611c59565b90506111b03382611c67565b6111ba8185611c85565b6111c48184610ebc565b8091505092915050565b6000600560008473ffffffffffffffffffffffffffffffffffffffff1673ffffffffffffffffffffffffffffffffffffffff16815260200190815260200160002060008373ffffffffffffffffffffffffffffffffffffffff1673ffffffffffffffffffffffffffffffffffffffff16815260200190815260200160002060009054906101000a900460ff16905092915050565b61126a6114a8565b73ffffffffffffffffffffffffffffffffffffffff16611288610e92565b73ffffffffffffffffffffffffffffffffffffffff16146112de576040517f08c379a00000000000000000000000000000000000000000000000000000000081526004016112d59061338b565b60405180910390fd5b600073ffffffffffffffffffffffffffffffffffffffff168173ffffffffffffffffffffffffffffffffffffffff16141561134e576040517f08c379a0000000000000000000000000000000000000000000000000000000008152600401611345906138aa565b60405180910390fd5b611357816118f6565b50565b60007f80ac58cd000000000000000000000000000000000000000000000000000000007bffffffffffffffffffffffffffffffffffffffffffffffffffffffff1916827bffffffffffffffffffffffffffffffffffffffffffffffffffffffff1916148061142557507f5b5e139f000000000000000000000000000000000000000000000000000000007bffffffffffffffffffffffffffffffffffffffffffffffffffffffff1916827bffffffffffffffffffffffffffffffffffffffffffffffffffffffff1916145b80611435575061143482611cf9565b5b9050919050565b60008073ffffffffffffffffffffffffffffffffffffffff166002600084815260200190815260200160002060009054906101000a900473ffffffffffffffffffffffffffffffffffffffff1673ffffffffffffffffffffffffffffffffffffffff1614159050919050565b600033905090565b816004600083815260200190815260200160002060006101000a81548173ffffffffffffffffffffffffffffffffffffffff021916908373ffffffffffffffffffffffffffffffffffffffff160217905550808273ffffffffffffffffffffffffffffffffffffffff1661152383610c9d565b73ffffffffffffffffffffffffffffffffffffffff167f8c5be1e5ebec7d5bd14f71427d1e84f3dd0314c0f7b2291e5b200ac8c7c3b92560405160405180910390a45050565b60006115748261143c565b6115b3576040517f08c379a00000000000000000000000000000000000000000000000000000000081526004016115aa9061393c565b60405180910390fd5b60006115be83610c9d565b90508073ffffffffffffffffffffffffffffffffffffffff168473ffffffffffffffffffffffffffffffffffffffff16148061162d57508373ffffffffffffffffffffffffffffffffffffffff16611615846106b9565b73ffffffffffffffffffffffffffffffffffffffff16145b8061163e575061163d81856111ce565b5b91505092915050565b8273ffffffffffffffffffffffffffffffffffffffff1661166782610c9d565b73ffffffffffffffffffffffffffffffffffffffff16146116bd576040517f08c379a00000000000000000000000000000000000000000000000000000000081526004016116b4906139ce565b60405180910390fd5b600073ffffffffffffffffffffffffffffffffffffffff168273ffffffffffffffffffffffffffffffffffffffff16141561172d576040517f08c379a000000000000000000000000000000000000000000000000000000000815260040161172490613a60565b60405180910390fd5b611738838383611d63565b6117436000826114b0565b6001600360008573ffffffffffffffffffffffffffffffffffffffff1673ffffffffffffffffffffffffffffffffffffffff16815260200190815260200160002060008282546117939190613aaf565b925050819055506001600360008473ffffffffffffffffffffffffffffffffffffffff1673ffffffffffffffffffffffffffffffffffffffff16815260200190815260200160002060008282546117ea9190613ae3565b92505081905550816002600083815260200190815260200160002060006101000a81548173ffffffffffffffffffffffffffffffffffffffff021916908373ffffffffffffffffffffffffffffffffffffffff160217905550808273ffffffffffffffffffffffffffffffffffffffff168473ffffffffffffffffffffffffffffffffffffffff167fddf252ad1be2c89b69c2b068fc378daa952ba7f163c4a11628f55a4df523b3ef60405160405180910390a4505050565b6118ac81611e77565b6000600d600083815260200190815260200160002080546118cc906130c5565b9050146118f357600d600082815260200190815260200160002060006118f2919061283e565b5b50565b6000600a60009054906101000a900473ffffffffffffffffffffffffffffffffffffffff16905081600a60006101000a81548173ffffffffffffffffffffffffffffffffffffffff021916908373ffffffffffffffffffffffffffffffffffffffff1602179055508173ffffffffffffffffffffffffffffffffffffffff168173ffffffffffffffffffffffffffffffffffffffff167f8be0079c531659141344cd1fd0a4f28419497f9722a3daafe3b4186f6b6457e060405160405180910390a35050565b8173ffffffffffffffffffffffffffffffffffffffff168373ffffffffffffffffffffffffffffffffffffffff161415611a2b576040517f08c379a0000000000000000000000000000000000000000000000000000000008152600401611a2290613b85565b60405180910390fd5b80600560008573ffffffffffffffffffffffffffffffffffffffff1673ffffffffffffffffffffffffffffffffffffffff16815260200190815260200160002060008473ffffffffffffffffffffffffffffffffffffffff1673ffffffffffffffffffffffffffffffffffffffff16815260200190815260200160002060006101000a81548160ff0219169083151502179055508173ffffffffffffffffffffffffffffffffffffffff168373ffffffffffffffffffffffffffffffffffffffff167f17307eab39ab6107e8899845ad3d59bd9653f200f220920489ca2b5937696c3183604051611b1c919061294f565b60405180910390a3505050565b611b34848484611647565b611b4084848484611f88565b611b7f576040517f08c379a0000000000000000000000000000000000000000000000000000000008152600401611b7690613c17565b60405180910390fd5b50505050565b606060405180602001604052806000815250905090565b6060611ba78261143c565b611be6576040517f08c379a0000000000000000000000000000000000000000000000000000000008152600401611bdd90613ca9565b60405180910390fd5b6000611bf0611b85565b90506000815111611c105760405180602001604052806000815250611c3b565b80611c1a84612110565b604051602001611c2b929190613814565b6040516020818303038152906040525b915050919050565b6001816000016000828254019250508190555050565b600081600001549050919050565b611c81828260405180602001604052806000815250612271565b5050565b611c8e8261143c565b611ccd576040517f08c379a0000000000000000000000000000000000000000000000000000000008152600401611cc490613d3b565b60405180910390fd5b80600d60008481526020019081526020016000209080519060200190611cf49291906127b8565b505050565b60007f01ffc9a7000000000000000000000000000000000000000000000000000000007bffffffffffffffffffffffffffffffffffffffffffffffffffffffff1916827bffffffffffffffffffffffffffffffffffffffffffffffffffffffff1916149050919050565b611d6e8383836122cc565b600073ffffffffffffffffffffffffffffffffffffffff168373ffffffffffffffffffffffffffffffffffffffff161415611db157611dac816122d1565b611df0565b8173ffffffffffffffffffffffffffffffffffffffff168373ffffffffffffffffffffffffffffffffffffffff1614611def57611dee838261231a565b5b5b600073ffffffffffffffffffffffffffffffffffffffff168273ffffffffffffffffffffffffffffffffffffffff161415611e3357611e2e81612487565b611e72565b8273ffffffffffffffffffffffffffffffffffffffff168273ffffffffffffffffffffffffffffffffffffffff1614611e7157611e708282612558565b5b5b505050565b6000611e8282610c9d565b9050611e9081600084611d63565b611e9b6000836114b0565b6001600360008373ffffffffffffffffffffffffffffffffffffffff1673ffffffffffffffffffffffffffffffffffffffff1681526020019081526020016000206000828254611eeb9190613aaf565b925050819055506002600083815260200190815260200160002060006101000a81549073ffffffffffffffffffffffffffffffffffffffff021916905581600073ffffffffffffffffffffffffffffffffffffffff168273ffffffffffffffffffffffffffffffffffffffff167fddf252ad1be2c89b69c2b068fc378daa952ba7f163c4a11628f55a4df523b3ef60405160405180910390a45050565b6000611fa98473ffffffffffffffffffffffffffffffffffffffff166125d7565b15612103578373ffffffffffffffffffffffffffffffffffffffff1663150b7a02611fd26114a8565b8786866040518563ffffffff1660e01b8152600401611ff49493929190613db0565b6020604051808303816000875af192505050801561203057506040513d601f19601f8201168201806040525081019061202d9190613e11565b60015b6120b3573d8060008114612060576040519150601f19603f3d011682016040523d82523d6000602084013e612065565b606091505b506000815114156120ab576040517f08c379a00000000000000000000000000000000000000000000000000000000081526004016120a290613c17565b60405180910390fd5b805181602001fd5b63150b7a0260e01b7bffffffffffffffffffffffffffffffffffffffffffffffffffffffff1916817bffffffffffffffffffffffffffffffffffffffffffffffffffffffff191614915050612108565b600190505b949350505050565b60606000821415612158576040518060400160405280600181526020017f3000000000000000000000000000000000000000000000000000000000000000815250905061226c565b600082905060005b6000821461218a57808061217390613e3e565b915050600a826121839190613eb6565b9150612160565b60008167ffffffffffffffff8111156121a6576121a5612c51565b5b6040519080825280601f01601f1916602001820160405280156121d85781602001600182028036833780820191505090505b5090505b60008514612265576001826121f19190613aaf565b9150600a856122009190613ee7565b603061220c9190613ae3565b60f81b81838151811061222257612221613561565b5b60200101907effffffffffffffffffffffffffffffffffffffffffffffffffffffffffffff1916908160001a905350600a8561225e9190613eb6565b94506121dc565b8093505050505b919050565b61227b83836125ea565b6122886000848484611f88565b6122c7576040517f08c379a00000000000000000000000000000000000000000000000000000000081526004016122be90613c17565b60405180910390fd5b505050565b505050565b6008805490506009600083815260200190815260200160002081905550600881908060018154018082558091505060019003906000526020600020016000909190919091505550565b6000600161232784610d4f565b6123319190613aaf565b9050600060076000848152602001908152602001600020549050818114612416576000600660008673ffffffffffffffffffffffffffffffffffffffff1673ffffffffffffffffffffffffffffffffffffffff168152602001908152602001600020600084815260200190815260200160002054905080600660008773ffffffffffffffffffffffffffffffffffffffff1673ffffffffffffffffffffffffffffffffffffffff168152602001908152602001600020600084815260200190815260200160002081905550816007600083815260200190815260200160002081905550505b6007600084815260200190815260200160002060009055600660008573ffffffffffffffffffffffffffffffffffffffff1673ffffffffffffffffffffffffffffffffffffffff16815260200190815260200160002060008381526020019081526020016000206000905550505050565b6000600160088054905061249b9190613aaf565b90506000600960008481526020019081526020016000205490506000600883815481106124cb576124ca613561565b5b9060005260206000200154905080600883815481106124ed576124ec613561565b5b90600052602060002001819055508160096000838152602001908152602001600020819055506009600085815260200190815260200160002060009055600880548061253c5761253b613f18565b5b6001900381819060005260206000200160009055905550505050565b600061256383610d4f565b905081600660008573ffffffffffffffffffffffffffffffffffffffff1673ffffffffffffffffffffffffffffffffffffffff168152602001908152602001600020600083815260200190815260200160002081905550806007600084815260200190815260200160002081905550505050565b600080823b905060008111915050919050565b600073ffffffffffffffffffffffffffffffffffffffff168273ffffffffffffffffffffffffffffffffffffffff16141561265a576040517f08c379a000000000000000000000000000000000000000000000000000000000815260040161265190613f93565b60405180910390fd5b6126638161143c565b156126a3576040517f08c379a000000000000000000000000000000000000000000000000000000000815260040161269a90613fff565b60405180910390fd5b6126af60008383611d63565b6001600360008473ffffffffffffffffffffffffffffffffffffffff1673ffffffffffffffffffffffffffffffffffffffff16815260200190815260200160002060008282546126ff9190613ae3565b92505081905550816002600083815260200190815260200160002060006101000a81548173ffffffffffffffffffffffffffffffffffffffff021916908373ffffffffffffffffffffffffffffffffffffffff160217905550808273ffffffffffffffffffffffffffffffffffffffff16600073ffffffffffffffffffffffffffffffffffffffff167fddf252ad1be2c89b69c2b068fc378daa952ba7f163c4a11628f55a4df523b3ef60405160405180910390a45050565b8280546127c4906130c5565b90600052602060002090601f0160209004810192826127e6576000855561282d565b82601f106127ff57805160ff191683800117855561282d565b8280016001018555821561282d579182015b8281111561282c578251825591602001919060010190612811565b5b50905061283a919061287e565b5090565b50805461284a906130c5565b6000825580601f1061285c575061287b565b601f01602090049060005260206000209081019061287a919061287e565b5b50565b5b8082111561289757600081600090555060010161287f565b5090565b6000604051905090565b600080fd5b600080fd5b60007fffffffff0000000000000000000000000000000000000000000000000000000082169050919050565b6128e4816128af565b81146128ef57600080fd5b50565b600081359050612901816128db565b92915050565b60006020828403121561291d5761291c6128a5565b5b600061292b848285016128f2565b91505092915050565b60008115159050919050565b61294981612934565b82525050565b60006020820190506129646000830184612940565b92915050565b600081519050919050565b600082825260208201905092915050565b60005b838110156129a4578082015181840152602081019050612989565b838111156129b3576000848401525b50505050565b6000601f19601f8301169050919050565b60006129d58261296a565b6129df8185612975565b93506129ef818560208601612986565b6129f8816129b9565b840191505092915050565b60006020820190508181036000830152612a1d81846129ca565b905092915050565b6000819050919050565b612a3881612a25565b8114612a4357600080fd5b50565b600081359050612a5581612a2f565b92915050565b600060208284031215612a7157612a706128a5565b5b6000612a7f84828501612a46565b91505092915050565b600073ffffffffffffffffffffffffffffffffffffffff82169050919050565b6000612ab382612a88565b9050919050565b612ac381612aa8565b82525050565b6000602082019050612ade6000830184612aba565b92915050565b612aed81612aa8565b8114612af857600080fd5b50565b600081359050612b0a81612ae4565b92915050565b60008060408385031215612b2757612b266128a5565b5b6000612b3585828601612afb565b9250506020612b4685828601612a46565b9150509250929050565b612b5981612a25565b82525050565b6000602082019050612b746000830184612b50565b92915050565b600080600060608486031215612b9357612b926128a5565b5b6000612ba186828701612afb565b9350506020612bb286828701612afb565b9250506040612bc386828701612a46565b9150509250925092565b6000819050919050565b6000612bf2612bed612be884612a88565b612bcd565b612a88565b9050919050565b6000612c0482612bd7565b9050919050565b6000612c1682612bf9565b9050919050565b612c2681612c0b565b82525050565b6000602082019050612c416000830184612c1d565b92915050565b600080fd5b600080fd5b7f4e487b7100000000000000000000000000000000000000000000000000000000600052604160045260246000fd5b612c89826129b9565b810181811067ffffffffffffffff82111715612ca857612ca7612c51565b5b80604052505050565b6000612cbb61289b565b9050612cc78282612c80565b919050565b600067ffffffffffffffff821115612ce757612ce6612c51565b5b612cf0826129b9565b9050602081019050919050565b82818337600083830152505050565b6000612d1f612d1a84612ccc565b612cb1565b905082815260208101848484011115612d3b57612d3a612c4c565b5b612d46848285612cfd565b509392505050565b600082601f830112612d6357612d62612c47565b5b8135612d73848260208601612d0c565b91505092915050565b600060208284031215612d9257612d916128a5565b5b600082013567ffffffffffffffff811115612db057612daf6128aa565b5b612dbc84828501612d4e565b91505092915050565b600060208284031215612ddb57612dda6128a5565b5b6000612de984828501612afb565b91505092915050565b60008060408385031215612e0957612e086128a5565b5b6000612e1785828601612a46565b925050602083013567ffffffffffffffff811115612e3857612e376128aa565b5b612e4485828601612d4e565b9150509250929050565b612e5781612934565b8114612e6257600080fd5b50565b600081359050612e7481612e4e565b92915050565b60008060408385031215612e9157612e906128a5565b5b6000612e9f85828601612afb565b9250506020612eb085828601612e65565b9150509250929050565b600067ffffffffffffffff821115612ed557612ed4612c51565b5b612ede826129b9565b9050602081019050919050565b6000612efe612ef984612eba565b612cb1565b905082815260208101848484011115612f1a57612f19612c4c565b5b612f25848285612cfd565b509392505050565b600082601f830112612f4257612f41612c47565b5b8135612f52848260208601612eeb565b91505092915050565b60008060008060808587031215612f7557612f746128a5565b5b6000612f8387828801612afb565b9450506020612f9487828801612afb565b9350506040612fa587828801612a46565b925050606085013567ffffffffffffffff811115612fc657612fc56128aa565b5b612fd287828801612f2d565b91505092959194509250565b60008060408385031215612ff557612ff46128a5565b5b600083013567ffffffffffffffff811115613013576130126128aa565b5b61301f85828601612d4e565b925050602083013567ffffffffffffffff8111156130405761303f6128aa565b5b61304c85828601612d4e565b9150509250929050565b6000806040838503121561306d5761306c6128a5565b5b600061307b85828601612afb565b925050602061308c85828601612afb565b9150509250929050565b7f4e487b7100000000000000000000000000000000000000000000000000000000600052602260045260246000fd5b600060028204905060018216806130dd57607f821691505b602082108114156130f1576130f0613096565b5b50919050565b7f4552433732313a20617070726f76656420717565727920666f72206e6f6e657860008201527f697374656e7420746f6b656e0000000000000000000000000000000000000000602082015250565b6000613153602c83612975565b915061315e826130f7565b604082019050919050565b6000602082019050818103600083015261318281613146565b9050919050565b7f4552433732313a20617070726f76616c20746f2063757272656e74206f776e6560008201527f7200000000000000000000000000000000000000000000000000000000000000602082015250565b60006131e5602183612975565b91506131f082613189565b604082019050919050565b60006020820190508181036000830152613214816131d8565b9050919050565b7f4552433732313a20617070726f76652063616c6c6572206973206e6f74206f7760008201527f6e6572206e6f7220617070726f76656420666f7220616c6c0000000000000000602082015250565b6000613277603883612975565b91506132828261321b565b604082019050919050565b600060208201905081810360008301526132a68161326a565b9050919050565b7f4552433732313a207472616e736665722063616c6c6572206973206e6f74206f60008201527f776e6572206e6f7220617070726f766564000000000000000000000000000000602082015250565b6000613309603183612975565b9150613314826132ad565b604082019050919050565b60006020820190508181036000830152613338816132fc565b9050919050565b7f4f776e61626c653a2063616c6c6572206973206e6f7420746865206f776e6572600082015250565b6000613375602083612975565b91506133808261333f565b602082019050919050565b600060208201905081810360008301526133a481613368565b9050919050565b7f455243373231456e756d657261626c653a206f776e657220696e646578206f7560008201527f74206f6620626f756e6473000000000000000000000000000000000000000000602082015250565b6000613407602b83612975565b9150613412826133ab565b604082019050919050565b60006020820190508181036000830152613436816133fa565b9050919050565b7f4552433732314275726e61626c653a2063616c6c6572206973206e6f74206f7760008201527f6e6572206e6f7220617070726f76656400000000000000000000000000000000602082015250565b6000613499603083612975565b91506134a48261343d565b604082019050919050565b600060208201905081810360008301526134c88161348c565b9050919050565b7f455243373231456e756d657261626c653a20676c6f62616c20696e646578206f60008201527f7574206f6620626f756e64730000000000000000000000000000000000000000602082015250565b600061352b602c83612975565b9150613536826134cf565b604082019050919050565b6000602082019050818103600083015261355a8161351e565b9050919050565b7f4e487b7100000000000000000000000000000000000000000000000000000000600052603260045260246000fd5b7f4552433732313a206f776e657220717565727920666f72206e6f6e657869737460008201527f656e7420746f6b656e0000000000000000000000000000000000000000000000602082015250565b60006135ec602983612975565b91506135f782613590565b604082019050919050565b6000602082019050818103600083015261361b816135df565b9050919050565b7f4552433732313a2062616c616e636520717565727920666f7220746865207a6560008201527f726f206164647265737300000000000000000000000000000000000000000000602082015250565b600061367e602a83612975565b915061368982613622565b604082019050919050565b600060208201905081810360008301526136ad81613671565b9050919050565b7f45524337323155524953746f726167653a206c616e644e616d6520736574206f60008201527f66206e6f6e6578697374656e7420746f6b656e00000000000000000000000000602082015250565b6000613710603383612975565b915061371b826136b4565b604082019050919050565b6000602082019050818103600083015261373f81613703565b9050919050565b7f45524337323155524953746f726167653a2055524920717565727920666f722060008201527f6e6f6e6578697374656e7420746f6b656e000000000000000000000000000000602082015250565b60006137a2603183612975565b91506137ad82613746565b604082019050919050565b600060208201905081810360008301526137d181613795565b9050919050565b600081905092915050565b60006137ee8261296a565b6137f881856137d8565b9350613808818560208601612986565b80840191505092915050565b600061382082856137e3565b915061382c82846137e3565b91508190509392505050565b7f4f776e61626c653a206e6577206f776e657220697320746865207a65726f206160008201527f6464726573730000000000000000000000000000000000000000000000000000602082015250565b6000613894602683612975565b915061389f82613838565b604082019050919050565b600060208201905081810360008301526138c381613887565b9050919050565b7f4552433732313a206f70657261746f7220717565727920666f72206e6f6e657860008201527f697374656e7420746f6b656e0000000000000000000000000000000000000000602082015250565b6000613926602c83612975565b9150613931826138ca565b604082019050919050565b6000602082019050818103600083015261395581613919565b9050919050565b7f4552433732313a207472616e73666572206f6620746f6b656e2074686174206960008201527f73206e6f74206f776e0000000000000000000000000000000000000000000000602082015250565b60006139b8602983612975565b91506139c38261395c565b604082019050919050565b600060208201905081810360008301526139e7816139ab565b9050919050565b7f4552433732313a207472616e7366657220746f20746865207a65726f2061646460008201527f7265737300000000000000000000000000000000000000000000000000000000602082015250565b6000613a4a602483612975565b9150613a55826139ee565b604082019050919050565b60006020820190508181036000830152613a7981613a3d565b9050919050565b7f4e487b7100000000000000000000000000000000000000000000000000000000600052601160045260246000fd5b6000613aba82612a25565b9150613ac583612a25565b925082821015613ad857613ad7613a80565b5b828203905092915050565b6000613aee82612a25565b9150613af983612a25565b9250827fffffffffffffffffffffffffffffffffffffffffffffffffffffffffffffffff03821115613b2e57613b2d613a80565b5b828201905092915050565b7f4552433732313a20617070726f766520746f2063616c6c657200000000000000600082015250565b6000613b6f601983612975565b9150613b7a82613b39565b602082019050919050565b60006020820190508181036000830152613b9e81613b62565b9050919050565b7f4552433732313a207472616e7366657220746f206e6f6e20455243373231526560008201527f63656976657220696d706c656d656e7465720000000000000000000000000000602082015250565b6000613c01603283612975565b9150613c0c82613ba5565b604082019050919050565b60006020820190508181036000830152613c3081613bf4565b9050919050565b7f4552433732314d657461646174613a2055524920717565727920666f72206e6f60008201527f6e6578697374656e7420746f6b656e0000000000000000000000000000000000602082015250565b6000613c93602f83612975565b9150613c9e82613c37565b604082019050919050565b60006020820190508181036000830152613cc281613c86565b9050919050565b7f45524337323155524953746f726167653a2055524920736574206f66206e6f6e60008201527f6578697374656e7420746f6b656e000000000000000000000000000000000000602082015250565b6000613d25602e83612975565b9150613d3082613cc9565b604082019050919050565b60006020820190508181036000830152613d5481613d18565b9050919050565b600081519050919050565b600082825260208201905092915050565b6000613d8282613d5b565b613d8c8185613d66565b9350613d9c818560208601612986565b613da5816129b9565b840191505092915050565b6000608082019050613dc56000830187612aba565b613dd26020830186612aba565b613ddf6040830185612b50565b8181036060830152613df18184613d77565b905095945050505050565b600081519050613e0b816128db565b92915050565b600060208284031215613e2757613e266128a5565b5b6000613e3584828501613dfc565b91505092915050565b6000613e4982612a25565b91507fffffffffffffffffffffffffffffffffffffffffffffffffffffffffffffffff821415613e7c57613e7b613a80565b5b600182019050919050565b7f4e487b7100000000000000000000000000000000000000000000000000000000600052601260045260246000fd5b6000613ec182612a25565b9150613ecc83612a25565b925082613edc57613edb613e87565b5b828204905092915050565b6000613ef282612a25565b9150613efd83612a25565b925082613f0d57613f0c613e87565b5b828206905092915050565b7f4e487b7100000000000000000000000000000000000000000000000000000000600052603160045260246000fd5b7f4552433732313a206d696e7420746f20746865207a65726f2061646472657373600082015250565b6000613f7d602083612975565b9150613f8882613f47565b602082019050919050565b60006020820190508181036000830152613fac81613f70565b9050919050565b7f4552433732313a20746f6b656e20616c7265616479206d696e74656400000000600082015250565b6000613fe9601c83612975565b9150613ff482613fb3565b602082019050919050565b6000602082019050818103600083015261401881613fdc565b905091905056fea26469706673582212202e11cdde20a1aaeed092f8a68934249a2f7082194c32eb815ed2e362e5f7098064736f6c634300080a0033",
  "immutableReferences": {},
  "source": "// SPDX-License-Identifier: MIT\npragma solidity ^0.8.0;\n\nimport \"@openzeppelin/contracts/token/ERC721/extensions/ERC721URIStorage.sol\";\nimport \"@openzeppelin/contracts/token/ERC721/extensions/ERC721Burnable.sol\";\nimport \"@openzeppelin/contracts/token/ERC721/extensions/ERC721Enumerable.sol\";\nimport \"@openzeppelin/contracts/utils/Counters.sol\";\nimport \"@openzeppelin/contracts/access/Ownable.sol\";\nimport \"./Building.sol\";\nimport \"./BuildingType.sol\";\nimport \"./LandType.sol\";\n\ncontract Lands is ERC721Enumerable, Ownable {\n    using Counters for Counters.Counter;\n    Counters.Counter private _tokenIds;\n    using Strings for uint256;\n\n    mapping(address => string) public names;\n\n    // Optional mapping for token URIs\n    mapping(uint256 => string) private _tokenURIs;\n\n    mapping(uint256 => string) public tokenNames;\n\n    mapping(uint256 => Building) public indexToBuilding;\n\n    constructor() public ERC721(\"Land\", \"LAND\") {}\n\n    function mintNFT(string memory tokenURI, string memory landName)\n        public\n        returns (uint256)\n    {\n        _tokenIds.increment();\n        uint256 newItemId = _tokenIds.current();\n        _safeMint(msg.sender, newItemId);\n        _setTokenURI(newItemId, tokenURI);\n        setLandName(newItemId, landName);\n        return newItemId;\n    }\n\n    function setLandName(uint256 tokenId, string memory _landName) public {\n        require(\n            _exists(tokenId),\n            \"ERC721URIStorage: landName set of nonexistent token\"\n        );\n        tokenNames[tokenId] = _landName;\n    }\n\n    function addLandType() public onlyOwner {}\n\n    function changeName(string memory name) public {\n        names[msg.sender] = name;\n    }\n\n    /// @notice Builds a building on top of a land, burning the Land NFT\n    /// @dev Explain to a developer any extra details\n    /// @param _building a parameter just like in doxygen (must be followed by parameter name)\n    function build(uint256 _building) public {}\n\n    /**\n     * @dev See {IERC721Metadata-tokenURI}.\n     */\n    function tokenURI(uint256 tokenId)\n        public\n        view\n        virtual\n        override\n        returns (string memory)\n    {\n        require(\n            _exists(tokenId),\n            \"ERC721URIStorage: URI query for nonexistent token\"\n        );\n\n        string memory _tokenURI = _tokenURIs[tokenId];\n        string memory base = _baseURI();\n\n        // If there is no base URI, return the token URI.\n        if (bytes(base).length == 0) {\n            return _tokenURI;\n        }\n        // If both are set, concatenate the baseURI and tokenURI (via abi.encodePacked).\n        if (bytes(_tokenURI).length > 0) {\n            return string(abi.encodePacked(base, _tokenURI));\n        }\n\n        return super.tokenURI(tokenId);\n    }\n\n    function burn(uint256 tokenId) public virtual {\n        //solhint-disable-next-line max-line-length\n        require(\n            _isApprovedOrOwner(_msgSender(), tokenId),\n            \"ERC721Burnable: caller is not owner nor approved\"\n        );\n        _burn(tokenId);\n    }\n\n    /**\n     * @dev Sets `_tokenURI` as the tokenURI of `tokenId`.\n     *\n     * Requirements:\n     *\n     * - `tokenId` must exist.\n     */\n    function _setTokenURI(uint256 tokenId, string memory _tokenURI)\n        internal\n        virtual\n    {\n        require(\n            _exists(tokenId),\n            \"ERC721URIStorage: URI set of nonexistent token\"\n        );\n        _tokenURIs[tokenId] = _tokenURI;\n    }\n\n    /**\n     * @dev Destroys `tokenId`.\n     * The approval is cleared when the token is burned.\n     *\n     * Requirements:\n     *\n     * - `tokenId` must exist.\n     *\n     * Emits a {Transfer} event.\n     */\n    function _burn(uint256 tokenId) internal virtual override {\n        super._burn(tokenId);\n\n        if (bytes(_tokenURIs[tokenId]).length != 0) {\n            delete _tokenURIs[tokenId];\n        }\n    }\n}\n",
  "sourcePath": "/home/darovip/projects/mayland_labs/shattered-contracts/contracts/Lands.sol",
  "compiler": {
    "name": "solc",
    "version": "0.8.10+commit.fc410830.Emscripten.clang"
  },
  "schemaVersion": "3.4.4",
  "updatedAt": "2022-01-14T02:14:31.973Z",
  "devdoc": {
    "kind": "dev",
    "methods": {
      "approve(address,uint256)": {
        "details": "See {IERC721-approve}."
      },
      "balanceOf(address)": {
        "details": "See {IERC721-balanceOf}."
      },
      "build(uint256)": {
        "details": "Explain to a developer any extra details",
        "params": {
          "_building": "a parameter just like in doxygen (must be followed by parameter name)"
        }
      },
      "getApproved(uint256)": {
        "details": "See {IERC721-getApproved}."
      },
      "isApprovedForAll(address,address)": {
        "details": "See {IERC721-isApprovedForAll}."
      },
      "name()": {
        "details": "See {IERC721Metadata-name}."
      },
      "owner()": {
        "details": "Returns the address of the current owner."
      },
      "ownerOf(uint256)": {
        "details": "See {IERC721-ownerOf}."
      },
      "renounceOwnership()": {
        "details": "Leaves the contract without owner. It will not be possible to call `onlyOwner` functions anymore. Can only be called by the current owner. NOTE: Renouncing ownership will leave the contract without an owner, thereby removing any functionality that is only available to the owner."
      },
      "safeTransferFrom(address,address,uint256)": {
        "details": "See {IERC721-safeTransferFrom}."
      },
      "safeTransferFrom(address,address,uint256,bytes)": {
        "details": "See {IERC721-safeTransferFrom}."
      },
      "setApprovalForAll(address,bool)": {
        "details": "See {IERC721-setApprovalForAll}."
      },
      "supportsInterface(bytes4)": {
        "details": "See {IERC165-supportsInterface}."
      },
      "symbol()": {
        "details": "See {IERC721Metadata-symbol}."
      },
      "tokenByIndex(uint256)": {
        "details": "See {IERC721Enumerable-tokenByIndex}."
      },
      "tokenOfOwnerByIndex(address,uint256)": {
        "details": "See {IERC721Enumerable-tokenOfOwnerByIndex}."
      },
      "tokenURI(uint256)": {
        "details": "See {IERC721Metadata-tokenURI}."
      },
      "totalSupply()": {
        "details": "See {IERC721Enumerable-totalSupply}."
      },
      "transferFrom(address,address,uint256)": {
        "details": "See {IERC721-transferFrom}."
      },
      "transferOwnership(address)": {
        "details": "Transfers ownership of the contract to a new account (`newOwner`). Can only be called by the current owner."
      }
    },
    "version": 1
  },
  "userdoc": {
    "kind": "user",
    "methods": {
      "build(uint256)": {
        "notice": "Builds a building on top of a land, burning the Land NFT"
      }
    },
    "version": 1
  }
}