{
  "contractName": "Main",
  "abi": [
    {
      "inputs": [
        {
          "internalType": "address",
          "name": "",
          "type": "address"
        }
      ],
      "name": "userToRegistered",
      "outputs": [
        {
          "internalType": "bool",
          "name": "",
          "type": "bool"
        }
      ],
      "stateMutability": "view",
      "type": "function"
    },
    {
      "inputs": [
        {
          "internalType": "address",
          "name": "_addr",
          "type": "address"
        },
        {
          "internalType": "bool",
          "name": "_value",
          "type": "bool"
        }
      ],
      "name": "set",
      "outputs": [],
      "stateMutability": "nonpayable",
      "type": "function"
    }
  ],
  "bytecode": "0x608060405234801561001057600080fd5b50610269806100206000396000f3fe608060405234801561001057600080fd5b50600436106100365760003560e01c80630335319d1461003b57806335e3b25a1461006b575b600080fd5b61005560048036038101906100509190610164565b610087565b60405161006291906101ac565b60405180910390f35b610085600480360381019061008091906101f3565b6100a7565b005b60006020528060005260406000206000915054906101000a900460ff1681565b806000808473ffffffffffffffffffffffffffffffffffffffff1673ffffffffffffffffffffffffffffffffffffffff16815260200190815260200160002060006101000a81548160ff0219169083151502179055505050565b600080fd5b600073ffffffffffffffffffffffffffffffffffffffff82169050919050565b600061013182610106565b9050919050565b61014181610126565b811461014c57600080fd5b50565b60008135905061015e81610138565b92915050565b60006020828403121561017a57610179610101565b5b60006101888482850161014f565b91505092915050565b60008115159050919050565b6101a681610191565b82525050565b60006020820190506101c1600083018461019d565b92915050565b6101d081610191565b81146101db57600080fd5b50565b6000813590506101ed816101c7565b92915050565b6000806040838503121561020a57610209610101565b5b60006102188582860161014f565b9250506020610229858286016101de565b915050925092905056fea264697066735822122004f0515555edb1ce7b99561b2512b472fa1069ebe18e567f3f4ae6c13bd9e06464736f6c634300080a0033",
  "immutableReferences": {},
  "source": "// SPDX-License-Identifier: MIT\npragma solidity ^0.8.0;\n\ncontract Main {\n    mapping(address => bool) public userToRegistered;\n\n    // function get(address _addr) public view returns (uint) {\n    //     // Mapping always returns a value.\n    //     // If the value was never set, it will return the default value.\n    //     return myMap[_addr];\n    // }\n\n    function set(address _addr, bool _value) public {\n        // Update the value at this address\n        userToRegistered[_addr] = _value;\n    }\n}\n",
  "sourcePath": "/home/darovip/projects/mayland_labs/shattered-contracts/contracts/Main.sol",
  "compiler": {
    "name": "solc",
    "version": "0.8.10+commit.fc410830.Emscripten.clang"
  },
  "schemaVersion": "3.4.4",
  "updatedAt": "2022-01-14T03:41:27.453Z",
  "devdoc": {
    "kind": "dev",
    "methods": {},
    "version": 1
  },
  "userdoc": {
    "kind": "user",
    "methods": {},
    "version": 1
  }
}