{
  "contractName": "Mine",
  "abi": [
    {
      "inputs": [],
      "stateMutability": "nonpayable",
      "type": "constructor"
    },
    {
      "anonymous": false,
      "inputs": [
        {
          "indexed": true,
          "internalType": "address",
          "name": "owner",
          "type": "address"
        },
        {
          "indexed": true,
          "internalType": "address",
          "name": "approved",
          "type": "address"
        },
        {
          "indexed": true,
          "internalType": "uint256",
          "name": "tokenId",
          "type": "uint256"
        }
      ],
      "name": "Approval",
      "type": "event"
    },
    {
      "anonymous": false,
      "inputs": [
        {
          "indexed": true,
          "internalType": "address",
          "name": "owner",
          "type": "address"
        },
        {
          "indexed": true,
          "internalType": "address",
          "name": "operator",
          "type": "address"
        },
        {
          "indexed": false,
          "internalType": "bool",
          "name": "approved",
          "type": "bool"
        }
      ],
      "name": "ApprovalForAll",
      "type": "event"
    },
    {
      "anonymous": false,
      "inputs": [
        {
          "indexed": true,
          "internalType": "address",
          "name": "previousOwner",
          "type": "address"
        },
        {
          "indexed": true,
          "internalType": "address",
          "name": "newOwner",
          "type": "address"
        }
      ],
      "name": "OwnershipTransferred",
      "type": "event"
    },
    {
      "anonymous": false,
      "inputs": [
        {
          "indexed": true,
          "internalType": "address",
          "name": "from",
          "type": "address"
        },
        {
          "indexed": true,
          "internalType": "address",
          "name": "to",
          "type": "address"
        },
        {
          "indexed": true,
          "internalType": "uint256",
          "name": "tokenId",
          "type": "uint256"
        }
      ],
      "name": "Transfer",
      "type": "event"
    },
    {
      "inputs": [
        {
          "internalType": "address",
          "name": "to",
          "type": "address"
        },
        {
          "internalType": "uint256",
          "name": "tokenId",
          "type": "uint256"
        }
      ],
      "name": "approve",
      "outputs": [],
      "stateMutability": "nonpayable",
      "type": "function"
    },
    {
      "inputs": [
        {
          "internalType": "address",
          "name": "owner",
          "type": "address"
        }
      ],
      "name": "balanceOf",
      "outputs": [
        {
          "internalType": "uint256",
          "name": "",
          "type": "uint256"
        }
      ],
      "stateMutability": "view",
      "type": "function"
    },
    {
      "inputs": [
        {
          "internalType": "uint256",
          "name": "_building",
          "type": "uint256"
        }
      ],
      "name": "build",
      "outputs": [],
      "stateMutability": "nonpayable",
      "type": "function"
    },
    {
      "inputs": [
        {
          "internalType": "uint256",
          "name": "tokenId",
          "type": "uint256"
        }
      ],
      "name": "burn",
      "outputs": [],
      "stateMutability": "nonpayable",
      "type": "function"
    },
    {
      "inputs": [
        {
          "internalType": "uint256",
          "name": "tokenId",
          "type": "uint256"
        }
      ],
      "name": "getApproved",
      "outputs": [
        {
          "internalType": "address",
          "name": "",
          "type": "address"
        }
      ],
      "stateMutability": "view",
      "type": "function"
    },
    {
      "inputs": [
        {
          "internalType": "address",
          "name": "owner",
          "type": "address"
        },
        {
          "internalType": "address",
          "name": "operator",
          "type": "address"
        }
      ],
      "name": "isApprovedForAll",
      "outputs": [
        {
          "internalType": "bool",
          "name": "",
          "type": "bool"
        }
      ],
      "stateMutability": "view",
      "type": "function"
    },
    {
      "inputs": [
        {
          "internalType": "string",
          "name": "tokenURI",
          "type": "string"
        },
        {
          "internalType": "string",
          "name": "landName",
          "type": "string"
        }
      ],
      "name": "mintNFT",
      "outputs": [
        {
          "internalType": "uint256",
          "name": "",
          "type": "uint256"
        }
      ],
      "stateMutability": "nonpayable",
      "type": "function"
    },
    {
      "inputs": [],
      "name": "name",
      "outputs": [
        {
          "internalType": "string",
          "name": "",
          "type": "string"
        }
      ],
      "stateMutability": "view",
      "type": "function"
    },
    {
      "inputs": [],
      "name": "owner",
      "outputs": [
        {
          "internalType": "address",
          "name": "",
          "type": "address"
        }
      ],
      "stateMutability": "view",
      "type": "function"
    },
    {
      "inputs": [
        {
          "internalType": "uint256",
          "name": "tokenId",
          "type": "uint256"
        }
      ],
      "name": "ownerOf",
      "outputs": [
        {
          "internalType": "address",
          "name": "",
          "type": "address"
        }
      ],
      "stateMutability": "view",
      "type": "function"
    },
    {
      "inputs": [],
      "name": "renounceOwnership",
      "outputs": [],
      "stateMutability": "nonpayable",
      "type": "function"
    },
    {
      "inputs": [
        {
          "internalType": "address",
          "name": "from",
          "type": "address"
        },
        {
          "internalType": "address",
          "name": "to",
          "type": "address"
        },
        {
          "internalType": "uint256",
          "name": "tokenId",
          "type": "uint256"
        }
      ],
      "name": "safeTransferFrom",
      "outputs": [],
      "stateMutability": "nonpayable",
      "type": "function"
    },
    {
      "inputs": [
        {
          "internalType": "address",
          "name": "from",
          "type": "address"
        },
        {
          "internalType": "address",
          "name": "to",
          "type": "address"
        },
        {
          "internalType": "uint256",
          "name": "tokenId",
          "type": "uint256"
        },
        {
          "internalType": "bytes",
          "name": "_data",
          "type": "bytes"
        }
      ],
      "name": "safeTransferFrom",
      "outputs": [],
      "stateMutability": "nonpayable",
      "type": "function"
    },
    {
      "inputs": [
        {
          "internalType": "address",
          "name": "operator",
          "type": "address"
        },
        {
          "internalType": "bool",
          "name": "approved",
          "type": "bool"
        }
      ],
      "name": "setApprovalForAll",
      "outputs": [],
      "stateMutability": "nonpayable",
      "type": "function"
    },
    {
      "inputs": [
        {
          "internalType": "uint256",
          "name": "tokenId",
          "type": "uint256"
        },
        {
          "internalType": "string",
          "name": "_landName",
          "type": "string"
        }
      ],
      "name": "setLandName",
      "outputs": [],
      "stateMutability": "nonpayable",
      "type": "function"
    },
    {
      "inputs": [
        {
          "internalType": "bytes4",
          "name": "interfaceId",
          "type": "bytes4"
        }
      ],
      "name": "supportsInterface",
      "outputs": [
        {
          "internalType": "bool",
          "name": "",
          "type": "bool"
        }
      ],
      "stateMutability": "view",
      "type": "function"
    },
    {
      "inputs": [],
      "name": "symbol",
      "outputs": [
        {
          "internalType": "string",
          "name": "",
          "type": "string"
        }
      ],
      "stateMutability": "view",
      "type": "function"
    },
    {
      "inputs": [
        {
          "internalType": "uint256",
          "name": "index",
          "type": "uint256"
        }
      ],
      "name": "tokenByIndex",
      "outputs": [
        {
          "internalType": "uint256",
          "name": "",
          "type": "uint256"
        }
      ],
      "stateMutability": "view",
      "type": "function"
    },
    {
      "inputs": [
        {
          "internalType": "uint256",
          "name": "",
          "type": "uint256"
        }
      ],
      "name": "tokenNames",
      "outputs": [
        {
          "internalType": "string",
          "name": "",
          "type": "string"
        }
      ],
      "stateMutability": "view",
      "type": "function"
    },
    {
      "inputs": [
        {
          "internalType": "address",
          "name": "owner",
          "type": "address"
        },
        {
          "internalType": "uint256",
          "name": "index",
          "type": "uint256"
        }
      ],
      "name": "tokenOfOwnerByIndex",
      "outputs": [
        {
          "internalType": "uint256",
          "name": "",
          "type": "uint256"
        }
      ],
      "stateMutability": "view",
      "type": "function"
    },
    {
      "inputs": [
        {
          "internalType": "uint256",
          "name": "tokenId",
          "type": "uint256"
        }
      ],
      "name": "tokenURI",
      "outputs": [
        {
          "internalType": "string",
          "name": "",
          "type": "string"
        }
      ],
      "stateMutability": "view",
      "type": "function"
    },
    {
      "inputs": [],
      "name": "totalSupply",
      "outputs": [
        {
          "internalType": "uint256",
          "name": "",
          "type": "uint256"
        }
      ],
      "stateMutability": "view",
      "type": "function"
    },
    {
      "inputs": [
        {
          "internalType": "address",
          "name": "from",
          "type": "address"
        },
        {
          "internalType": "address",
          "name": "to",
          "type": "address"
        },
        {
          "internalType": "uint256",
          "name": "tokenId",
          "type": "uint256"
        }
      ],
      "name": "transferFrom",
      "outputs": [],
      "stateMutability": "nonpayable",
      "type": "function"
    },
    {
      "inputs": [
        {
          "internalType": "address",
          "name": "newOwner",
          "type": "address"
        }
      ],
      "name": "transferOwnership",
      "outputs": [],
      "stateMutability": "nonpayable",
      "type": "function"
    }
  ],
  "bytecode": "0x60806040523480156200001157600080fd5b506040518060400160405280600881526020017f4275696c64696e670000000000000000000000000000000000000000000000008152506040518060400160405280600881526020017f4255494c44494e47000000000000000000000000000000000000000000000000815250816000908051906020019062000096929190620001e8565b508060019080519060200190620000af929190620001e8565b505050620000d2620000c6620000ea60201b60201c565b620000f260201b60201c565b620000e46002620001b860201b60201c565b6200032c565b600033905090565b6000600a60009054906101000a900473ffffffffffffffffffffffffffffffffffffffff16905081600a60006101000a81548173ffffffffffffffffffffffffffffffffffffffff021916908373ffffffffffffffffffffffffffffffffffffffff1602179055508173ffffffffffffffffffffffffffffffffffffffff168173ffffffffffffffffffffffffffffffffffffffff167f8be0079c531659141344cd1fd0a4f28419497f9722a3daafe3b4186f6b6457e060405160405180910390a35050565b80600c60006101000a81548160ff02191690836003811115620001e057620001df62000298565b5b021790555050565b828054620001f690620002f6565b90600052602060002090601f0160209004810192826200021a576000855562000266565b82601f106200023557805160ff191683800117855562000266565b8280016001018555821562000266579182015b828111156200026557825182559160200191906001019062000248565b5b50905062000275919062000279565b5090565b5b80821115620002945760008160009055506001016200027a565b5090565b7f4e487b7100000000000000000000000000000000000000000000000000000000600052602160045260246000fd5b7f4e487b7100000000000000000000000000000000000000000000000000000000600052602260045260246000fd5b600060028204905060018216806200030f57607f821691505b60208210811415620003265762000325620002c7565b5b50919050565b613cf8806200033c6000396000f3fe608060405234801561001057600080fd5b50600436106101585760003560e01c806370a08231116100c3578063a22cb4651161007c578063a22cb465146103d7578063b88d4fde146103f3578063c87b56dd1461040f578063e96055441461043f578063e985e9c51461046f578063f2fde38b1461049f57610158565b806370a0823114610329578063715018a61461035957806377fc2b19146103635780638da5cb5b1461037f578063938ce40a1461039d57806395d89b41146103b957610158565b80632f745c59116101155780632f745c5914610231578063310495ab1461026157806342842e0e1461029157806342966c68146102ad5780634f6ccce7146102c95780636352211e146102f957610158565b806301ffc9a71461015d57806306fdde031461018d578063081812fc146101ab578063095ea7b3146101db57806318160ddd146101f757806323b872dd14610215575b600080fd5b6101776004803603810190610172919061266d565b6104bb565b60405161018491906126b5565b60405180910390f35b610195610535565b6040516101a29190612769565b60405180910390f35b6101c560048036038101906101c091906127c1565b6105c7565b6040516101d2919061282f565b60405180910390f35b6101f560048036038101906101f09190612876565b61064c565b005b6101ff610764565b60405161020c91906128c5565b60405180910390f35b61022f600480360381019061022a91906128e0565b610771565b005b61024b60048036038101906102469190612876565b6107d1565b60405161025891906128c5565b60405180910390f35b61027b600480360381019061027691906127c1565b610876565b6040516102889190612769565b60405180910390f35b6102ab60048036038101906102a691906128e0565b610916565b005b6102c760048036038101906102c291906127c1565b610936565b005b6102e360048036038101906102de91906127c1565b610992565b6040516102f091906128c5565b60405180910390f35b610313600480360381019061030e91906127c1565b610a03565b604051610320919061282f565b60405180910390f35b610343600480360381019061033e9190612933565b610ab5565b60405161035091906128c5565b60405180910390f35b610361610b6d565b005b61037d600480360381019061037891906127c1565b610bf5565b005b610387610bf8565b604051610394919061282f565b60405180910390f35b6103b760048036038101906103b29190612a95565b610c22565b005b6103c1610c96565b6040516103ce9190612769565b60405180910390f35b6103f160048036038101906103ec9190612b1d565b610d28565b005b61040d60048036038101906104089190612bfe565b610d3e565b005b610429600480360381019061042491906127c1565b610da0565b6040516104369190612769565b60405180910390f35b61045960048036038101906104549190612c81565b610ef2565b60405161046691906128c5565b60405180910390f35b61048960048036038101906104849190612cf9565b610f34565b60405161049691906126b5565b60405180910390f35b6104b960048036038101906104b49190612933565b610fc8565b005b60007f780e9d63000000000000000000000000000000000000000000000000000000007bffffffffffffffffffffffffffffffffffffffffffffffffffffffff1916827bffffffffffffffffffffffffffffffffffffffffffffffffffffffff1916148061052e575061052d826110c0565b5b9050919050565b60606000805461054490612d68565b80601f016020809104026020016040519081016040528092919081815260200182805461057090612d68565b80156105bd5780601f10610592576101008083540402835291602001916105bd565b820191906000526020600020905b8154815290600101906020018083116105a057829003601f168201915b5050505050905090565b60006105d2826111a2565b610611576040517f08c379a000000000000000000000000000000000000000000000000000000000815260040161060890612e0c565b60405180910390fd5b6004600083815260200190815260200160002060009054906101000a900473ffffffffffffffffffffffffffffffffffffffff169050919050565b600061065782610a03565b90508073ffffffffffffffffffffffffffffffffffffffff168373ffffffffffffffffffffffffffffffffffffffff1614156106c8576040517f08c379a00000000000000000000000000000000000000000000000000000000081526004016106bf90612e9e565b60405180910390fd5b8073ffffffffffffffffffffffffffffffffffffffff166106e761120e565b73ffffffffffffffffffffffffffffffffffffffff16148061071657506107158161071061120e565b610f34565b5b610755576040517f08c379a000000000000000000000000000000000000000000000000000000000815260040161074c90612f30565b60405180910390fd5b61075f8383611216565b505050565b6000600880549050905090565b61078261077c61120e565b826112cf565b6107c1576040517f08c379a00000000000000000000000000000000000000000000000000000000081526004016107b890612fc2565b60405180910390fd5b6107cc8383836113ad565b505050565b60006107dc83610ab5565b821061081d576040517f08c379a000000000000000000000000000000000000000000000000000000000815260040161081490613054565b60405180910390fd5b600660008473ffffffffffffffffffffffffffffffffffffffff1673ffffffffffffffffffffffffffffffffffffffff168152602001908152602001600020600083815260200190815260200160002054905092915050565b600e602052806000526040600020600091509050805461089590612d68565b80601f01602080910402602001604051908101604052809291908181526020018280546108c190612d68565b801561090e5780601f106108e35761010080835404028352916020019161090e565b820191906000526020600020905b8154815290600101906020018083116108f157829003601f168201915b505050505081565b61093183838360405180602001604052806000815250610d3e565b505050565b61094761094161120e565b826112cf565b610986576040517f08c379a000000000000000000000000000000000000000000000000000000000815260040161097d906130e6565b60405180910390fd5b61098f81611609565b50565b600061099c610764565b82106109dd576040517f08c379a00000000000000000000000000000000000000000000000000000000081526004016109d490613178565b60405180910390fd5b600882815481106109f1576109f0613198565b5b90600052602060002001549050919050565b6000806002600084815260200190815260200160002060009054906101000a900473ffffffffffffffffffffffffffffffffffffffff169050600073ffffffffffffffffffffffffffffffffffffffff168173ffffffffffffffffffffffffffffffffffffffff161415610aac576040517f08c379a0000000000000000000000000000000000000000000000000000000008152600401610aa390613239565b60405180910390fd5b80915050919050565b60008073ffffffffffffffffffffffffffffffffffffffff168273ffffffffffffffffffffffffffffffffffffffff161415610b26576040517f08c379a0000000000000000000000000000000000000000000000000000000008152600401610b1d906132cb565b60405180910390fd5b600360008373ffffffffffffffffffffffffffffffffffffffff1673ffffffffffffffffffffffffffffffffffffffff168152602001908152602001600020549050919050565b610b7561120e565b73ffffffffffffffffffffffffffffffffffffffff16610b93610bf8565b73ffffffffffffffffffffffffffffffffffffffff1614610be9576040517f08c379a0000000000000000000000000000000000000000000000000000000008152600401610be090613337565b60405180910390fd5b610bf3600061165c565b565b50565b6000600a60009054906101000a900473ffffffffffffffffffffffffffffffffffffffff16905090565b610c2b826111a2565b610c6a576040517f08c379a0000000000000000000000000000000000000000000000000000000008152600401610c61906133c9565b60405180910390fd5b80600e60008481526020019081526020016000209080519060200190610c9192919061251e565b505050565b606060018054610ca590612d68565b80601f0160208091040260200160405190810160405280929190818152602001828054610cd190612d68565b8015610d1e5780601f10610cf357610100808354040283529160200191610d1e565b820191906000526020600020905b815481529060010190602001808311610d0157829003601f168201915b5050505050905090565b610d3a610d3361120e565b8383611722565b5050565b610d4f610d4961120e565b836112cf565b610d8e576040517f08c379a0000000000000000000000000000000000000000000000000000000008152600401610d8590612fc2565b60405180910390fd5b610d9a8484848461188f565b50505050565b6060610dab826111a2565b610dea576040517f08c379a0000000000000000000000000000000000000000000000000000000008152600401610de19061345b565b60405180910390fd5b6000600d60008481526020019081526020016000208054610e0a90612d68565b80601f0160208091040260200160405190810160405280929190818152602001828054610e3690612d68565b8015610e835780601f10610e5857610100808354040283529160200191610e83565b820191906000526020600020905b815481529060010190602001808311610e6657829003601f168201915b505050505090506000610e946118eb565b9050600081511415610eaa578192505050610eed565b600082511115610edf578082604051602001610ec79291906134b7565b60405160208183030381529060405292505050610eed565b610ee884611902565b925050505b919050565b6000610efe600b6119a9565b6000610f0a600b6119bf565b9050610f1633826119cd565b610f2081856119eb565b610f2a8184610c22565b8091505092915050565b6000600560008473ffffffffffffffffffffffffffffffffffffffff1673ffffffffffffffffffffffffffffffffffffffff16815260200190815260200160002060008373ffffffffffffffffffffffffffffffffffffffff1673ffffffffffffffffffffffffffffffffffffffff16815260200190815260200160002060009054906101000a900460ff16905092915050565b610fd061120e565b73ffffffffffffffffffffffffffffffffffffffff16610fee610bf8565b73ffffffffffffffffffffffffffffffffffffffff1614611044576040517f08c379a000000000000000000000000000000000000000000000000000000000815260040161103b90613337565b60405180910390fd5b600073ffffffffffffffffffffffffffffffffffffffff168173ffffffffffffffffffffffffffffffffffffffff1614156110b4576040517f08c379a00000000000000000000000000000000000000000000000000000000081526004016110ab9061354d565b60405180910390fd5b6110bd8161165c565b50565b60007f80ac58cd000000000000000000000000000000000000000000000000000000007bffffffffffffffffffffffffffffffffffffffffffffffffffffffff1916827bffffffffffffffffffffffffffffffffffffffffffffffffffffffff1916148061118b57507f5b5e139f000000000000000000000000000000000000000000000000000000007bffffffffffffffffffffffffffffffffffffffffffffffffffffffff1916827bffffffffffffffffffffffffffffffffffffffffffffffffffffffff1916145b8061119b575061119a82611a5f565b5b9050919050565b60008073ffffffffffffffffffffffffffffffffffffffff166002600084815260200190815260200160002060009054906101000a900473ffffffffffffffffffffffffffffffffffffffff1673ffffffffffffffffffffffffffffffffffffffff1614159050919050565b600033905090565b816004600083815260200190815260200160002060006101000a81548173ffffffffffffffffffffffffffffffffffffffff021916908373ffffffffffffffffffffffffffffffffffffffff160217905550808273ffffffffffffffffffffffffffffffffffffffff1661128983610a03565b73ffffffffffffffffffffffffffffffffffffffff167f8c5be1e5ebec7d5bd14f71427d1e84f3dd0314c0f7b2291e5b200ac8c7c3b92560405160405180910390a45050565b60006112da826111a2565b611319576040517f08c379a0000000000000000000000000000000000000000000000000000000008152600401611310906135df565b60405180910390fd5b600061132483610a03565b90508073ffffffffffffffffffffffffffffffffffffffff168473ffffffffffffffffffffffffffffffffffffffff16148061139357508373ffffffffffffffffffffffffffffffffffffffff1661137b846105c7565b73ffffffffffffffffffffffffffffffffffffffff16145b806113a457506113a38185610f34565b5b91505092915050565b8273ffffffffffffffffffffffffffffffffffffffff166113cd82610a03565b73ffffffffffffffffffffffffffffffffffffffff1614611423576040517f08c379a000000000000000000000000000000000000000000000000000000000815260040161141a90613671565b60405180910390fd5b600073ffffffffffffffffffffffffffffffffffffffff168273ffffffffffffffffffffffffffffffffffffffff161415611493576040517f08c379a000000000000000000000000000000000000000000000000000000000815260040161148a90613703565b60405180910390fd5b61149e838383611ac9565b6114a9600082611216565b6001600360008573ffffffffffffffffffffffffffffffffffffffff1673ffffffffffffffffffffffffffffffffffffffff16815260200190815260200160002060008282546114f99190613752565b925050819055506001600360008473ffffffffffffffffffffffffffffffffffffffff1673ffffffffffffffffffffffffffffffffffffffff16815260200190815260200160002060008282546115509190613786565b92505081905550816002600083815260200190815260200160002060006101000a81548173ffffffffffffffffffffffffffffffffffffffff021916908373ffffffffffffffffffffffffffffffffffffffff160217905550808273ffffffffffffffffffffffffffffffffffffffff168473ffffffffffffffffffffffffffffffffffffffff167fddf252ad1be2c89b69c2b068fc378daa952ba7f163c4a11628f55a4df523b3ef60405160405180910390a4505050565b61161281611bdd565b6000600d6000838152602001908152602001600020805461163290612d68565b90501461165957600d6000828152602001908152602001600020600061165891906125a4565b5b50565b6000600a60009054906101000a900473ffffffffffffffffffffffffffffffffffffffff16905081600a60006101000a81548173ffffffffffffffffffffffffffffffffffffffff021916908373ffffffffffffffffffffffffffffffffffffffff1602179055508173ffffffffffffffffffffffffffffffffffffffff168173ffffffffffffffffffffffffffffffffffffffff167f8be0079c531659141344cd1fd0a4f28419497f9722a3daafe3b4186f6b6457e060405160405180910390a35050565b8173ffffffffffffffffffffffffffffffffffffffff168373ffffffffffffffffffffffffffffffffffffffff161415611791576040517f08c379a000000000000000000000000000000000000000000000000000000000815260040161178890613828565b60405180910390fd5b80600560008573ffffffffffffffffffffffffffffffffffffffff1673ffffffffffffffffffffffffffffffffffffffff16815260200190815260200160002060008473ffffffffffffffffffffffffffffffffffffffff1673ffffffffffffffffffffffffffffffffffffffff16815260200190815260200160002060006101000a81548160ff0219169083151502179055508173ffffffffffffffffffffffffffffffffffffffff168373ffffffffffffffffffffffffffffffffffffffff167f17307eab39ab6107e8899845ad3d59bd9653f200f220920489ca2b5937696c318360405161188291906126b5565b60405180910390a3505050565b61189a8484846113ad565b6118a684848484611cee565b6118e5576040517f08c379a00000000000000000000000000000000000000000000000000000000081526004016118dc906138ba565b60405180910390fd5b50505050565b606060405180602001604052806000815250905090565b606061190d826111a2565b61194c576040517f08c379a00000000000000000000000000000000000000000000000000000000081526004016119439061394c565b60405180910390fd5b60006119566118eb565b9050600081511161197657604051806020016040528060008152506119a1565b8061198084611e76565b6040516020016119919291906134b7565b6040516020818303038152906040525b915050919050565b6001816000016000828254019250508190555050565b600081600001549050919050565b6119e7828260405180602001604052806000815250611fd7565b5050565b6119f4826111a2565b611a33576040517f08c379a0000000000000000000000000000000000000000000000000000000008152600401611a2a906139de565b60405180910390fd5b80600d60008481526020019081526020016000209080519060200190611a5a92919061251e565b505050565b60007f01ffc9a7000000000000000000000000000000000000000000000000000000007bffffffffffffffffffffffffffffffffffffffffffffffffffffffff1916827bffffffffffffffffffffffffffffffffffffffffffffffffffffffff1916149050919050565b611ad4838383612032565b600073ffffffffffffffffffffffffffffffffffffffff168373ffffffffffffffffffffffffffffffffffffffff161415611b1757611b1281612037565b611b56565b8173ffffffffffffffffffffffffffffffffffffffff168373ffffffffffffffffffffffffffffffffffffffff1614611b5557611b548382612080565b5b5b600073ffffffffffffffffffffffffffffffffffffffff168273ffffffffffffffffffffffffffffffffffffffff161415611b9957611b94816121ed565b611bd8565b8273ffffffffffffffffffffffffffffffffffffffff168273ffffffffffffffffffffffffffffffffffffffff1614611bd757611bd682826122be565b5b5b505050565b6000611be882610a03565b9050611bf681600084611ac9565b611c01600083611216565b6001600360008373ffffffffffffffffffffffffffffffffffffffff1673ffffffffffffffffffffffffffffffffffffffff1681526020019081526020016000206000828254611c519190613752565b925050819055506002600083815260200190815260200160002060006101000a81549073ffffffffffffffffffffffffffffffffffffffff021916905581600073ffffffffffffffffffffffffffffffffffffffff168273ffffffffffffffffffffffffffffffffffffffff167fddf252ad1be2c89b69c2b068fc378daa952ba7f163c4a11628f55a4df523b3ef60405160405180910390a45050565b6000611d0f8473ffffffffffffffffffffffffffffffffffffffff1661233d565b15611e69578373ffffffffffffffffffffffffffffffffffffffff1663150b7a02611d3861120e565b8786866040518563ffffffff1660e01b8152600401611d5a9493929190613a53565b6020604051808303816000875af1925050508015611d9657506040513d601f19601f82011682018060405250810190611d939190613ab4565b60015b611e19573d8060008114611dc6576040519150601f19603f3d011682016040523d82523d6000602084013e611dcb565b606091505b50600081511415611e11576040517f08c379a0000000000000000000000000000000000000000000000000000000008152600401611e08906138ba565b60405180910390fd5b805181602001fd5b63150b7a0260e01b7bffffffffffffffffffffffffffffffffffffffffffffffffffffffff1916817bffffffffffffffffffffffffffffffffffffffffffffffffffffffff191614915050611e6e565b600190505b949350505050565b60606000821415611ebe576040518060400160405280600181526020017f30000000000000000000000000000000000000000000000000000000000000008152509050611fd2565b600082905060005b60008214611ef0578080611ed990613ae1565b915050600a82611ee99190613b59565b9150611ec6565b60008167ffffffffffffffff811115611f0c57611f0b61296a565b5b6040519080825280601f01601f191660200182016040528015611f3e5781602001600182028036833780820191505090505b5090505b60008514611fcb57600182611f579190613752565b9150600a85611f669190613b8a565b6030611f729190613786565b60f81b818381518110611f8857611f87613198565b5b60200101907effffffffffffffffffffffffffffffffffffffffffffffffffffffffffffff1916908160001a905350600a85611fc49190613b59565b9450611f42565b8093505050505b919050565b611fe18383612350565b611fee6000848484611cee565b61202d576040517f08c379a0000000000000000000000000000000000000000000000000000000008152600401612024906138ba565b60405180910390fd5b505050565b505050565b6008805490506009600083815260200190815260200160002081905550600881908060018154018082558091505060019003906000526020600020016000909190919091505550565b6000600161208d84610ab5565b6120979190613752565b905060006007600084815260200190815260200160002054905081811461217c576000600660008673ffffffffffffffffffffffffffffffffffffffff1673ffffffffffffffffffffffffffffffffffffffff168152602001908152602001600020600084815260200190815260200160002054905080600660008773ffffffffffffffffffffffffffffffffffffffff1673ffffffffffffffffffffffffffffffffffffffff168152602001908152602001600020600084815260200190815260200160002081905550816007600083815260200190815260200160002081905550505b6007600084815260200190815260200160002060009055600660008573ffffffffffffffffffffffffffffffffffffffff1673ffffffffffffffffffffffffffffffffffffffff16815260200190815260200160002060008381526020019081526020016000206000905550505050565b600060016008805490506122019190613752565b905060006009600084815260200190815260200160002054905060006008838154811061223157612230613198565b5b90600052602060002001549050806008838154811061225357612252613198565b5b9060005260206000200181905550816009600083815260200190815260200160002081905550600960008581526020019081526020016000206000905560088054806122a2576122a1613bbb565b5b6001900381819060005260206000200160009055905550505050565b60006122c983610ab5565b905081600660008573ffffffffffffffffffffffffffffffffffffffff1673ffffffffffffffffffffffffffffffffffffffff168152602001908152602001600020600083815260200190815260200160002081905550806007600084815260200190815260200160002081905550505050565b600080823b905060008111915050919050565b600073ffffffffffffffffffffffffffffffffffffffff168273ffffffffffffffffffffffffffffffffffffffff1614156123c0576040517f08c379a00000000000000000000000000000000000000000000000000000000081526004016123b790613c36565b60405180910390fd5b6123c9816111a2565b15612409576040517f08c379a000000000000000000000000000000000000000000000000000000000815260040161240090613ca2565b60405180910390fd5b61241560008383611ac9565b6001600360008473ffffffffffffffffffffffffffffffffffffffff1673ffffffffffffffffffffffffffffffffffffffff16815260200190815260200160002060008282546124659190613786565b92505081905550816002600083815260200190815260200160002060006101000a81548173ffffffffffffffffffffffffffffffffffffffff021916908373ffffffffffffffffffffffffffffffffffffffff160217905550808273ffffffffffffffffffffffffffffffffffffffff16600073ffffffffffffffffffffffffffffffffffffffff167fddf252ad1be2c89b69c2b068fc378daa952ba7f163c4a11628f55a4df523b3ef60405160405180910390a45050565b82805461252a90612d68565b90600052602060002090601f01602090048101928261254c5760008555612593565b82601f1061256557805160ff1916838001178555612593565b82800160010185558215612593579182015b82811115612592578251825591602001919060010190612577565b5b5090506125a091906125e4565b5090565b5080546125b090612d68565b6000825580601f106125c257506125e1565b601f0160209004906000526020600020908101906125e091906125e4565b5b50565b5b808211156125fd5760008160009055506001016125e5565b5090565b6000604051905090565b600080fd5b600080fd5b60007fffffffff0000000000000000000000000000000000000000000000000000000082169050919050565b61264a81612615565b811461265557600080fd5b50565b60008135905061266781612641565b92915050565b6000602082840312156126835761268261260b565b5b600061269184828501612658565b91505092915050565b60008115159050919050565b6126af8161269a565b82525050565b60006020820190506126ca60008301846126a6565b92915050565b600081519050919050565b600082825260208201905092915050565b60005b8381101561270a5780820151818401526020810190506126ef565b83811115612719576000848401525b50505050565b6000601f19601f8301169050919050565b600061273b826126d0565b61274581856126db565b93506127558185602086016126ec565b61275e8161271f565b840191505092915050565b600060208201905081810360008301526127838184612730565b905092915050565b6000819050919050565b61279e8161278b565b81146127a957600080fd5b50565b6000813590506127bb81612795565b92915050565b6000602082840312156127d7576127d661260b565b5b60006127e5848285016127ac565b91505092915050565b600073ffffffffffffffffffffffffffffffffffffffff82169050919050565b6000612819826127ee565b9050919050565b6128298161280e565b82525050565b60006020820190506128446000830184612820565b92915050565b6128538161280e565b811461285e57600080fd5b50565b6000813590506128708161284a565b92915050565b6000806040838503121561288d5761288c61260b565b5b600061289b85828601612861565b92505060206128ac858286016127ac565b9150509250929050565b6128bf8161278b565b82525050565b60006020820190506128da60008301846128b6565b92915050565b6000806000606084860312156128f9576128f861260b565b5b600061290786828701612861565b935050602061291886828701612861565b9250506040612929868287016127ac565b9150509250925092565b6000602082840312156129495761294861260b565b5b600061295784828501612861565b91505092915050565b600080fd5b600080fd5b7f4e487b7100000000000000000000000000000000000000000000000000000000600052604160045260246000fd5b6129a28261271f565b810181811067ffffffffffffffff821117156129c1576129c061296a565b5b80604052505050565b60006129d4612601565b90506129e08282612999565b919050565b600067ffffffffffffffff821115612a00576129ff61296a565b5b612a098261271f565b9050602081019050919050565b82818337600083830152505050565b6000612a38612a33846129e5565b6129ca565b905082815260208101848484011115612a5457612a53612965565b5b612a5f848285612a16565b509392505050565b600082601f830112612a7c57612a7b612960565b5b8135612a8c848260208601612a25565b91505092915050565b60008060408385031215612aac57612aab61260b565b5b6000612aba858286016127ac565b925050602083013567ffffffffffffffff811115612adb57612ada612610565b5b612ae785828601612a67565b9150509250929050565b612afa8161269a565b8114612b0557600080fd5b50565b600081359050612b1781612af1565b92915050565b60008060408385031215612b3457612b3361260b565b5b6000612b4285828601612861565b9250506020612b5385828601612b08565b9150509250929050565b600067ffffffffffffffff821115612b7857612b7761296a565b5b612b818261271f565b9050602081019050919050565b6000612ba1612b9c84612b5d565b6129ca565b905082815260208101848484011115612bbd57612bbc612965565b5b612bc8848285612a16565b509392505050565b600082601f830112612be557612be4612960565b5b8135612bf5848260208601612b8e565b91505092915050565b60008060008060808587031215612c1857612c1761260b565b5b6000612c2687828801612861565b9450506020612c3787828801612861565b9350506040612c48878288016127ac565b925050606085013567ffffffffffffffff811115612c6957612c68612610565b5b612c7587828801612bd0565b91505092959194509250565b60008060408385031215612c9857612c9761260b565b5b600083013567ffffffffffffffff811115612cb657612cb5612610565b5b612cc285828601612a67565b925050602083013567ffffffffffffffff811115612ce357612ce2612610565b5b612cef85828601612a67565b9150509250929050565b60008060408385031215612d1057612d0f61260b565b5b6000612d1e85828601612861565b9250506020612d2f85828601612861565b9150509250929050565b7f4e487b7100000000000000000000000000000000000000000000000000000000600052602260045260246000fd5b60006002820490506001821680612d8057607f821691505b60208210811415612d9457612d93612d39565b5b50919050565b7f4552433732313a20617070726f76656420717565727920666f72206e6f6e657860008201527f697374656e7420746f6b656e0000000000000000000000000000000000000000602082015250565b6000612df6602c836126db565b9150612e0182612d9a565b604082019050919050565b60006020820190508181036000830152612e2581612de9565b9050919050565b7f4552433732313a20617070726f76616c20746f2063757272656e74206f776e6560008201527f7200000000000000000000000000000000000000000000000000000000000000602082015250565b6000612e886021836126db565b9150612e9382612e2c565b604082019050919050565b60006020820190508181036000830152612eb781612e7b565b9050919050565b7f4552433732313a20617070726f76652063616c6c6572206973206e6f74206f7760008201527f6e6572206e6f7220617070726f76656420666f7220616c6c0000000000000000602082015250565b6000612f1a6038836126db565b9150612f2582612ebe565b604082019050919050565b60006020820190508181036000830152612f4981612f0d565b9050919050565b7f4552433732313a207472616e736665722063616c6c6572206973206e6f74206f60008201527f776e6572206e6f7220617070726f766564000000000000000000000000000000602082015250565b6000612fac6031836126db565b9150612fb782612f50565b604082019050919050565b60006020820190508181036000830152612fdb81612f9f565b9050919050565b7f455243373231456e756d657261626c653a206f776e657220696e646578206f7560008201527f74206f6620626f756e6473000000000000000000000000000000000000000000602082015250565b600061303e602b836126db565b915061304982612fe2565b604082019050919050565b6000602082019050818103600083015261306d81613031565b9050919050565b7f4552433732314275726e61626c653a2063616c6c6572206973206e6f74206f7760008201527f6e6572206e6f7220617070726f76656400000000000000000000000000000000602082015250565b60006130d06030836126db565b91506130db82613074565b604082019050919050565b600060208201905081810360008301526130ff816130c3565b9050919050565b7f455243373231456e756d657261626c653a20676c6f62616c20696e646578206f60008201527f7574206f6620626f756e64730000000000000000000000000000000000000000602082015250565b6000613162602c836126db565b915061316d82613106565b604082019050919050565b6000602082019050818103600083015261319181613155565b9050919050565b7f4e487b7100000000000000000000000000000000000000000000000000000000600052603260045260246000fd5b7f4552433732313a206f776e657220717565727920666f72206e6f6e657869737460008201527f656e7420746f6b656e0000000000000000000000000000000000000000000000602082015250565b60006132236029836126db565b915061322e826131c7565b604082019050919050565b6000602082019050818103600083015261325281613216565b9050919050565b7f4552433732313a2062616c616e636520717565727920666f7220746865207a6560008201527f726f206164647265737300000000000000000000000000000000000000000000602082015250565b60006132b5602a836126db565b91506132c082613259565b604082019050919050565b600060208201905081810360008301526132e4816132a8565b9050919050565b7f4f776e61626c653a2063616c6c6572206973206e6f7420746865206f776e6572600082015250565b60006133216020836126db565b915061332c826132eb565b602082019050919050565b6000602082019050818103600083015261335081613314565b9050919050565b7f45524337323155524953746f726167653a206c616e644e616d6520736574206f60008201527f66206e6f6e6578697374656e7420746f6b656e00000000000000000000000000602082015250565b60006133b36033836126db565b91506133be82613357565b604082019050919050565b600060208201905081810360008301526133e2816133a6565b9050919050565b7f45524337323155524953746f726167653a2055524920717565727920666f722060008201527f6e6f6e6578697374656e7420746f6b656e000000000000000000000000000000602082015250565b60006134456031836126db565b9150613450826133e9565b604082019050919050565b6000602082019050818103600083015261347481613438565b9050919050565b600081905092915050565b6000613491826126d0565b61349b818561347b565b93506134ab8185602086016126ec565b80840191505092915050565b60006134c38285613486565b91506134cf8284613486565b91508190509392505050565b7f4f776e61626c653a206e6577206f776e657220697320746865207a65726f206160008201527f6464726573730000000000000000000000000000000000000000000000000000602082015250565b60006135376026836126db565b9150613542826134db565b604082019050919050565b600060208201905081810360008301526135668161352a565b9050919050565b7f4552433732313a206f70657261746f7220717565727920666f72206e6f6e657860008201527f697374656e7420746f6b656e0000000000000000000000000000000000000000602082015250565b60006135c9602c836126db565b91506135d48261356d565b604082019050919050565b600060208201905081810360008301526135f8816135bc565b9050919050565b7f4552433732313a207472616e73666572206f6620746f6b656e2074686174206960008201527f73206e6f74206f776e0000000000000000000000000000000000000000000000602082015250565b600061365b6029836126db565b9150613666826135ff565b604082019050919050565b6000602082019050818103600083015261368a8161364e565b9050919050565b7f4552433732313a207472616e7366657220746f20746865207a65726f2061646460008201527f7265737300000000000000000000000000000000000000000000000000000000602082015250565b60006136ed6024836126db565b91506136f882613691565b604082019050919050565b6000602082019050818103600083015261371c816136e0565b9050919050565b7f4e487b7100000000000000000000000000000000000000000000000000000000600052601160045260246000fd5b600061375d8261278b565b91506137688361278b565b92508282101561377b5761377a613723565b5b828203905092915050565b60006137918261278b565b915061379c8361278b565b9250827fffffffffffffffffffffffffffffffffffffffffffffffffffffffffffffffff038211156137d1576137d0613723565b5b828201905092915050565b7f4552433732313a20617070726f766520746f2063616c6c657200000000000000600082015250565b60006138126019836126db565b915061381d826137dc565b602082019050919050565b6000602082019050818103600083015261384181613805565b9050919050565b7f4552433732313a207472616e7366657220746f206e6f6e20455243373231526560008201527f63656976657220696d706c656d656e7465720000000000000000000000000000602082015250565b60006138a46032836126db565b91506138af82613848565b604082019050919050565b600060208201905081810360008301526138d381613897565b9050919050565b7f4552433732314d657461646174613a2055524920717565727920666f72206e6f60008201527f6e6578697374656e7420746f6b656e0000000000000000000000000000000000602082015250565b6000613936602f836126db565b9150613941826138da565b604082019050919050565b6000602082019050818103600083015261396581613929565b9050919050565b7f45524337323155524953746f726167653a2055524920736574206f66206e6f6e60008201527f6578697374656e7420746f6b656e000000000000000000000000000000000000602082015250565b60006139c8602e836126db565b91506139d38261396c565b604082019050919050565b600060208201905081810360008301526139f7816139bb565b9050919050565b600081519050919050565b600082825260208201905092915050565b6000613a25826139fe565b613a2f8185613a09565b9350613a3f8185602086016126ec565b613a488161271f565b840191505092915050565b6000608082019050613a686000830187612820565b613a756020830186612820565b613a8260408301856128b6565b8181036060830152613a948184613a1a565b905095945050505050565b600081519050613aae81612641565b92915050565b600060208284031215613aca57613ac961260b565b5b6000613ad884828501613a9f565b91505092915050565b6000613aec8261278b565b91507fffffffffffffffffffffffffffffffffffffffffffffffffffffffffffffffff821415613b1f57613b1e613723565b5b600182019050919050565b7f4e487b7100000000000000000000000000000000000000000000000000000000600052601260045260246000fd5b6000613b648261278b565b9150613b6f8361278b565b925082613b7f57613b7e613b2a565b5b828204905092915050565b6000613b958261278b565b9150613ba08361278b565b925082613bb057613baf613b2a565b5b828206905092915050565b7f4e487b7100000000000000000000000000000000000000000000000000000000600052603160045260246000fd5b7f4552433732313a206d696e7420746f20746865207a65726f2061646472657373600082015250565b6000613c206020836126db565b9150613c2b82613bea565b602082019050919050565b60006020820190508181036000830152613c4f81613c13565b9050919050565b7f4552433732313a20746f6b656e20616c7265616479206d696e74656400000000600082015250565b6000613c8c601c836126db565b9150613c9782613c56565b602082019050919050565b60006020820190508181036000830152613cbb81613c7f565b905091905056fea26469706673582212206d72954351fe910bc3f2349dd05270d5d36cdeb9a1ca27e04745199116215a7164736f6c634300080a0033",
  "immutableReferences": {},
  "source": "// SPDX-License-Identifier: MIT\npragma solidity ^0.8.0;\n\nimport \"./Building.sol\";\nimport \"./BuildingType.sol\";\n\ncontract Mine is Building {\n    constructor() {\n        _setBuildingType(BuildingType.Mine);\n    }\n}\n",
  "sourcePath": "/home/darovip/projects/mayland_labs/shattered-contracts/contracts/Mine.sol",
  "compiler": {
    "name": "solc",
    "version": "0.8.10+commit.fc410830.Emscripten.clang"
  },
  "schemaVersion": "3.4.4",
  "updatedAt": "2022-01-14T02:14:31.995Z",
  "devdoc": {
    "kind": "dev",
    "methods": {
      "approve(address,uint256)": {
        "details": "See {IERC721-approve}."
      },
      "balanceOf(address)": {
        "details": "See {IERC721-balanceOf}."
      },
      "build(uint256)": {
        "details": "Explain to a developer any extra details",
        "params": {
          "_building": "a parameter just like in doxygen (must be followed by parameter name)"
        }
      },
      "getApproved(uint256)": {
        "details": "See {IERC721-getApproved}."
      },
      "isApprovedForAll(address,address)": {
        "details": "See {IERC721-isApprovedForAll}."
      },
      "name()": {
        "details": "See {IERC721Metadata-name}."
      },
      "owner()": {
        "details": "Returns the address of the current owner."
      },
      "ownerOf(uint256)": {
        "details": "See {IERC721-ownerOf}."
      },
      "renounceOwnership()": {
        "details": "Leaves the contract without owner. It will not be possible to call `onlyOwner` functions anymore. Can only be called by the current owner. NOTE: Renouncing ownership will leave the contract without an owner, thereby removing any functionality that is only available to the owner."
      },
      "safeTransferFrom(address,address,uint256)": {
        "details": "See {IERC721-safeTransferFrom}."
      },
      "safeTransferFrom(address,address,uint256,bytes)": {
        "details": "See {IERC721-safeTransferFrom}."
      },
      "setApprovalForAll(address,bool)": {
        "details": "See {IERC721-setApprovalForAll}."
      },
      "supportsInterface(bytes4)": {
        "details": "See {IERC165-supportsInterface}."
      },
      "symbol()": {
        "details": "See {IERC721Metadata-symbol}."
      },
      "tokenByIndex(uint256)": {
        "details": "See {IERC721Enumerable-tokenByIndex}."
      },
      "tokenOfOwnerByIndex(address,uint256)": {
        "details": "See {IERC721Enumerable-tokenOfOwnerByIndex}."
      },
      "tokenURI(uint256)": {
        "details": "See {IERC721Metadata-tokenURI}."
      },
      "totalSupply()": {
        "details": "See {IERC721Enumerable-totalSupply}."
      },
      "transferFrom(address,address,uint256)": {
        "details": "See {IERC721-transferFrom}."
      },
      "transferOwnership(address)": {
        "details": "Transfers ownership of the contract to a new account (`newOwner`). Can only be called by the current owner."
      }
    },
    "version": 1
  },
  "userdoc": {
    "kind": "user",
    "methods": {
      "build(uint256)": {
        "notice": "Builds a building on top of a land, burning the Land NFT"
      }
    },
    "version": 1
  }
}