{
  "contractName": "Achievements",
  "abi": [
    {
      "anonymous": false,
      "inputs": [
        {
          "indexed": true,
          "internalType": "address",
          "name": "owner",
          "type": "address"
        },
        {
          "indexed": true,
          "internalType": "address",
          "name": "approved",
          "type": "address"
        },
        {
          "indexed": true,
          "internalType": "uint256",
          "name": "tokenId",
          "type": "uint256"
        }
      ],
      "name": "Approval",
      "type": "event"
    },
    {
      "anonymous": false,
      "inputs": [
        {
          "indexed": true,
          "internalType": "address",
          "name": "owner",
          "type": "address"
        },
        {
          "indexed": true,
          "internalType": "address",
          "name": "operator",
          "type": "address"
        },
        {
          "indexed": false,
          "internalType": "bool",
          "name": "approved",
          "type": "bool"
        }
      ],
      "name": "ApprovalForAll",
      "type": "event"
    },
    {
      "anonymous": false,
      "inputs": [
        {
          "indexed": true,
          "internalType": "address",
          "name": "previousOwner",
          "type": "address"
        },
        {
          "indexed": true,
          "internalType": "address",
          "name": "newOwner",
          "type": "address"
        }
      ],
      "name": "OwnershipTransferred",
      "type": "event"
    },
    {
      "anonymous": false,
      "inputs": [
        {
          "indexed": true,
          "internalType": "address",
          "name": "from",
          "type": "address"
        },
        {
          "indexed": true,
          "internalType": "address",
          "name": "to",
          "type": "address"
        },
        {
          "indexed": true,
          "internalType": "uint256",
          "name": "tokenId",
          "type": "uint256"
        }
      ],
      "name": "Transfer",
      "type": "event"
    },
    {
      "inputs": [
        {
          "internalType": "address",
          "name": "to",
          "type": "address"
        },
        {
          "internalType": "uint256",
          "name": "tokenId",
          "type": "uint256"
        }
      ],
      "name": "approve",
      "outputs": [],
      "stateMutability": "nonpayable",
      "type": "function"
    },
    {
      "inputs": [
        {
          "internalType": "address",
          "name": "owner",
          "type": "address"
        }
      ],
      "name": "balanceOf",
      "outputs": [
        {
          "internalType": "uint256",
          "name": "",
          "type": "uint256"
        }
      ],
      "stateMutability": "view",
      "type": "function"
    },
    {
      "inputs": [
        {
          "internalType": "uint256",
          "name": "tokenId",
          "type": "uint256"
        }
      ],
      "name": "getApproved",
      "outputs": [
        {
          "internalType": "address",
          "name": "",
          "type": "address"
        }
      ],
      "stateMutability": "view",
      "type": "function"
    },
    {
      "inputs": [
        {
          "internalType": "address",
          "name": "owner",
          "type": "address"
        },
        {
          "internalType": "address",
          "name": "operator",
          "type": "address"
        }
      ],
      "name": "isApprovedForAll",
      "outputs": [
        {
          "internalType": "bool",
          "name": "",
          "type": "bool"
        }
      ],
      "stateMutability": "view",
      "type": "function"
    },
    {
      "inputs": [],
      "name": "name",
      "outputs": [
        {
          "internalType": "string",
          "name": "",
          "type": "string"
        }
      ],
      "stateMutability": "view",
      "type": "function"
    },
    {
      "inputs": [
        {
          "internalType": "string",
          "name": "",
          "type": "string"
        }
      ],
      "name": "nameToAchievements",
      "outputs": [
        {
          "internalType": "string",
          "name": "name",
          "type": "string"
        },
        {
          "internalType": "string",
          "name": "image",
          "type": "string"
        },
        {
          "internalType": "string",
          "name": "description",
          "type": "string"
        },
        {
          "internalType": "bool",
          "name": "isActive",
          "type": "bool"
        }
      ],
      "stateMutability": "view",
      "type": "function"
    },
    {
      "inputs": [],
      "name": "owner",
      "outputs": [
        {
          "internalType": "address",
          "name": "",
          "type": "address"
        }
      ],
      "stateMutability": "view",
      "type": "function"
    },
    {
      "inputs": [
        {
          "internalType": "uint256",
          "name": "tokenId",
          "type": "uint256"
        }
      ],
      "name": "ownerOf",
      "outputs": [
        {
          "internalType": "address",
          "name": "",
          "type": "address"
        }
      ],
      "stateMutability": "view",
      "type": "function"
    },
    {
      "inputs": [],
      "name": "renounceOwnership",
      "outputs": [],
      "stateMutability": "nonpayable",
      "type": "function"
    },
    {
      "inputs": [
        {
          "internalType": "address",
          "name": "from",
          "type": "address"
        },
        {
          "internalType": "address",
          "name": "to",
          "type": "address"
        },
        {
          "internalType": "uint256",
          "name": "tokenId",
          "type": "uint256"
        }
      ],
      "name": "safeTransferFrom",
      "outputs": [],
      "stateMutability": "nonpayable",
      "type": "function"
    },
    {
      "inputs": [
        {
          "internalType": "address",
          "name": "from",
          "type": "address"
        },
        {
          "internalType": "address",
          "name": "to",
          "type": "address"
        },
        {
          "internalType": "uint256",
          "name": "tokenId",
          "type": "uint256"
        },
        {
          "internalType": "bytes",
          "name": "_data",
          "type": "bytes"
        }
      ],
      "name": "safeTransferFrom",
      "outputs": [],
      "stateMutability": "nonpayable",
      "type": "function"
    },
    {
      "inputs": [
        {
          "internalType": "address",
          "name": "operator",
          "type": "address"
        },
        {
          "internalType": "bool",
          "name": "approved",
          "type": "bool"
        }
      ],
      "name": "setApprovalForAll",
      "outputs": [],
      "stateMutability": "nonpayable",
      "type": "function"
    },
    {
      "inputs": [
        {
          "internalType": "bytes4",
          "name": "interfaceId",
          "type": "bytes4"
        }
      ],
      "name": "supportsInterface",
      "outputs": [
        {
          "internalType": "bool",
          "name": "",
          "type": "bool"
        }
      ],
      "stateMutability": "view",
      "type": "function"
    },
    {
      "inputs": [],
      "name": "symbol",
      "outputs": [
        {
          "internalType": "string",
          "name": "",
          "type": "string"
        }
      ],
      "stateMutability": "view",
      "type": "function"
    },
    {
      "inputs": [
        {
          "internalType": "uint256",
          "name": "index",
          "type": "uint256"
        }
      ],
      "name": "tokenByIndex",
      "outputs": [
        {
          "internalType": "uint256",
          "name": "",
          "type": "uint256"
        }
      ],
      "stateMutability": "view",
      "type": "function"
    },
    {
      "inputs": [
        {
          "internalType": "uint256",
          "name": "",
          "type": "uint256"
        }
      ],
      "name": "tokenIdToAchievementName",
      "outputs": [
        {
          "internalType": "string",
          "name": "",
          "type": "string"
        }
      ],
      "stateMutability": "view",
      "type": "function"
    },
    {
      "inputs": [
        {
          "internalType": "address",
          "name": "owner",
          "type": "address"
        },
        {
          "internalType": "uint256",
          "name": "index",
          "type": "uint256"
        }
      ],
      "name": "tokenOfOwnerByIndex",
      "outputs": [
        {
          "internalType": "uint256",
          "name": "",
          "type": "uint256"
        }
      ],
      "stateMutability": "view",
      "type": "function"
    },
    {
      "inputs": [],
      "name": "totalSupply",
      "outputs": [
        {
          "internalType": "uint256",
          "name": "",
          "type": "uint256"
        }
      ],
      "stateMutability": "view",
      "type": "function"
    },
    {
      "inputs": [
        {
          "internalType": "address",
          "name": "from",
          "type": "address"
        },
        {
          "internalType": "address",
          "name": "to",
          "type": "address"
        },
        {
          "internalType": "uint256",
          "name": "tokenId",
          "type": "uint256"
        }
      ],
      "name": "transferFrom",
      "outputs": [],
      "stateMutability": "nonpayable",
      "type": "function"
    },
    {
      "inputs": [
        {
          "internalType": "address",
          "name": "newOwner",
          "type": "address"
        }
      ],
      "name": "transferOwnership",
      "outputs": [],
      "stateMutability": "nonpayable",
      "type": "function"
    },
    {
      "inputs": [
        {
          "internalType": "string",
          "name": "image",
          "type": "string"
        },
        {
          "internalType": "string",
          "name": "name",
          "type": "string"
        },
        {
          "internalType": "string",
          "name": "description",
          "type": "string"
        }
      ],
      "name": "addAchievement",
      "outputs": [],
      "stateMutability": "nonpayable",
      "type": "function"
    },
    {
      "inputs": [
        {
          "internalType": "string",
          "name": "name",
          "type": "string"
        }
      ],
      "name": "removeAchievement",
      "outputs": [],
      "stateMutability": "nonpayable",
      "type": "function"
    },
    {
      "inputs": [
        {
          "internalType": "string",
          "name": "image",
          "type": "string"
        },
        {
          "internalType": "string",
          "name": "name",
          "type": "string"
        },
        {
          "internalType": "address",
          "name": "recipient",
          "type": "address"
        }
      ],
      "name": "mintAchievement",
      "outputs": [
        {
          "internalType": "uint256",
          "name": "",
          "type": "uint256"
        }
      ],
      "stateMutability": "nonpayable",
      "type": "function"
    },
    {
      "inputs": [
        {
          "internalType": "uint256",
          "name": "tokenId",
          "type": "uint256"
        }
      ],
      "name": "tokenURI",
      "outputs": [
        {
          "internalType": "string",
          "name": "",
          "type": "string"
        }
      ],
      "stateMutability": "view",
      "type": "function"
    },
    {
      "inputs": [
        {
          "internalType": "uint256",
          "name": "tokenId",
          "type": "uint256"
        }
      ],
      "name": "burn",
      "outputs": [],
      "stateMutability": "nonpayable",
      "type": "function"
    }
  ],
  "bytecode": "0x608060405234801561001057600080fd5b50614406806100206000396000f3fe608060405234801561001057600080fd5b50600436106101735760003560e01c8063715018a6116100de578063b88d4fde11610097578063d0662b8811610071578063d0662b881461045a578063db7722011461048a578063e985e9c5146104bd578063f2fde38b146104ed57610173565b8063b88d4fde146103f2578063bf6603d31461040e578063c87b56dd1461042a57610173565b8063715018a6146103445780637cf3dca71461034e5780638da5cb5b1461036a57806390a206351461038857806395d89b41146103b8578063a22cb465146103d657610173565b80632f745c59116101305780632f745c591461024c57806342842e0e1461027c57806342966c68146102985780634f6ccce7146102b45780636352211e146102e457806370a082311461031457610173565b806301ffc9a71461017857806306fdde03146101a8578063081812fc146101c6578063095ea7b3146101f657806318160ddd1461021257806323b872dd14610230575b600080fd5b610192600480360381019061018d9190612cf5565b610509565b60405161019f9190612d3d565b60405180910390f35b6101b0610583565b6040516101bd9190612df1565b60405180910390f35b6101e060048036038101906101db9190612e49565b610615565b6040516101ed9190612eb7565b60405180910390f35b610210600480360381019061020b9190612efe565b61069a565b005b61021a6107b2565b6040516102279190612f4d565b60405180910390f35b61024a60048036038101906102459190612f68565b6107bf565b005b61026660048036038101906102619190612efe565b61081f565b6040516102739190612f4d565b60405180910390f35b61029660048036038101906102919190612f68565b6108c4565b005b6102b260048036038101906102ad9190612e49565b6108e4565b005b6102ce60048036038101906102c99190612e49565b610940565b6040516102db9190612f4d565b60405180910390f35b6102fe60048036038101906102f99190612e49565b6109b1565b60405161030b9190612eb7565b60405180910390f35b61032e60048036038101906103299190612fbb565b610a63565b60405161033b9190612f4d565b60405180910390f35b61034c610b1b565b005b6103686004803603810190610363919061311d565b610ba3565b005b610372610d2d565b60405161037f9190612eb7565b60405180910390f35b6103a2600480360381019061039d9190612e49565b610d57565b6040516103af9190612df1565b60405180910390f35b6103c0610df7565b6040516103cd9190612df1565b60405180910390f35b6103f060048036038101906103eb91906131f0565b610e89565b005b61040c600480360381019061040791906132d1565b610e9f565b005b61042860048036038101906104239190613354565b610f01565b005b610444600480360381019061043f9190612e49565b610fef565b6040516104519190612df1565b60405180910390f35b610474600480360381019061046f919061339d565b611141565b6040516104819190612f4d565b60405180910390f35b6104a4600480360381019061049f9190613354565b61121e565b6040516104b49493929190613428565b60405180910390f35b6104d760048036038101906104d29190613482565b611409565b6040516104e49190612d3d565b60405180910390f35b61050760048036038101906105029190612fbb565b61149d565b005b60007f780e9d63000000000000000000000000000000000000000000000000000000007bffffffffffffffffffffffffffffffffffffffffffffffffffffffff1916827bffffffffffffffffffffffffffffffffffffffffffffffffffffffff1916148061057c575061057b82611595565b5b9050919050565b606060658054610592906134f1565b80601f01602080910402602001604051908101604052809291908181526020018280546105be906134f1565b801561060b5780601f106105e05761010080835404028352916020019161060b565b820191906000526020600020905b8154815290600101906020018083116105ee57829003601f168201915b5050505050905090565b600061062082611677565b61065f576040517f08c379a000000000000000000000000000000000000000000000000000000000815260040161065690613595565b60405180910390fd5b6069600083815260200190815260200160002060009054906101000a900473ffffffffffffffffffffffffffffffffffffffff169050919050565b60006106a5826109b1565b90508073ffffffffffffffffffffffffffffffffffffffff168373ffffffffffffffffffffffffffffffffffffffff161415610716576040517f08c379a000000000000000000000000000000000000000000000000000000000815260040161070d90613627565b60405180910390fd5b8073ffffffffffffffffffffffffffffffffffffffff166107356116e3565b73ffffffffffffffffffffffffffffffffffffffff16148061076457506107638161075e6116e3565b611409565b5b6107a3576040517f08c379a000000000000000000000000000000000000000000000000000000000815260040161079a906136b9565b60405180910390fd5b6107ad83836116eb565b505050565b6000609980549050905090565b6107d06107ca6116e3565b826117a4565b61080f576040517f08c379a00000000000000000000000000000000000000000000000000000000081526004016108069061374b565b60405180910390fd5b61081a838383611882565b505050565b600061082a83610a63565b821061086b576040517f08c379a0000000000000000000000000000000000000000000000000000000008152600401610862906137dd565b60405180910390fd5b609760008473ffffffffffffffffffffffffffffffffffffffff1673ffffffffffffffffffffffffffffffffffffffff168152602001908152602001600020600083815260200190815260200160002054905092915050565b6108df83838360405180602001604052806000815250610e9f565b505050565b6108f56108ef6116e3565b826117a4565b610934576040517f08c379a000000000000000000000000000000000000000000000000000000000815260040161092b9061386f565b60405180910390fd5b61093d8161190e565b50565b600061094a6107b2565b821061098b576040517f08c379a000000000000000000000000000000000000000000000000000000000815260040161098290613901565b60405180910390fd5b6099828154811061099f5761099e613921565b5b90600052602060002001549050919050565b6000806067600084815260200190815260200160002060009054906101000a900473ffffffffffffffffffffffffffffffffffffffff169050600073ffffffffffffffffffffffffffffffffffffffff168173ffffffffffffffffffffffffffffffffffffffff161415610a5a576040517f08c379a0000000000000000000000000000000000000000000000000000000008152600401610a51906139c2565b60405180910390fd5b80915050919050565b60008073ffffffffffffffffffffffffffffffffffffffff168273ffffffffffffffffffffffffffffffffffffffff161415610ad4576040517f08c379a0000000000000000000000000000000000000000000000000000000008152600401610acb90613a54565b60405180910390fd5b606860008373ffffffffffffffffffffffffffffffffffffffff1673ffffffffffffffffffffffffffffffffffffffff168152602001908152602001600020549050919050565b610b236116e3565b73ffffffffffffffffffffffffffffffffffffffff16610b41610d2d565b73ffffffffffffffffffffffffffffffffffffffff1614610b97576040517f08c379a0000000000000000000000000000000000000000000000000000000008152600401610b8e90613ac0565b60405180910390fd5b610ba16000611961565b565b610bab6116e3565b73ffffffffffffffffffffffffffffffffffffffff16610bc9610d2d565b73ffffffffffffffffffffffffffffffffffffffff1614610c1f576040517f08c379a0000000000000000000000000000000000000000000000000000000008152600401610c1690613ac0565b60405180910390fd5b6001151560fc83604051610c339190613b1c565b908152602001604051809103902060030160009054906101000a900460ff16151514610d1a5760405180608001604052808381526020018481526020018281526020016001151581525060fc83604051610c8d9190613b1c565b90815260200160405180910390206000820151816000019080519060200190610cb7929190612ba6565b506020820151816001019080519060200190610cd4929190612ba6565b506040820151816002019080519060200190610cf1929190612ba6565b5060608201518160030160006101000a81548160ff021916908315150217905550905050610d28565b610d278284836001611a27565b5b505050565b600060c960009054906101000a900473ffffffffffffffffffffffffffffffffffffffff16905090565b60fe6020528060005260406000206000915090508054610d76906134f1565b80601f0160208091040260200160405190810160405280929190818152602001828054610da2906134f1565b8015610def5780601f10610dc457610100808354040283529160200191610def565b820191906000526020600020905b815481529060010190602001808311610dd257829003601f168201915b505050505081565b606060668054610e06906134f1565b80601f0160208091040260200160405190810160405280929190818152602001828054610e32906134f1565b8015610e7f5780601f10610e5457610100808354040283529160200191610e7f565b820191906000526020600020905b815481529060010190602001808311610e6257829003601f168201915b5050505050905090565b610e9b610e946116e3565b8383611b4e565b5050565b610eb0610eaa6116e3565b836117a4565b610eef576040517f08c379a0000000000000000000000000000000000000000000000000000000008152600401610ee69061374b565b60405180910390fd5b610efb84848484611cbb565b50505050565b610f096116e3565b73ffffffffffffffffffffffffffffffffffffffff16610f27610d2d565b73ffffffffffffffffffffffffffffffffffffffff1614610f7d576040517f08c379a0000000000000000000000000000000000000000000000000000000008152600401610f7490613ac0565b60405180910390fd5b60fc81604051610f8d9190613b1c565b908152602001604051809103902060030160009054906101000a900460ff1615610fec57600060fc82604051610fc39190613b1c565b908152602001604051809103902060030160006101000a81548160ff0219169083151502179055505b50565b6060610ffa82611677565b611039576040517f08c379a000000000000000000000000000000000000000000000000000000000815260040161103090613ba5565b60405180910390fd5b600060fd60008481526020019081526020016000208054611059906134f1565b80601f0160208091040260200160405190810160405280929190818152602001828054611085906134f1565b80156110d25780601f106110a7576101008083540402835291602001916110d2565b820191906000526020600020905b8154815290600101906020018083116110b557829003601f168201915b5050505050905060006110e3611d17565b90506000815114156110f957819250505061113c565b60008251111561112e578082604051602001611116929190613bc5565b6040516020818303038152906040529250505061113c565b61113784611d2e565b925050505b919050565b600061114b6116e3565b73ffffffffffffffffffffffffffffffffffffffff16611169610d2d565b73ffffffffffffffffffffffffffffffffffffffff16146111bf576040517f08c379a00000000000000000000000000000000000000000000000000000000081526004016111b690613ac0565b60405180910390fd5b6111c960fb611dd5565b60006111d560fb611deb565b90506111e18382611df9565b6111eb8186611e17565b8360fe60008381526020019081526020016000209080519060200190611212929190612ba6565b50809150509392505050565b60fc81805160208101820180518482526020830160208501208183528095505050505050600091509050806000018054611257906134f1565b80601f0160208091040260200160405190810160405280929190818152602001828054611283906134f1565b80156112d05780601f106112a5576101008083540402835291602001916112d0565b820191906000526020600020905b8154815290600101906020018083116112b357829003601f168201915b5050505050908060010180546112e5906134f1565b80601f0160208091040260200160405190810160405280929190818152602001828054611311906134f1565b801561135e5780601f106113335761010080835404028352916020019161135e565b820191906000526020600020905b81548152906001019060200180831161134157829003601f168201915b505050505090806002018054611373906134f1565b80601f016020809104026020016040519081016040528092919081815260200182805461139f906134f1565b80156113ec5780601f106113c1576101008083540402835291602001916113ec565b820191906000526020600020905b8154815290600101906020018083116113cf57829003601f168201915b5050505050908060030160009054906101000a900460ff16905084565b6000606a60008473ffffffffffffffffffffffffffffffffffffffff1673ffffffffffffffffffffffffffffffffffffffff16815260200190815260200160002060008373ffffffffffffffffffffffffffffffffffffffff1673ffffffffffffffffffffffffffffffffffffffff16815260200190815260200160002060009054906101000a900460ff16905092915050565b6114a56116e3565b73ffffffffffffffffffffffffffffffffffffffff166114c3610d2d565b73ffffffffffffffffffffffffffffffffffffffff1614611519576040517f08c379a000000000000000000000000000000000000000000000000000000000815260040161151090613ac0565b60405180910390fd5b600073ffffffffffffffffffffffffffffffffffffffff168173ffffffffffffffffffffffffffffffffffffffff161415611589576040517f08c379a000000000000000000000000000000000000000000000000000000000815260040161158090613c5b565b60405180910390fd5b61159281611961565b50565b60007f80ac58cd000000000000000000000000000000000000000000000000000000007bffffffffffffffffffffffffffffffffffffffffffffffffffffffff1916827bffffffffffffffffffffffffffffffffffffffffffffffffffffffff1916148061166057507f5b5e139f000000000000000000000000000000000000000000000000000000007bffffffffffffffffffffffffffffffffffffffffffffffffffffffff1916827bffffffffffffffffffffffffffffffffffffffffffffffffffffffff1916145b80611670575061166f82611e8b565b5b9050919050565b60008073ffffffffffffffffffffffffffffffffffffffff166067600084815260200190815260200160002060009054906101000a900473ffffffffffffffffffffffffffffffffffffffff1673ffffffffffffffffffffffffffffffffffffffff1614159050919050565b600033905090565b816069600083815260200190815260200160002060006101000a81548173ffffffffffffffffffffffffffffffffffffffff021916908373ffffffffffffffffffffffffffffffffffffffff160217905550808273ffffffffffffffffffffffffffffffffffffffff1661175e836109b1565b73ffffffffffffffffffffffffffffffffffffffff167f8c5be1e5ebec7d5bd14f71427d1e84f3dd0314c0f7b2291e5b200ac8c7c3b92560405160405180910390a45050565b60006117af82611677565b6117ee576040517f08c379a00000000000000000000000000000000000000000000000000000000081526004016117e590613ced565b60405180910390fd5b60006117f9836109b1565b90508073ffffffffffffffffffffffffffffffffffffffff168473ffffffffffffffffffffffffffffffffffffffff16148061186857508373ffffffffffffffffffffffffffffffffffffffff1661185084610615565b73ffffffffffffffffffffffffffffffffffffffff16145b8061187957506118788185611409565b5b91505092915050565b61188a6116e3565b73ffffffffffffffffffffffffffffffffffffffff166118a8610d2d565b73ffffffffffffffffffffffffffffffffffffffff16146118fe576040517f08c379a00000000000000000000000000000000000000000000000000000000081526004016118f590613ac0565b60405180910390fd5b611909838383611ef5565b505050565b61191781612151565b600060fd60008381526020019081526020016000208054611937906134f1565b90501461195e5760fd6000828152602001908152602001600020600061195d9190612c2c565b5b50565b600060c960009054906101000a900473ffffffffffffffffffffffffffffffffffffffff1690508160c960006101000a81548173ffffffffffffffffffffffffffffffffffffffff021916908373ffffffffffffffffffffffffffffffffffffffff1602179055508173ffffffffffffffffffffffffffffffffffffffff168173ffffffffffffffffffffffffffffffffffffffff167f8be0079c531659141344cd1fd0a4f28419497f9722a3daafe3b4186f6b6457e060405160405180910390a35050565b611a2f6116e3565b73ffffffffffffffffffffffffffffffffffffffff16611a4d610d2d565b73ffffffffffffffffffffffffffffffffffffffff1614611aa3576040517f08c379a0000000000000000000000000000000000000000000000000000000008152600401611a9a90613ac0565b60405180910390fd5b8260fc85604051611ab49190613b1c565b90815260200160405180910390206001019080519060200190611ad8929190612ba6565b508160fc85604051611aea9190613b1c565b90815260200160405180910390206002019080519060200190611b0e929190612ba6565b508060fc85604051611b209190613b1c565b908152602001604051809103902060030160006101000a81548160ff02191690831515021790555050505050565b8173ffffffffffffffffffffffffffffffffffffffff168373ffffffffffffffffffffffffffffffffffffffff161415611bbd576040517f08c379a0000000000000000000000000000000000000000000000000000000008152600401611bb490613d59565b60405180910390fd5b80606a60008573ffffffffffffffffffffffffffffffffffffffff1673ffffffffffffffffffffffffffffffffffffffff16815260200190815260200160002060008473ffffffffffffffffffffffffffffffffffffffff1673ffffffffffffffffffffffffffffffffffffffff16815260200190815260200160002060006101000a81548160ff0219169083151502179055508173ffffffffffffffffffffffffffffffffffffffff168373ffffffffffffffffffffffffffffffffffffffff167f17307eab39ab6107e8899845ad3d59bd9653f200f220920489ca2b5937696c3183604051611cae9190612d3d565b60405180910390a3505050565b611cc6848484611882565b611cd284848484612262565b611d11576040517f08c379a0000000000000000000000000000000000000000000000000000000008152600401611d0890613deb565b60405180910390fd5b50505050565b606060405180602001604052806000815250905090565b6060611d3982611677565b611d78576040517f08c379a0000000000000000000000000000000000000000000000000000000008152600401611d6f90613e7d565b60405180910390fd5b6000611d82611d17565b90506000815111611da25760405180602001604052806000815250611dcd565b80611dac846123ea565b604051602001611dbd929190613bc5565b6040516020818303038152906040525b915050919050565b6001816000016000828254019250508190555050565b600081600001549050919050565b611e1382826040518060200160405280600081525061254b565b5050565b611e2082611677565b611e5f576040517f08c379a0000000000000000000000000000000000000000000000000000000008152600401611e5690613f0f565b60405180910390fd5b8060fd60008481526020019081526020016000209080519060200190611e86929190612ba6565b505050565b60007f01ffc9a7000000000000000000000000000000000000000000000000000000007bffffffffffffffffffffffffffffffffffffffffffffffffffffffff1916827bffffffffffffffffffffffffffffffffffffffffffffffffffffffff1916149050919050565b8273ffffffffffffffffffffffffffffffffffffffff16611f15826109b1565b73ffffffffffffffffffffffffffffffffffffffff1614611f6b576040517f08c379a0000000000000000000000000000000000000000000000000000000008152600401611f6290613fa1565b60405180910390fd5b600073ffffffffffffffffffffffffffffffffffffffff168273ffffffffffffffffffffffffffffffffffffffff161415611fdb576040517f08c379a0000000000000000000000000000000000000000000000000000000008152600401611fd290614033565b60405180910390fd5b611fe68383836125a6565b611ff16000826116eb565b6001606860008573ffffffffffffffffffffffffffffffffffffffff1673ffffffffffffffffffffffffffffffffffffffff16815260200190815260200160002060008282546120419190614082565b925050819055506001606860008473ffffffffffffffffffffffffffffffffffffffff1673ffffffffffffffffffffffffffffffffffffffff168152602001908152602001600020600082825461209891906140b6565b92505081905550816067600083815260200190815260200160002060006101000a81548173ffffffffffffffffffffffffffffffffffffffff021916908373ffffffffffffffffffffffffffffffffffffffff160217905550808273ffffffffffffffffffffffffffffffffffffffff168473ffffffffffffffffffffffffffffffffffffffff167fddf252ad1be2c89b69c2b068fc378daa952ba7f163c4a11628f55a4df523b3ef60405160405180910390a4505050565b600061215c826109b1565b905061216a816000846125a6565b6121756000836116eb565b6001606860008373ffffffffffffffffffffffffffffffffffffffff1673ffffffffffffffffffffffffffffffffffffffff16815260200190815260200160002060008282546121c59190614082565b925050819055506067600083815260200190815260200160002060006101000a81549073ffffffffffffffffffffffffffffffffffffffff021916905581600073ffffffffffffffffffffffffffffffffffffffff168273ffffffffffffffffffffffffffffffffffffffff167fddf252ad1be2c89b69c2b068fc378daa952ba7f163c4a11628f55a4df523b3ef60405160405180910390a45050565b60006122838473ffffffffffffffffffffffffffffffffffffffff166126ba565b156123dd578373ffffffffffffffffffffffffffffffffffffffff1663150b7a026122ac6116e3565b8786866040518563ffffffff1660e01b81526004016122ce9493929190614161565b6020604051808303816000875af192505050801561230a57506040513d601f19601f8201168201806040525081019061230791906141c2565b60015b61238d573d806000811461233a576040519150601f19603f3d011682016040523d82523d6000602084013e61233f565b606091505b50600081511415612385576040517f08c379a000000000000000000000000000000000000000000000000000000000815260040161237c90613deb565b60405180910390fd5b805181602001fd5b63150b7a0260e01b7bffffffffffffffffffffffffffffffffffffffffffffffffffffffff1916817bffffffffffffffffffffffffffffffffffffffffffffffffffffffff1916149150506123e2565b600190505b949350505050565b60606000821415612432576040518060400160405280600181526020017f30000000000000000000000000000000000000000000000000000000000000008152509050612546565b600082905060005b6000821461246457808061244d906141ef565b915050600a8261245d9190614267565b915061243a565b60008167ffffffffffffffff8111156124805761247f612ff2565b5b6040519080825280601f01601f1916602001820160405280156124b25781602001600182028036833780820191505090505b5090505b6000851461253f576001826124cb9190614082565b9150600a856124da9190614298565b60306124e691906140b6565b60f81b8183815181106124fc576124fb613921565b5b60200101907effffffffffffffffffffffffffffffffffffffffffffffffffffffffffffff1916908160001a905350600a856125389190614267565b94506124b6565b8093505050505b919050565b61255583836126cd565b6125626000848484612262565b6125a1576040517f08c379a000000000000000000000000000000000000000000000000000000000815260040161259890613deb565b60405180910390fd5b505050565b6125b183838361289b565b600073ffffffffffffffffffffffffffffffffffffffff168373ffffffffffffffffffffffffffffffffffffffff1614156125f4576125ef816128a0565b612633565b8173ffffffffffffffffffffffffffffffffffffffff168373ffffffffffffffffffffffffffffffffffffffff16146126325761263183826128e9565b5b5b600073ffffffffffffffffffffffffffffffffffffffff168273ffffffffffffffffffffffffffffffffffffffff1614156126765761267181612a56565b6126b5565b8273ffffffffffffffffffffffffffffffffffffffff168273ffffffffffffffffffffffffffffffffffffffff16146126b4576126b38282612b27565b5b5b505050565b600080823b905060008111915050919050565b600073ffffffffffffffffffffffffffffffffffffffff168273ffffffffffffffffffffffffffffffffffffffff16141561273d576040517f08c379a000000000000000000000000000000000000000000000000000000000815260040161273490614315565b60405180910390fd5b61274681611677565b15612786576040517f08c379a000000000000000000000000000000000000000000000000000000000815260040161277d90614381565b60405180910390fd5b612792600083836125a6565b6001606860008473ffffffffffffffffffffffffffffffffffffffff1673ffffffffffffffffffffffffffffffffffffffff16815260200190815260200160002060008282546127e291906140b6565b92505081905550816067600083815260200190815260200160002060006101000a81548173ffffffffffffffffffffffffffffffffffffffff021916908373ffffffffffffffffffffffffffffffffffffffff160217905550808273ffffffffffffffffffffffffffffffffffffffff16600073ffffffffffffffffffffffffffffffffffffffff167fddf252ad1be2c89b69c2b068fc378daa952ba7f163c4a11628f55a4df523b3ef60405160405180910390a45050565b505050565b609980549050609a600083815260200190815260200160002081905550609981908060018154018082558091505060019003906000526020600020016000909190919091505550565b600060016128f684610a63565b6129009190614082565b90506000609860008481526020019081526020016000205490508181146129e5576000609760008673ffffffffffffffffffffffffffffffffffffffff1673ffffffffffffffffffffffffffffffffffffffff168152602001908152602001600020600084815260200190815260200160002054905080609760008773ffffffffffffffffffffffffffffffffffffffff1673ffffffffffffffffffffffffffffffffffffffff168152602001908152602001600020600084815260200190815260200160002081905550816098600083815260200190815260200160002081905550505b6098600084815260200190815260200160002060009055609760008573ffffffffffffffffffffffffffffffffffffffff1673ffffffffffffffffffffffffffffffffffffffff16815260200190815260200160002060008381526020019081526020016000206000905550505050565b60006001609980549050612a6a9190614082565b90506000609a6000848152602001908152602001600020549050600060998381548110612a9a57612a99613921565b5b906000526020600020015490508060998381548110612abc57612abb613921565b5b906000526020600020018190555081609a600083815260200190815260200160002081905550609a6000858152602001908152602001600020600090556099805480612b0b57612b0a6143a1565b5b6001900381819060005260206000200160009055905550505050565b6000612b3283610a63565b905081609760008573ffffffffffffffffffffffffffffffffffffffff1673ffffffffffffffffffffffffffffffffffffffff168152602001908152602001600020600083815260200190815260200160002081905550806098600084815260200190815260200160002081905550505050565b828054612bb2906134f1565b90600052602060002090601f016020900481019282612bd45760008555612c1b565b82601f10612bed57805160ff1916838001178555612c1b565b82800160010185558215612c1b579182015b82811115612c1a578251825591602001919060010190612bff565b5b509050612c289190612c6c565b5090565b508054612c38906134f1565b6000825580601f10612c4a5750612c69565b601f016020900490600052602060002090810190612c689190612c6c565b5b50565b5b80821115612c85576000816000905550600101612c6d565b5090565b6000604051905090565b600080fd5b600080fd5b60007fffffffff0000000000000000000000000000000000000000000000000000000082169050919050565b612cd281612c9d565b8114612cdd57600080fd5b50565b600081359050612cef81612cc9565b92915050565b600060208284031215612d0b57612d0a612c93565b5b6000612d1984828501612ce0565b91505092915050565b60008115159050919050565b612d3781612d22565b82525050565b6000602082019050612d526000830184612d2e565b92915050565b600081519050919050565b600082825260208201905092915050565b60005b83811015612d92578082015181840152602081019050612d77565b83811115612da1576000848401525b50505050565b6000601f19601f8301169050919050565b6000612dc382612d58565b612dcd8185612d63565b9350612ddd818560208601612d74565b612de681612da7565b840191505092915050565b60006020820190508181036000830152612e0b8184612db8565b905092915050565b6000819050919050565b612e2681612e13565b8114612e3157600080fd5b50565b600081359050612e4381612e1d565b92915050565b600060208284031215612e5f57612e5e612c93565b5b6000612e6d84828501612e34565b91505092915050565b600073ffffffffffffffffffffffffffffffffffffffff82169050919050565b6000612ea182612e76565b9050919050565b612eb181612e96565b82525050565b6000602082019050612ecc6000830184612ea8565b92915050565b612edb81612e96565b8114612ee657600080fd5b50565b600081359050612ef881612ed2565b92915050565b60008060408385031215612f1557612f14612c93565b5b6000612f2385828601612ee9565b9250506020612f3485828601612e34565b9150509250929050565b612f4781612e13565b82525050565b6000602082019050612f626000830184612f3e565b92915050565b600080600060608486031215612f8157612f80612c93565b5b6000612f8f86828701612ee9565b9350506020612fa086828701612ee9565b9250506040612fb186828701612e34565b9150509250925092565b600060208284031215612fd157612fd0612c93565b5b6000612fdf84828501612ee9565b91505092915050565b600080fd5b600080fd5b7f4e487b7100000000000000000000000000000000000000000000000000000000600052604160045260246000fd5b61302a82612da7565b810181811067ffffffffffffffff8211171561304957613048612ff2565b5b80604052505050565b600061305c612c89565b90506130688282613021565b919050565b600067ffffffffffffffff82111561308857613087612ff2565b5b61309182612da7565b9050602081019050919050565b82818337600083830152505050565b60006130c06130bb8461306d565b613052565b9050828152602081018484840111156130dc576130db612fed565b5b6130e784828561309e565b509392505050565b600082601f83011261310457613103612fe8565b5b81356131148482602086016130ad565b91505092915050565b60008060006060848603121561313657613135612c93565b5b600084013567ffffffffffffffff81111561315457613153612c98565b5b613160868287016130ef565b935050602084013567ffffffffffffffff81111561318157613180612c98565b5b61318d868287016130ef565b925050604084013567ffffffffffffffff8111156131ae576131ad612c98565b5b6131ba868287016130ef565b9150509250925092565b6131cd81612d22565b81146131d857600080fd5b50565b6000813590506131ea816131c4565b92915050565b6000806040838503121561320757613206612c93565b5b600061321585828601612ee9565b9250506020613226858286016131db565b9150509250929050565b600067ffffffffffffffff82111561324b5761324a612ff2565b5b61325482612da7565b9050602081019050919050565b600061327461326f84613230565b613052565b9050828152602081018484840111156132905761328f612fed565b5b61329b84828561309e565b509392505050565b600082601f8301126132b8576132b7612fe8565b5b81356132c8848260208601613261565b91505092915050565b600080600080608085870312156132eb576132ea612c93565b5b60006132f987828801612ee9565b945050602061330a87828801612ee9565b935050604061331b87828801612e34565b925050606085013567ffffffffffffffff81111561333c5761333b612c98565b5b613348878288016132a3565b91505092959194509250565b60006020828403121561336a57613369612c93565b5b600082013567ffffffffffffffff81111561338857613387612c98565b5b613394848285016130ef565b91505092915050565b6000806000606084860312156133b6576133b5612c93565b5b600084013567ffffffffffffffff8111156133d4576133d3612c98565b5b6133e0868287016130ef565b935050602084013567ffffffffffffffff81111561340157613400612c98565b5b61340d868287016130ef565b925050604061341e86828701612ee9565b9150509250925092565b600060808201905081810360008301526134428187612db8565b905081810360208301526134568186612db8565b9050818103604083015261346a8185612db8565b90506134796060830184612d2e565b95945050505050565b6000806040838503121561349957613498612c93565b5b60006134a785828601612ee9565b92505060206134b885828601612ee9565b9150509250929050565b7f4e487b7100000000000000000000000000000000000000000000000000000000600052602260045260246000fd5b6000600282049050600182168061350957607f821691505b6020821081141561351d5761351c6134c2565b5b50919050565b7f4552433732313a20617070726f76656420717565727920666f72206e6f6e657860008201527f697374656e7420746f6b656e0000000000000000000000000000000000000000602082015250565b600061357f602c83612d63565b915061358a82613523565b604082019050919050565b600060208201905081810360008301526135ae81613572565b9050919050565b7f4552433732313a20617070726f76616c20746f2063757272656e74206f776e6560008201527f7200000000000000000000000000000000000000000000000000000000000000602082015250565b6000613611602183612d63565b915061361c826135b5565b604082019050919050565b6000602082019050818103600083015261364081613604565b9050919050565b7f4552433732313a20617070726f76652063616c6c6572206973206e6f74206f7760008201527f6e6572206e6f7220617070726f76656420666f7220616c6c0000000000000000602082015250565b60006136a3603883612d63565b91506136ae82613647565b604082019050919050565b600060208201905081810360008301526136d281613696565b9050919050565b7f4552433732313a207472616e736665722063616c6c6572206973206e6f74206f60008201527f776e6572206e6f7220617070726f766564000000000000000000000000000000602082015250565b6000613735603183612d63565b9150613740826136d9565b604082019050919050565b6000602082019050818103600083015261376481613728565b9050919050565b7f455243373231456e756d657261626c653a206f776e657220696e646578206f7560008201527f74206f6620626f756e6473000000000000000000000000000000000000000000602082015250565b60006137c7602b83612d63565b91506137d28261376b565b604082019050919050565b600060208201905081810360008301526137f6816137ba565b9050919050565b7f4552433732314275726e61626c653a2063616c6c6572206973206e6f74206f7760008201527f6e6572206e6f7220617070726f76656400000000000000000000000000000000602082015250565b6000613859603083612d63565b9150613864826137fd565b604082019050919050565b600060208201905081810360008301526138888161384c565b9050919050565b7f455243373231456e756d657261626c653a20676c6f62616c20696e646578206f60008201527f7574206f6620626f756e64730000000000000000000000000000000000000000602082015250565b60006138eb602c83612d63565b91506138f68261388f565b604082019050919050565b6000602082019050818103600083015261391a816138de565b9050919050565b7f4e487b7100000000000000000000000000000000000000000000000000000000600052603260045260246000fd5b7f4552433732313a206f776e657220717565727920666f72206e6f6e657869737460008201527f656e7420746f6b656e0000000000000000000000000000000000000000000000602082015250565b60006139ac602983612d63565b91506139b782613950565b604082019050919050565b600060208201905081810360008301526139db8161399f565b9050919050565b7f4552433732313a2062616c616e636520717565727920666f7220746865207a6560008201527f726f206164647265737300000000000000000000000000000000000000000000602082015250565b6000613a3e602a83612d63565b9150613a49826139e2565b604082019050919050565b60006020820190508181036000830152613a6d81613a31565b9050919050565b7f4f776e61626c653a2063616c6c6572206973206e6f7420746865206f776e6572600082015250565b6000613aaa602083612d63565b9150613ab582613a74565b602082019050919050565b60006020820190508181036000830152613ad981613a9d565b9050919050565b600081905092915050565b6000613af682612d58565b613b008185613ae0565b9350613b10818560208601612d74565b80840191505092915050565b6000613b288284613aeb565b915081905092915050565b7f45524337323155524953746f726167653a2055524920717565727920666f722060008201527f6e6f6e6578697374656e7420746f6b656e000000000000000000000000000000602082015250565b6000613b8f603183612d63565b9150613b9a82613b33565b604082019050919050565b60006020820190508181036000830152613bbe81613b82565b9050919050565b6000613bd18285613aeb565b9150613bdd8284613aeb565b91508190509392505050565b7f4f776e61626c653a206e6577206f776e657220697320746865207a65726f206160008201527f6464726573730000000000000000000000000000000000000000000000000000602082015250565b6000613c45602683612d63565b9150613c5082613be9565b604082019050919050565b60006020820190508181036000830152613c7481613c38565b9050919050565b7f4552433732313a206f70657261746f7220717565727920666f72206e6f6e657860008201527f697374656e7420746f6b656e0000000000000000000000000000000000000000602082015250565b6000613cd7602c83612d63565b9150613ce282613c7b565b604082019050919050565b60006020820190508181036000830152613d0681613cca565b9050919050565b7f4552433732313a20617070726f766520746f2063616c6c657200000000000000600082015250565b6000613d43601983612d63565b9150613d4e82613d0d565b602082019050919050565b60006020820190508181036000830152613d7281613d36565b9050919050565b7f4552433732313a207472616e7366657220746f206e6f6e20455243373231526560008201527f63656976657220696d706c656d656e7465720000000000000000000000000000602082015250565b6000613dd5603283612d63565b9150613de082613d79565b604082019050919050565b60006020820190508181036000830152613e0481613dc8565b9050919050565b7f4552433732314d657461646174613a2055524920717565727920666f72206e6f60008201527f6e6578697374656e7420746f6b656e0000000000000000000000000000000000602082015250565b6000613e67602f83612d63565b9150613e7282613e0b565b604082019050919050565b60006020820190508181036000830152613e9681613e5a565b9050919050565b7f45524337323155524953746f726167653a2055524920736574206f66206e6f6e60008201527f6578697374656e7420746f6b656e000000000000000000000000000000000000602082015250565b6000613ef9602e83612d63565b9150613f0482613e9d565b604082019050919050565b60006020820190508181036000830152613f2881613eec565b9050919050565b7f4552433732313a207472616e73666572206f6620746f6b656e2074686174206960008201527f73206e6f74206f776e0000000000000000000000000000000000000000000000602082015250565b6000613f8b602983612d63565b9150613f9682613f2f565b604082019050919050565b60006020820190508181036000830152613fba81613f7e565b9050919050565b7f4552433732313a207472616e7366657220746f20746865207a65726f2061646460008201527f7265737300000000000000000000000000000000000000000000000000000000602082015250565b600061401d602483612d63565b915061402882613fc1565b604082019050919050565b6000602082019050818103600083015261404c81614010565b9050919050565b7f4e487b7100000000000000000000000000000000000000000000000000000000600052601160045260246000fd5b600061408d82612e13565b915061409883612e13565b9250828210156140ab576140aa614053565b5b828203905092915050565b60006140c182612e13565b91506140cc83612e13565b9250827fffffffffffffffffffffffffffffffffffffffffffffffffffffffffffffffff0382111561410157614100614053565b5b828201905092915050565b600081519050919050565b600082825260208201905092915050565b60006141338261410c565b61413d8185614117565b935061414d818560208601612d74565b61415681612da7565b840191505092915050565b60006080820190506141766000830187612ea8565b6141836020830186612ea8565b6141906040830185612f3e565b81810360608301526141a28184614128565b905095945050505050565b6000815190506141bc81612cc9565b92915050565b6000602082840312156141d8576141d7612c93565b5b60006141e6848285016141ad565b91505092915050565b60006141fa82612e13565b91507fffffffffffffffffffffffffffffffffffffffffffffffffffffffffffffffff82141561422d5761422c614053565b5b600182019050919050565b7f4e487b7100000000000000000000000000000000000000000000000000000000600052601260045260246000fd5b600061427282612e13565b915061427d83612e13565b92508261428d5761428c614238565b5b828204905092915050565b60006142a382612e13565b91506142ae83612e13565b9250826142be576142bd614238565b5b828206905092915050565b7f4552433732313a206d696e7420746f20746865207a65726f2061646472657373600082015250565b60006142ff602083612d63565b915061430a826142c9565b602082019050919050565b6000602082019050818103600083015261432e816142f2565b9050919050565b7f4552433732313a20746f6b656e20616c7265616479206d696e74656400000000600082015250565b600061436b601c83612d63565b915061437682614335565b602082019050919050565b6000602082019050818103600083015261439a8161435e565b9050919050565b7f4e487b7100000000000000000000000000000000000000000000000000000000600052603160045260246000fdfea2646970667358221220b1ba7680e41445fc37ffcfe42e38a3e65412ed1462d309db7327b681dd14016e64736f6c634300080a0033",
  "immutableReferences": {},
  "source": "// SPDX-License-Identifier: MIT\npragma solidity ^0.8.0;\n\nimport \"@openzeppelin/contracts-upgradeable/token/ERC721/extensions/ERC721URIStorageUpgradeable.sol\";\nimport \"@openzeppelin/contracts-upgradeable/token/ERC721/extensions/ERC721BurnableUpgradeable.sol\";\nimport \"@openzeppelin/contracts-upgradeable/token/ERC721/extensions/ERC721EnumerableUpgradeable.sol\";\nimport \"@openzeppelin/contracts-upgradeable/utils/CountersUpgradeable.sol\";\nimport \"@openzeppelin/contracts-upgradeable/access/OwnableUpgradeable.sol\";\n\ncontract Achievements is ERC721EnumerableUpgradeable, OwnableUpgradeable {\n    using CountersUpgradeable for CountersUpgradeable.Counter;\n    CountersUpgradeable.Counter private _tokenIds;\n\n    struct Achievement {\n        string name;\n        string image;\n        string description;\n        bool isActive;\n    }\n\n    mapping(string => Achievement) public nameToAchievements;\n\n    // Optional mapping for token URIs\n    mapping(uint256 => string) private _tokenURIs;\n\n    mapping(uint256 => string) public tokenIdToAchievementName;\n\n    function addAchievement(\n        string memory image,\n        string memory name,\n        string memory description\n    ) public onlyOwner {\n        if (nameToAchievements[name].isActive != true) {\n            // Achievement with similar name does not exist\n            nameToAchievements[name] = Achievement({\n                image: image,\n                name: name,\n                description: description,\n                isActive: true\n            });\n        } else {\n            // Call update\n            _updateAchievement(name, image, description, true);\n        }\n    }\n\n    function removeAchievement(string memory name) public onlyOwner {\n        if (nameToAchievements[name].isActive) {\n            nameToAchievements[name].isActive = false;\n        }\n    }\n\n    function _updateAchievement(\n        string memory name,\n        string memory image,\n        string memory description,\n        bool isActive\n    ) internal onlyOwner {\n        nameToAchievements[name].image = image;\n        nameToAchievements[name].description = description;\n        nameToAchievements[name].isActive = isActive;\n    }\n\n    function mintAchievement(\n        string memory image,\n        string memory name,\n        address recipient\n    ) public onlyOwner returns (uint256) {\n        _tokenIds.increment();\n        uint256 newItemId = _tokenIds.current();\n        _safeMint(recipient, newItemId);\n        _setTokenURI(newItemId, image);\n        tokenIdToAchievementName[newItemId] = name;\n        return newItemId;\n    }\n\n    // function setLandName(uint256 tokenId, string memory _landName) public {\n    //     require(\n    //         _exists(tokenId),\n    //         \"ERC721URIStorage: landName set of nonexistent token\"\n    //     );\n    //     tokenNames[tokenId] = _landName;\n    // }\n\n    // function changeName(string memory name) public {\n    //     names[msg.sender] = name;\n    // }\n\n    /// @notice Builds a building on top of a land, burning the Land NFT\n    /// @dev Explain to a developer any extra details\n    /// @param _building a parameter just like in doxygen (must be followed by parameter name)\n\n    /**\n     * @dev See {IERC721Metadata-tokenURI}.\n     */\n    function tokenURI(uint256 tokenId)\n        public\n        view\n        virtual\n        override\n        returns (string memory)\n    {\n        require(\n            _exists(tokenId),\n            \"ERC721URIStorage: URI query for nonexistent token\"\n        );\n\n        string memory _tokenURI = _tokenURIs[tokenId];\n        string memory base = _baseURI();\n\n        // If there is no base URI, return the token URI.\n        if (bytes(base).length == 0) {\n            return _tokenURI;\n        }\n        // If both are set, concatenate the baseURI and tokenURI (via abi.encodePacked).\n        if (bytes(_tokenURI).length > 0) {\n            return string(abi.encodePacked(base, _tokenURI));\n        }\n\n        return super.tokenURI(tokenId);\n    }\n\n    function burn(uint256 tokenId) public virtual {\n        //solhint-disable-next-line max-line-length\n        require(\n            _isApprovedOrOwner(_msgSender(), tokenId),\n            \"ERC721Burnable: caller is not owner nor approved\"\n        );\n        _burn(tokenId);\n    }\n\n    /**\n     * @dev Sets `_tokenURI` as the tokenURI of `tokenId`.\n     *\n     * Requirements:\n     *\n     * - `tokenId` must exist.\n     */\n    function _setTokenURI(uint256 tokenId, string memory _tokenURI)\n        internal\n        virtual\n    {\n        require(\n            _exists(tokenId),\n            \"ERC721URIStorage: URI set of nonexistent token\"\n        );\n        _tokenURIs[tokenId] = _tokenURI;\n    }\n\n    /**\n     * @dev Destroys `tokenId`.\n     * The approval is cleared when the token is burned.\n     *\n     * Requirements:\n     *\n     * - `tokenId` must exist.\n     *\n     * Emits a {Transfer} event.\n     */\n    function _burn(uint256 tokenId) internal virtual override {\n        super._burn(tokenId);\n\n        if (bytes(_tokenURIs[tokenId]).length != 0) {\n            delete _tokenURIs[tokenId];\n        }\n    }\n\n    function _transfer(\n        address from,\n        address to,\n        uint256 tokenId\n    ) internal override onlyOwner {\n        super._transfer(from, to, tokenId);\n    }\n}\n",
  "sourcePath": "/home/darovip/projects/mayland_labs/shattered-contracts/contracts/Achievements.sol",
  "compiler": {
    "name": "solc",
    "version": "0.8.10+commit.fc410830.Emscripten.clang"
  },
  "schemaVersion": "3.4.4",
  "updatedAt": "2022-01-14T03:41:27.388Z",
  "devdoc": {
    "kind": "dev",
    "methods": {
      "approve(address,uint256)": {
        "details": "See {IERC721-approve}."
      },
      "balanceOf(address)": {
        "details": "See {IERC721-balanceOf}."
      },
      "getApproved(uint256)": {
        "details": "See {IERC721-getApproved}."
      },
      "isApprovedForAll(address,address)": {
        "details": "See {IERC721-isApprovedForAll}."
      },
      "name()": {
        "details": "See {IERC721Metadata-name}."
      },
      "owner()": {
        "details": "Returns the address of the current owner."
      },
      "ownerOf(uint256)": {
        "details": "See {IERC721-ownerOf}."
      },
      "renounceOwnership()": {
        "details": "Leaves the contract without owner. It will not be possible to call `onlyOwner` functions anymore. Can only be called by the current owner. NOTE: Renouncing ownership will leave the contract without an owner, thereby removing any functionality that is only available to the owner."
      },
      "safeTransferFrom(address,address,uint256)": {
        "details": "See {IERC721-safeTransferFrom}."
      },
      "safeTransferFrom(address,address,uint256,bytes)": {
        "details": "See {IERC721-safeTransferFrom}."
      },
      "setApprovalForAll(address,bool)": {
        "details": "See {IERC721-setApprovalForAll}."
      },
      "supportsInterface(bytes4)": {
        "details": "See {IERC165-supportsInterface}."
      },
      "symbol()": {
        "details": "See {IERC721Metadata-symbol}."
      },
      "tokenByIndex(uint256)": {
        "details": "See {IERC721Enumerable-tokenByIndex}."
      },
      "tokenOfOwnerByIndex(address,uint256)": {
        "details": "See {IERC721Enumerable-tokenOfOwnerByIndex}."
      },
      "tokenURI(uint256)": {
        "details": "See {IERC721Metadata-tokenURI}."
      },
      "totalSupply()": {
        "details": "See {IERC721Enumerable-totalSupply}."
      },
      "transferFrom(address,address,uint256)": {
        "details": "See {IERC721-transferFrom}."
      },
      "transferOwnership(address)": {
        "details": "Transfers ownership of the contract to a new account (`newOwner`). Can only be called by the current owner."
      }
    },
    "version": 1
  },
  "userdoc": {
    "kind": "user",
    "methods": {},
    "version": 1
  }
}