{
  "contractName": "Lands",
  "abi": [
    {
      "inputs": [],
      "stateMutability": "nonpayable",
      "type": "constructor"
    },
    {
      "anonymous": false,
      "inputs": [
        {
          "indexed": true,
          "internalType": "address",
          "name": "owner",
          "type": "address"
        },
        {
          "indexed": true,
          "internalType": "address",
          "name": "approved",
          "type": "address"
        },
        {
          "indexed": true,
          "internalType": "uint256",
          "name": "tokenId",
          "type": "uint256"
        }
      ],
      "name": "Approval",
      "type": "event"
    },
    {
      "anonymous": false,
      "inputs": [
        {
          "indexed": true,
          "internalType": "address",
          "name": "owner",
          "type": "address"
        },
        {
          "indexed": true,
          "internalType": "address",
          "name": "operator",
          "type": "address"
        },
        {
          "indexed": false,
          "internalType": "bool",
          "name": "approved",
          "type": "bool"
        }
      ],
      "name": "ApprovalForAll",
      "type": "event"
    },
    {
      "anonymous": false,
      "inputs": [
        {
          "indexed": true,
          "internalType": "address",
          "name": "previousOwner",
          "type": "address"
        },
        {
          "indexed": true,
          "internalType": "address",
          "name": "newOwner",
          "type": "address"
        }
      ],
      "name": "OwnershipTransferred",
      "type": "event"
    },
    {
      "anonymous": false,
      "inputs": [
        {
          "indexed": true,
          "internalType": "address",
          "name": "from",
          "type": "address"
        },
        {
          "indexed": true,
          "internalType": "address",
          "name": "to",
          "type": "address"
        },
        {
          "indexed": true,
          "internalType": "uint256",
          "name": "tokenId",
          "type": "uint256"
        }
      ],
      "name": "Transfer",
      "type": "event"
    },
    {
      "inputs": [
        {
          "internalType": "address",
          "name": "to",
          "type": "address"
        },
        {
          "internalType": "uint256",
          "name": "tokenId",
          "type": "uint256"
        }
      ],
      "name": "approve",
      "outputs": [],
      "stateMutability": "nonpayable",
      "type": "function"
    },
    {
      "inputs": [
        {
          "internalType": "address",
          "name": "owner",
          "type": "address"
        }
      ],
      "name": "balanceOf",
      "outputs": [
        {
          "internalType": "uint256",
          "name": "",
          "type": "uint256"
        }
      ],
      "stateMutability": "view",
      "type": "function"
    },
    {
      "inputs": [
        {
          "internalType": "uint256",
          "name": "tokenId",
          "type": "uint256"
        }
      ],
      "name": "getApproved",
      "outputs": [
        {
          "internalType": "address",
          "name": "",
          "type": "address"
        }
      ],
      "stateMutability": "view",
      "type": "function"
    },
    {
      "inputs": [
        {
          "internalType": "uint256",
          "name": "",
          "type": "uint256"
        }
      ],
      "name": "indexToLand",
      "outputs": [
        {
          "internalType": "uint256",
          "name": "tokenId",
          "type": "uint256"
        },
        {
          "internalType": "string",
          "name": "model",
          "type": "string"
        },
        {
          "internalType": "uint256",
          "name": "rarity",
          "type": "uint256"
        },
        {
          "internalType": "enum LandType",
          "name": "landType",
          "type": "uint8"
        }
      ],
      "stateMutability": "view",
      "type": "function"
    },
    {
      "inputs": [
        {
          "internalType": "address",
          "name": "owner",
          "type": "address"
        },
        {
          "internalType": "address",
          "name": "operator",
          "type": "address"
        }
      ],
      "name": "isApprovedForAll",
      "outputs": [
        {
          "internalType": "bool",
          "name": "",
          "type": "bool"
        }
      ],
      "stateMutability": "view",
      "type": "function"
    },
    {
      "inputs": [],
      "name": "name",
      "outputs": [
        {
          "internalType": "string",
          "name": "",
          "type": "string"
        }
      ],
      "stateMutability": "view",
      "type": "function"
    },
    {
      "inputs": [
        {
          "internalType": "address",
          "name": "",
          "type": "address"
        }
      ],
      "name": "names",
      "outputs": [
        {
          "internalType": "string",
          "name": "",
          "type": "string"
        }
      ],
      "stateMutability": "view",
      "type": "function"
    },
    {
      "inputs": [],
      "name": "owner",
      "outputs": [
        {
          "internalType": "address",
          "name": "",
          "type": "address"
        }
      ],
      "stateMutability": "view",
      "type": "function"
    },
    {
      "inputs": [
        {
          "internalType": "uint256",
          "name": "tokenId",
          "type": "uint256"
        }
      ],
      "name": "ownerOf",
      "outputs": [
        {
          "internalType": "address",
          "name": "",
          "type": "address"
        }
      ],
      "stateMutability": "view",
      "type": "function"
    },
    {
      "inputs": [],
      "name": "renounceOwnership",
      "outputs": [],
      "stateMutability": "nonpayable",
      "type": "function"
    },
    {
      "inputs": [
        {
          "internalType": "address",
          "name": "from",
          "type": "address"
        },
        {
          "internalType": "address",
          "name": "to",
          "type": "address"
        },
        {
          "internalType": "uint256",
          "name": "tokenId",
          "type": "uint256"
        }
      ],
      "name": "safeTransferFrom",
      "outputs": [],
      "stateMutability": "nonpayable",
      "type": "function"
    },
    {
      "inputs": [
        {
          "internalType": "address",
          "name": "from",
          "type": "address"
        },
        {
          "internalType": "address",
          "name": "to",
          "type": "address"
        },
        {
          "internalType": "uint256",
          "name": "tokenId",
          "type": "uint256"
        },
        {
          "internalType": "bytes",
          "name": "_data",
          "type": "bytes"
        }
      ],
      "name": "safeTransferFrom",
      "outputs": [],
      "stateMutability": "nonpayable",
      "type": "function"
    },
    {
      "inputs": [
        {
          "internalType": "address",
          "name": "operator",
          "type": "address"
        },
        {
          "internalType": "bool",
          "name": "approved",
          "type": "bool"
        }
      ],
      "name": "setApprovalForAll",
      "outputs": [],
      "stateMutability": "nonpayable",
      "type": "function"
    },
    {
      "inputs": [
        {
          "internalType": "bytes4",
          "name": "interfaceId",
          "type": "bytes4"
        }
      ],
      "name": "supportsInterface",
      "outputs": [
        {
          "internalType": "bool",
          "name": "",
          "type": "bool"
        }
      ],
      "stateMutability": "view",
      "type": "function"
    },
    {
      "inputs": [],
      "name": "symbol",
      "outputs": [
        {
          "internalType": "string",
          "name": "",
          "type": "string"
        }
      ],
      "stateMutability": "view",
      "type": "function"
    },
    {
      "inputs": [
        {
          "internalType": "uint256",
          "name": "index",
          "type": "uint256"
        }
      ],
      "name": "tokenByIndex",
      "outputs": [
        {
          "internalType": "uint256",
          "name": "",
          "type": "uint256"
        }
      ],
      "stateMutability": "view",
      "type": "function"
    },
    {
      "inputs": [
        {
          "internalType": "address",
          "name": "owner",
          "type": "address"
        },
        {
          "internalType": "uint256",
          "name": "index",
          "type": "uint256"
        }
      ],
      "name": "tokenOfOwnerByIndex",
      "outputs": [
        {
          "internalType": "uint256",
          "name": "",
          "type": "uint256"
        }
      ],
      "stateMutability": "view",
      "type": "function"
    },
    {
      "inputs": [],
      "name": "totalSupply",
      "outputs": [
        {
          "internalType": "uint256",
          "name": "",
          "type": "uint256"
        }
      ],
      "stateMutability": "view",
      "type": "function"
    },
    {
      "inputs": [
        {
          "internalType": "address",
          "name": "from",
          "type": "address"
        },
        {
          "internalType": "address",
          "name": "to",
          "type": "address"
        },
        {
          "internalType": "uint256",
          "name": "tokenId",
          "type": "uint256"
        }
      ],
      "name": "transferFrom",
      "outputs": [],
      "stateMutability": "nonpayable",
      "type": "function"
    },
    {
      "inputs": [
        {
          "internalType": "address",
          "name": "newOwner",
          "type": "address"
        }
      ],
      "name": "transferOwnership",
      "outputs": [],
      "stateMutability": "nonpayable",
      "type": "function"
    },
    {
      "inputs": [
        {
          "internalType": "uint256",
          "name": "rarity",
          "type": "uint256"
        },
        {
          "internalType": "enum LandType",
          "name": "landtype",
          "type": "uint8"
        }
      ],
      "name": "mintLand",
      "outputs": [
        {
          "internalType": "uint256",
          "name": "",
          "type": "uint256"
        }
      ],
      "stateMutability": "nonpayable",
      "type": "function"
    },
    {
      "inputs": [],
      "name": "addLandType",
      "outputs": [],
      "stateMutability": "nonpayable",
      "type": "function"
    },
    {
      "inputs": [
        {
          "internalType": "string",
          "name": "name",
          "type": "string"
        }
      ],
      "name": "changeName",
      "outputs": [],
      "stateMutability": "nonpayable",
      "type": "function"
    },
    {
      "inputs": [
        {
          "internalType": "uint256",
          "name": "_building",
          "type": "uint256"
        }
      ],
      "name": "build",
      "outputs": [],
      "stateMutability": "nonpayable",
      "type": "function"
    },
    {
      "inputs": [
        {
          "internalType": "uint256",
          "name": "tokenId",
          "type": "uint256"
        }
      ],
      "name": "tokenURI",
      "outputs": [
        {
          "internalType": "string",
          "name": "",
          "type": "string"
        }
      ],
      "stateMutability": "view",
      "type": "function"
    },
    {
      "inputs": [
        {
          "internalType": "uint256",
          "name": "tokenId",
          "type": "uint256"
        }
      ],
      "name": "burn",
      "outputs": [],
      "stateMutability": "nonpayable",
      "type": "function"
    }
  ],
  "bytecode": "0x60806040523480156200001157600080fd5b506040518060400160405280600481526020017f4c616e64000000000000000000000000000000000000000000000000000000008152506040518060400160405280600481526020017f4c414e4400000000000000000000000000000000000000000000000000000000815250816000908051906020019062000096929190620001a6565b508060019080519060200190620000af929190620001a6565b505050620000d2620000c6620000d860201b60201c565b620000e060201b60201c565b620002bb565b600033905090565b6000600a60009054906101000a900473ffffffffffffffffffffffffffffffffffffffff16905081600a60006101000a81548173ffffffffffffffffffffffffffffffffffffffff021916908373ffffffffffffffffffffffffffffffffffffffff1602179055508173ffffffffffffffffffffffffffffffffffffffff168173ffffffffffffffffffffffffffffffffffffffff167f8be0079c531659141344cd1fd0a4f28419497f9722a3daafe3b4186f6b6457e060405160405180910390a35050565b828054620001b49062000285565b90600052602060002090601f016020900481019282620001d8576000855562000224565b82601f10620001f357805160ff191683800117855562000224565b8280016001018555821562000224579182015b828111156200022357825182559160200191906001019062000206565b5b50905062000233919062000237565b5090565b5b808211156200025257600081600090555060010162000238565b5090565b7f4e487b7100000000000000000000000000000000000000000000000000000000600052602260045260246000fd5b600060028204905060018216806200029e57607f821691505b60208210811415620002b557620002b462000256565b5b50919050565b613e3c80620002cb6000396000f3fe608060405234801561001057600080fd5b506004361061018e5760003560e01c80636008c81b116100de57806395d89b4111610097578063b88d4fde11610071578063b88d4fde14610496578063c87b56dd146104b2578063e985e9c5146104e2578063f2fde38b146105125761018e565b806395d89b411461042c578063a22cb4651461044a578063b082fcfe146104665761018e565b80636008c81b146103555780636352211e1461038857806370a08231146103b8578063715018a6146103e857806377fc2b19146103f25780638da5cb5b1461040e5761018e565b8063270592b51161014b57806342966c681161012557806342966c68146102bd5780634f6ccce7146102d95780635353a2d8146103095780635cf3d346146103255761018e565b8063270592b5146102675780632f745c591461027157806342842e0e146102a15761018e565b806301ffc9a71461019357806306fdde03146101c3578063081812fc146101e1578063095ea7b31461021157806318160ddd1461022d57806323b872dd1461024b575b600080fd5b6101ad60048036038101906101a89190612838565b61052e565b6040516101ba9190612880565b60405180910390f35b6101cb6105a8565b6040516101d89190612934565b60405180910390f35b6101fb60048036038101906101f6919061298c565b61063a565b60405161020891906129fa565b60405180910390f35b61022b60048036038101906102269190612a41565b6106bf565b005b6102356107d7565b6040516102429190612a90565b60405180910390f35b61026560048036038101906102609190612aab565b6107e4565b005b61026f610844565b005b61028b60048036038101906102869190612a41565b6108c2565b6040516102989190612a90565b60405180910390f35b6102bb60048036038101906102b69190612aab565b610967565b005b6102d760048036038101906102d2919061298c565b610987565b005b6102f360048036038101906102ee919061298c565b6109e3565b6040516103009190612a90565b60405180910390f35b610323600480360381019061031e9190612c33565b610a54565b005b61033f600480360381019061033a9190612c7c565b610aab565b60405161034c9190612934565b60405180910390f35b61036f600480360381019061036a919061298c565b610b4b565b60405161037f9493929190612d20565b60405180910390f35b6103a2600480360381019061039d919061298c565b610c10565b6040516103af91906129fa565b60405180910390f35b6103d260048036038101906103cd9190612c7c565b610cc2565b6040516103df9190612a90565b60405180910390f35b6103f0610d7a565b005b61040c6004803603810190610407919061298c565b610e02565b005b610416610e05565b60405161042391906129fa565b60405180910390f35b610434610e2f565b6040516104419190612934565b60405180910390f35b610464600480360381019061045f9190612d98565b610ec1565b005b610480600480360381019061047b9190612dfd565b610ed7565b60405161048d9190612a90565b60405180910390f35b6104b060048036038101906104ab9190612ede565b610fbf565b005b6104cc60048036038101906104c7919061298c565b611021565b6040516104d99190612934565b60405180910390f35b6104fc60048036038101906104f79190612f61565b611173565b6040516105099190612880565b60405180910390f35b61052c60048036038101906105279190612c7c565b611207565b005b60007f780e9d63000000000000000000000000000000000000000000000000000000007bffffffffffffffffffffffffffffffffffffffffffffffffffffffff1916827bffffffffffffffffffffffffffffffffffffffffffffffffffffffff191614806105a157506105a0826112ff565b5b9050919050565b6060600080546105b790612fd0565b80601f01602080910402602001604051908101604052809291908181526020018280546105e390612fd0565b80156106305780601f1061060557610100808354040283529160200191610630565b820191906000526020600020905b81548152906001019060200180831161061357829003601f168201915b5050505050905090565b6000610645826113e1565b610684576040517f08c379a000000000000000000000000000000000000000000000000000000000815260040161067b90613074565b60405180910390fd5b6004600083815260200190815260200160002060009054906101000a900473ffffffffffffffffffffffffffffffffffffffff169050919050565b60006106ca82610c10565b90508073ffffffffffffffffffffffffffffffffffffffff168373ffffffffffffffffffffffffffffffffffffffff16141561073b576040517f08c379a000000000000000000000000000000000000000000000000000000000815260040161073290613106565b60405180910390fd5b8073ffffffffffffffffffffffffffffffffffffffff1661075a61144d565b73ffffffffffffffffffffffffffffffffffffffff16148061078957506107888161078361144d565b611173565b5b6107c8576040517f08c379a00000000000000000000000000000000000000000000000000000000081526004016107bf90613198565b60405180910390fd5b6107d28383611455565b505050565b6000600880549050905090565b6107f56107ef61144d565b8261150e565b610834576040517f08c379a000000000000000000000000000000000000000000000000000000000815260040161082b9061322a565b60405180910390fd5b61083f8383836115ec565b505050565b61084c61144d565b73ffffffffffffffffffffffffffffffffffffffff1661086a610e05565b73ffffffffffffffffffffffffffffffffffffffff16146108c0576040517f08c379a00000000000000000000000000000000000000000000000000000000081526004016108b790613296565b60405180910390fd5b565b60006108cd83610cc2565b821061090e576040517f08c379a000000000000000000000000000000000000000000000000000000000815260040161090590613328565b60405180910390fd5b600660008473ffffffffffffffffffffffffffffffffffffffff1673ffffffffffffffffffffffffffffffffffffffff168152602001908152602001600020600083815260200190815260200160002054905092915050565b61098283838360405180602001604052806000815250610fbf565b505050565b61099861099261144d565b8261150e565b6109d7576040517f08c379a00000000000000000000000000000000000000000000000000000000081526004016109ce906133ba565b60405180910390fd5b6109e081611848565b50565b60006109ed6107d7565b8210610a2e576040517f08c379a0000000000000000000000000000000000000000000000000000000008152600401610a259061344c565b60405180910390fd5b60088281548110610a4257610a4161346c565b5b90600052602060002001549050919050565b80600c60003373ffffffffffffffffffffffffffffffffffffffff1673ffffffffffffffffffffffffffffffffffffffff1681526020019081526020016000209080519060200190610aa79291906126e9565b5050565b600c6020528060005260406000206000915090508054610aca90612fd0565b80601f0160208091040260200160405190810160405280929190818152602001828054610af690612fd0565b8015610b435780601f10610b1857610100808354040283529160200191610b43565b820191906000526020600020905b815481529060010190602001808311610b2657829003601f168201915b505050505081565b600e602052806000526040600020600091509050806000015490806001018054610b7490612fd0565b80601f0160208091040260200160405190810160405280929190818152602001828054610ba090612fd0565b8015610bed5780601f10610bc257610100808354040283529160200191610bed565b820191906000526020600020905b815481529060010190602001808311610bd057829003601f168201915b5050505050908060020154908060030160009054906101000a900460ff16905084565b6000806002600084815260200190815260200160002060009054906101000a900473ffffffffffffffffffffffffffffffffffffffff169050600073ffffffffffffffffffffffffffffffffffffffff168173ffffffffffffffffffffffffffffffffffffffff161415610cb9576040517f08c379a0000000000000000000000000000000000000000000000000000000008152600401610cb09061350d565b60405180910390fd5b80915050919050565b60008073ffffffffffffffffffffffffffffffffffffffff168273ffffffffffffffffffffffffffffffffffffffff161415610d33576040517f08c379a0000000000000000000000000000000000000000000000000000000008152600401610d2a9061359f565b60405180910390fd5b600360008373ffffffffffffffffffffffffffffffffffffffff1673ffffffffffffffffffffffffffffffffffffffff168152602001908152602001600020549050919050565b610d8261144d565b73ffffffffffffffffffffffffffffffffffffffff16610da0610e05565b73ffffffffffffffffffffffffffffffffffffffff1614610df6576040517f08c379a0000000000000000000000000000000000000000000000000000000008152600401610ded90613296565b60405180910390fd5b610e00600061189b565b565b50565b6000600a60009054906101000a900473ffffffffffffffffffffffffffffffffffffffff16905090565b606060018054610e3e90612fd0565b80601f0160208091040260200160405190810160405280929190818152602001828054610e6a90612fd0565b8015610eb75780601f10610e8c57610100808354040283529160200191610eb7565b820191906000526020600020905b815481529060010190602001808311610e9a57829003601f168201915b5050505050905090565b610ed3610ecc61144d565b8383611961565b5050565b6000610ee3600b611ace565b6000610eef600b611ae4565b9050610efb3382611af2565b604051806080016040528082815260200160405180602001604052806000815250815260200160018152602001846002811115610f3b57610f3a612ca9565b5b815250600e6000838152602001908152602001600020600082015181600001556020820151816001019080519060200190610f779291906126e9565b506040820151816002015560608201518160030160006101000a81548160ff02191690836002811115610fad57610fac612ca9565b5b02179055509050508091505092915050565b610fd0610fca61144d565b8361150e565b61100f576040517f08c379a00000000000000000000000000000000000000000000000000000000081526004016110069061322a565b60405180910390fd5b61101b84848484611b10565b50505050565b606061102c826113e1565b61106b576040517f08c379a000000000000000000000000000000000000000000000000000000000815260040161106290613631565b60405180910390fd5b6000600d6000848152602001908152602001600020805461108b90612fd0565b80601f01602080910402602001604051908101604052809291908181526020018280546110b790612fd0565b80156111045780601f106110d957610100808354040283529160200191611104565b820191906000526020600020905b8154815290600101906020018083116110e757829003601f168201915b505050505090506000611115611b6c565b905060008151141561112b57819250505061116e565b60008251111561116057808260405160200161114892919061368d565b6040516020818303038152906040529250505061116e565b61116984611b83565b925050505b919050565b6000600560008473ffffffffffffffffffffffffffffffffffffffff1673ffffffffffffffffffffffffffffffffffffffff16815260200190815260200160002060008373ffffffffffffffffffffffffffffffffffffffff1673ffffffffffffffffffffffffffffffffffffffff16815260200190815260200160002060009054906101000a900460ff16905092915050565b61120f61144d565b73ffffffffffffffffffffffffffffffffffffffff1661122d610e05565b73ffffffffffffffffffffffffffffffffffffffff1614611283576040517f08c379a000000000000000000000000000000000000000000000000000000000815260040161127a90613296565b60405180910390fd5b600073ffffffffffffffffffffffffffffffffffffffff168173ffffffffffffffffffffffffffffffffffffffff1614156112f3576040517f08c379a00000000000000000000000000000000000000000000000000000000081526004016112ea90613723565b60405180910390fd5b6112fc8161189b565b50565b60007f80ac58cd000000000000000000000000000000000000000000000000000000007bffffffffffffffffffffffffffffffffffffffffffffffffffffffff1916827bffffffffffffffffffffffffffffffffffffffffffffffffffffffff191614806113ca57507f5b5e139f000000000000000000000000000000000000000000000000000000007bffffffffffffffffffffffffffffffffffffffffffffffffffffffff1916827bffffffffffffffffffffffffffffffffffffffffffffffffffffffff1916145b806113da57506113d982611c2a565b5b9050919050565b60008073ffffffffffffffffffffffffffffffffffffffff166002600084815260200190815260200160002060009054906101000a900473ffffffffffffffffffffffffffffffffffffffff1673ffffffffffffffffffffffffffffffffffffffff1614159050919050565b600033905090565b816004600083815260200190815260200160002060006101000a81548173ffffffffffffffffffffffffffffffffffffffff021916908373ffffffffffffffffffffffffffffffffffffffff160217905550808273ffffffffffffffffffffffffffffffffffffffff166114c883610c10565b73ffffffffffffffffffffffffffffffffffffffff167f8c5be1e5ebec7d5bd14f71427d1e84f3dd0314c0f7b2291e5b200ac8c7c3b92560405160405180910390a45050565b6000611519826113e1565b611558576040517f08c379a000000000000000000000000000000000000000000000000000000000815260040161154f906137b5565b60405180910390fd5b600061156383610c10565b90508073ffffffffffffffffffffffffffffffffffffffff168473ffffffffffffffffffffffffffffffffffffffff1614806115d257508373ffffffffffffffffffffffffffffffffffffffff166115ba8461063a565b73ffffffffffffffffffffffffffffffffffffffff16145b806115e357506115e28185611173565b5b91505092915050565b8273ffffffffffffffffffffffffffffffffffffffff1661160c82610c10565b73ffffffffffffffffffffffffffffffffffffffff1614611662576040517f08c379a000000000000000000000000000000000000000000000000000000000815260040161165990613847565b60405180910390fd5b600073ffffffffffffffffffffffffffffffffffffffff168273ffffffffffffffffffffffffffffffffffffffff1614156116d2576040517f08c379a00000000000000000000000000000000000000000000000000000000081526004016116c9906138d9565b60405180910390fd5b6116dd838383611c94565b6116e8600082611455565b6001600360008573ffffffffffffffffffffffffffffffffffffffff1673ffffffffffffffffffffffffffffffffffffffff16815260200190815260200160002060008282546117389190613928565b925050819055506001600360008473ffffffffffffffffffffffffffffffffffffffff1673ffffffffffffffffffffffffffffffffffffffff168152602001908152602001600020600082825461178f919061395c565b92505081905550816002600083815260200190815260200160002060006101000a81548173ffffffffffffffffffffffffffffffffffffffff021916908373ffffffffffffffffffffffffffffffffffffffff160217905550808273ffffffffffffffffffffffffffffffffffffffff168473ffffffffffffffffffffffffffffffffffffffff167fddf252ad1be2c89b69c2b068fc378daa952ba7f163c4a11628f55a4df523b3ef60405160405180910390a4505050565b61185181611da8565b6000600d6000838152602001908152602001600020805461187190612fd0565b90501461189857600d60008281526020019081526020016000206000611897919061276f565b5b50565b6000600a60009054906101000a900473ffffffffffffffffffffffffffffffffffffffff16905081600a60006101000a81548173ffffffffffffffffffffffffffffffffffffffff021916908373ffffffffffffffffffffffffffffffffffffffff1602179055508173ffffffffffffffffffffffffffffffffffffffff168173ffffffffffffffffffffffffffffffffffffffff167f8be0079c531659141344cd1fd0a4f28419497f9722a3daafe3b4186f6b6457e060405160405180910390a35050565b8173ffffffffffffffffffffffffffffffffffffffff168373ffffffffffffffffffffffffffffffffffffffff1614156119d0576040517f08c379a00000000000000000000000000000000000000000000000000000000081526004016119c7906139fe565b60405180910390fd5b80600560008573ffffffffffffffffffffffffffffffffffffffff1673ffffffffffffffffffffffffffffffffffffffff16815260200190815260200160002060008473ffffffffffffffffffffffffffffffffffffffff1673ffffffffffffffffffffffffffffffffffffffff16815260200190815260200160002060006101000a81548160ff0219169083151502179055508173ffffffffffffffffffffffffffffffffffffffff168373ffffffffffffffffffffffffffffffffffffffff167f17307eab39ab6107e8899845ad3d59bd9653f200f220920489ca2b5937696c3183604051611ac19190612880565b60405180910390a3505050565b6001816000016000828254019250508190555050565b600081600001549050919050565b611b0c828260405180602001604052806000815250611eb9565b5050565b611b1b8484846115ec565b611b2784848484611f14565b611b66576040517f08c379a0000000000000000000000000000000000000000000000000000000008152600401611b5d90613a90565b60405180910390fd5b50505050565b606060405180602001604052806000815250905090565b6060611b8e826113e1565b611bcd576040517f08c379a0000000000000000000000000000000000000000000000000000000008152600401611bc490613b22565b60405180910390fd5b6000611bd7611b6c565b90506000815111611bf75760405180602001604052806000815250611c22565b80611c018461209c565b604051602001611c1292919061368d565b6040516020818303038152906040525b915050919050565b60007f01ffc9a7000000000000000000000000000000000000000000000000000000007bffffffffffffffffffffffffffffffffffffffffffffffffffffffff1916827bffffffffffffffffffffffffffffffffffffffffffffffffffffffff1916149050919050565b611c9f8383836121fd565b600073ffffffffffffffffffffffffffffffffffffffff168373ffffffffffffffffffffffffffffffffffffffff161415611ce257611cdd81612202565b611d21565b8173ffffffffffffffffffffffffffffffffffffffff168373ffffffffffffffffffffffffffffffffffffffff1614611d2057611d1f838261224b565b5b5b600073ffffffffffffffffffffffffffffffffffffffff168273ffffffffffffffffffffffffffffffffffffffff161415611d6457611d5f816123b8565b611da3565b8273ffffffffffffffffffffffffffffffffffffffff168273ffffffffffffffffffffffffffffffffffffffff1614611da257611da18282612489565b5b5b505050565b6000611db382610c10565b9050611dc181600084611c94565b611dcc600083611455565b6001600360008373ffffffffffffffffffffffffffffffffffffffff1673ffffffffffffffffffffffffffffffffffffffff1681526020019081526020016000206000828254611e1c9190613928565b925050819055506002600083815260200190815260200160002060006101000a81549073ffffffffffffffffffffffffffffffffffffffff021916905581600073ffffffffffffffffffffffffffffffffffffffff168273ffffffffffffffffffffffffffffffffffffffff167fddf252ad1be2c89b69c2b068fc378daa952ba7f163c4a11628f55a4df523b3ef60405160405180910390a45050565b611ec38383612508565b611ed06000848484611f14565b611f0f576040517f08c379a0000000000000000000000000000000000000000000000000000000008152600401611f0690613a90565b60405180910390fd5b505050565b6000611f358473ffffffffffffffffffffffffffffffffffffffff166126d6565b1561208f578373ffffffffffffffffffffffffffffffffffffffff1663150b7a02611f5e61144d565b8786866040518563ffffffff1660e01b8152600401611f809493929190613b97565b6020604051808303816000875af1925050508015611fbc57506040513d601f19601f82011682018060405250810190611fb99190613bf8565b60015b61203f573d8060008114611fec576040519150601f19603f3d011682016040523d82523d6000602084013e611ff1565b606091505b50600081511415612037576040517f08c379a000000000000000000000000000000000000000000000000000000000815260040161202e90613a90565b60405180910390fd5b805181602001fd5b63150b7a0260e01b7bffffffffffffffffffffffffffffffffffffffffffffffffffffffff1916817bffffffffffffffffffffffffffffffffffffffffffffffffffffffff191614915050612094565b600190505b949350505050565b606060008214156120e4576040518060400160405280600181526020017f300000000000000000000000000000000000000000000000000000000000000081525090506121f8565b600082905060005b600082146121165780806120ff90613c25565b915050600a8261210f9190613c9d565b91506120ec565b60008167ffffffffffffffff81111561213257612131612b08565b5b6040519080825280601f01601f1916602001820160405280156121645781602001600182028036833780820191505090505b5090505b600085146121f15760018261217d9190613928565b9150600a8561218c9190613cce565b6030612198919061395c565b60f81b8183815181106121ae576121ad61346c565b5b60200101907effffffffffffffffffffffffffffffffffffffffffffffffffffffffffffff1916908160001a905350600a856121ea9190613c9d565b9450612168565b8093505050505b919050565b505050565b6008805490506009600083815260200190815260200160002081905550600881908060018154018082558091505060019003906000526020600020016000909190919091505550565b6000600161225884610cc2565b6122629190613928565b9050600060076000848152602001908152602001600020549050818114612347576000600660008673ffffffffffffffffffffffffffffffffffffffff1673ffffffffffffffffffffffffffffffffffffffff168152602001908152602001600020600084815260200190815260200160002054905080600660008773ffffffffffffffffffffffffffffffffffffffff1673ffffffffffffffffffffffffffffffffffffffff168152602001908152602001600020600084815260200190815260200160002081905550816007600083815260200190815260200160002081905550505b6007600084815260200190815260200160002060009055600660008573ffffffffffffffffffffffffffffffffffffffff1673ffffffffffffffffffffffffffffffffffffffff16815260200190815260200160002060008381526020019081526020016000206000905550505050565b600060016008805490506123cc9190613928565b90506000600960008481526020019081526020016000205490506000600883815481106123fc576123fb61346c565b5b90600052602060002001549050806008838154811061241e5761241d61346c565b5b90600052602060002001819055508160096000838152602001908152602001600020819055506009600085815260200190815260200160002060009055600880548061246d5761246c613cff565b5b6001900381819060005260206000200160009055905550505050565b600061249483610cc2565b905081600660008573ffffffffffffffffffffffffffffffffffffffff1673ffffffffffffffffffffffffffffffffffffffff168152602001908152602001600020600083815260200190815260200160002081905550806007600084815260200190815260200160002081905550505050565b600073ffffffffffffffffffffffffffffffffffffffff168273ffffffffffffffffffffffffffffffffffffffff161415612578576040517f08c379a000000000000000000000000000000000000000000000000000000000815260040161256f90613d7a565b60405180910390fd5b612581816113e1565b156125c1576040517f08c379a00000000000000000000000000000000000000000000000000000000081526004016125b890613de6565b60405180910390fd5b6125cd60008383611c94565b6001600360008473ffffffffffffffffffffffffffffffffffffffff1673ffffffffffffffffffffffffffffffffffffffff168152602001908152602001600020600082825461261d919061395c565b92505081905550816002600083815260200190815260200160002060006101000a81548173ffffffffffffffffffffffffffffffffffffffff021916908373ffffffffffffffffffffffffffffffffffffffff160217905550808273ffffffffffffffffffffffffffffffffffffffff16600073ffffffffffffffffffffffffffffffffffffffff167fddf252ad1be2c89b69c2b068fc378daa952ba7f163c4a11628f55a4df523b3ef60405160405180910390a45050565b600080823b905060008111915050919050565b8280546126f590612fd0565b90600052602060002090601f016020900481019282612717576000855561275e565b82601f1061273057805160ff191683800117855561275e565b8280016001018555821561275e579182015b8281111561275d578251825591602001919060010190612742565b5b50905061276b91906127af565b5090565b50805461277b90612fd0565b6000825580601f1061278d57506127ac565b601f0160209004906000526020600020908101906127ab91906127af565b5b50565b5b808211156127c85760008160009055506001016127b0565b5090565b6000604051905090565b600080fd5b600080fd5b60007fffffffff0000000000000000000000000000000000000000000000000000000082169050919050565b612815816127e0565b811461282057600080fd5b50565b6000813590506128328161280c565b92915050565b60006020828403121561284e5761284d6127d6565b5b600061285c84828501612823565b91505092915050565b60008115159050919050565b61287a81612865565b82525050565b60006020820190506128956000830184612871565b92915050565b600081519050919050565b600082825260208201905092915050565b60005b838110156128d55780820151818401526020810190506128ba565b838111156128e4576000848401525b50505050565b6000601f19601f8301169050919050565b60006129068261289b565b61291081856128a6565b93506129208185602086016128b7565b612929816128ea565b840191505092915050565b6000602082019050818103600083015261294e81846128fb565b905092915050565b6000819050919050565b61296981612956565b811461297457600080fd5b50565b60008135905061298681612960565b92915050565b6000602082840312156129a2576129a16127d6565b5b60006129b084828501612977565b91505092915050565b600073ffffffffffffffffffffffffffffffffffffffff82169050919050565b60006129e4826129b9565b9050919050565b6129f4816129d9565b82525050565b6000602082019050612a0f60008301846129eb565b92915050565b612a1e816129d9565b8114612a2957600080fd5b50565b600081359050612a3b81612a15565b92915050565b60008060408385031215612a5857612a576127d6565b5b6000612a6685828601612a2c565b9250506020612a7785828601612977565b9150509250929050565b612a8a81612956565b82525050565b6000602082019050612aa56000830184612a81565b92915050565b600080600060608486031215612ac457612ac36127d6565b5b6000612ad286828701612a2c565b9350506020612ae386828701612a2c565b9250506040612af486828701612977565b9150509250925092565b600080fd5b600080fd5b7f4e487b7100000000000000000000000000000000000000000000000000000000600052604160045260246000fd5b612b40826128ea565b810181811067ffffffffffffffff82111715612b5f57612b5e612b08565b5b80604052505050565b6000612b726127cc565b9050612b7e8282612b37565b919050565b600067ffffffffffffffff821115612b9e57612b9d612b08565b5b612ba7826128ea565b9050602081019050919050565b82818337600083830152505050565b6000612bd6612bd184612b83565b612b68565b905082815260208101848484011115612bf257612bf1612b03565b5b612bfd848285612bb4565b509392505050565b600082601f830112612c1a57612c19612afe565b5b8135612c2a848260208601612bc3565b91505092915050565b600060208284031215612c4957612c486127d6565b5b600082013567ffffffffffffffff811115612c6757612c666127db565b5b612c7384828501612c05565b91505092915050565b600060208284031215612c9257612c916127d6565b5b6000612ca084828501612a2c565b91505092915050565b7f4e487b7100000000000000000000000000000000000000000000000000000000600052602160045260246000fd5b60038110612ce957612ce8612ca9565b5b50565b6000819050612cfa82612cd8565b919050565b6000612d0a82612cec565b9050919050565b612d1a81612cff565b82525050565b6000608082019050612d356000830187612a81565b8181036020830152612d4781866128fb565b9050612d566040830185612a81565b612d636060830184612d11565b95945050505050565b612d7581612865565b8114612d8057600080fd5b50565b600081359050612d9281612d6c565b92915050565b60008060408385031215612daf57612dae6127d6565b5b6000612dbd85828601612a2c565b9250506020612dce85828601612d83565b9150509250929050565b60038110612de557600080fd5b50565b600081359050612df781612dd8565b92915050565b60008060408385031215612e1457612e136127d6565b5b6000612e2285828601612977565b9250506020612e3385828601612de8565b9150509250929050565b600067ffffffffffffffff821115612e5857612e57612b08565b5b612e61826128ea565b9050602081019050919050565b6000612e81612e7c84612e3d565b612b68565b905082815260208101848484011115612e9d57612e9c612b03565b5b612ea8848285612bb4565b509392505050565b600082601f830112612ec557612ec4612afe565b5b8135612ed5848260208601612e6e565b91505092915050565b60008060008060808587031215612ef857612ef76127d6565b5b6000612f0687828801612a2c565b9450506020612f1787828801612a2c565b9350506040612f2887828801612977565b925050606085013567ffffffffffffffff811115612f4957612f486127db565b5b612f5587828801612eb0565b91505092959194509250565b60008060408385031215612f7857612f776127d6565b5b6000612f8685828601612a2c565b9250506020612f9785828601612a2c565b9150509250929050565b7f4e487b7100000000000000000000000000000000000000000000000000000000600052602260045260246000fd5b60006002820490506001821680612fe857607f821691505b60208210811415612ffc57612ffb612fa1565b5b50919050565b7f4552433732313a20617070726f76656420717565727920666f72206e6f6e657860008201527f697374656e7420746f6b656e0000000000000000000000000000000000000000602082015250565b600061305e602c836128a6565b915061306982613002565b604082019050919050565b6000602082019050818103600083015261308d81613051565b9050919050565b7f4552433732313a20617070726f76616c20746f2063757272656e74206f776e6560008201527f7200000000000000000000000000000000000000000000000000000000000000602082015250565b60006130f06021836128a6565b91506130fb82613094565b604082019050919050565b6000602082019050818103600083015261311f816130e3565b9050919050565b7f4552433732313a20617070726f76652063616c6c6572206973206e6f74206f7760008201527f6e6572206e6f7220617070726f76656420666f7220616c6c0000000000000000602082015250565b60006131826038836128a6565b915061318d82613126565b604082019050919050565b600060208201905081810360008301526131b181613175565b9050919050565b7f4552433732313a207472616e736665722063616c6c6572206973206e6f74206f60008201527f776e6572206e6f7220617070726f766564000000000000000000000000000000602082015250565b60006132146031836128a6565b915061321f826131b8565b604082019050919050565b6000602082019050818103600083015261324381613207565b9050919050565b7f4f776e61626c653a2063616c6c6572206973206e6f7420746865206f776e6572600082015250565b60006132806020836128a6565b915061328b8261324a565b602082019050919050565b600060208201905081810360008301526132af81613273565b9050919050565b7f455243373231456e756d657261626c653a206f776e657220696e646578206f7560008201527f74206f6620626f756e6473000000000000000000000000000000000000000000602082015250565b6000613312602b836128a6565b915061331d826132b6565b604082019050919050565b6000602082019050818103600083015261334181613305565b9050919050565b7f4552433732314275726e61626c653a2063616c6c6572206973206e6f74206f7760008201527f6e6572206e6f7220617070726f76656400000000000000000000000000000000602082015250565b60006133a46030836128a6565b91506133af82613348565b604082019050919050565b600060208201905081810360008301526133d381613397565b9050919050565b7f455243373231456e756d657261626c653a20676c6f62616c20696e646578206f60008201527f7574206f6620626f756e64730000000000000000000000000000000000000000602082015250565b6000613436602c836128a6565b9150613441826133da565b604082019050919050565b6000602082019050818103600083015261346581613429565b9050919050565b7f4e487b7100000000000000000000000000000000000000000000000000000000600052603260045260246000fd5b7f4552433732313a206f776e657220717565727920666f72206e6f6e657869737460008201527f656e7420746f6b656e0000000000000000000000000000000000000000000000602082015250565b60006134f76029836128a6565b91506135028261349b565b604082019050919050565b60006020820190508181036000830152613526816134ea565b9050919050565b7f4552433732313a2062616c616e636520717565727920666f7220746865207a6560008201527f726f206164647265737300000000000000000000000000000000000000000000602082015250565b6000613589602a836128a6565b91506135948261352d565b604082019050919050565b600060208201905081810360008301526135b88161357c565b9050919050565b7f45524337323155524953746f726167653a2055524920717565727920666f722060008201527f6e6f6e6578697374656e7420746f6b656e000000000000000000000000000000602082015250565b600061361b6031836128a6565b9150613626826135bf565b604082019050919050565b6000602082019050818103600083015261364a8161360e565b9050919050565b600081905092915050565b60006136678261289b565b6136718185613651565b93506136818185602086016128b7565b80840191505092915050565b6000613699828561365c565b91506136a5828461365c565b91508190509392505050565b7f4f776e61626c653a206e6577206f776e657220697320746865207a65726f206160008201527f6464726573730000000000000000000000000000000000000000000000000000602082015250565b600061370d6026836128a6565b9150613718826136b1565b604082019050919050565b6000602082019050818103600083015261373c81613700565b9050919050565b7f4552433732313a206f70657261746f7220717565727920666f72206e6f6e657860008201527f697374656e7420746f6b656e0000000000000000000000000000000000000000602082015250565b600061379f602c836128a6565b91506137aa82613743565b604082019050919050565b600060208201905081810360008301526137ce81613792565b9050919050565b7f4552433732313a207472616e73666572206f6620746f6b656e2074686174206960008201527f73206e6f74206f776e0000000000000000000000000000000000000000000000602082015250565b60006138316029836128a6565b915061383c826137d5565b604082019050919050565b6000602082019050818103600083015261386081613824565b9050919050565b7f4552433732313a207472616e7366657220746f20746865207a65726f2061646460008201527f7265737300000000000000000000000000000000000000000000000000000000602082015250565b60006138c36024836128a6565b91506138ce82613867565b604082019050919050565b600060208201905081810360008301526138f2816138b6565b9050919050565b7f4e487b7100000000000000000000000000000000000000000000000000000000600052601160045260246000fd5b600061393382612956565b915061393e83612956565b925082821015613951576139506138f9565b5b828203905092915050565b600061396782612956565b915061397283612956565b9250827fffffffffffffffffffffffffffffffffffffffffffffffffffffffffffffffff038211156139a7576139a66138f9565b5b828201905092915050565b7f4552433732313a20617070726f766520746f2063616c6c657200000000000000600082015250565b60006139e86019836128a6565b91506139f3826139b2565b602082019050919050565b60006020820190508181036000830152613a17816139db565b9050919050565b7f4552433732313a207472616e7366657220746f206e6f6e20455243373231526560008201527f63656976657220696d706c656d656e7465720000000000000000000000000000602082015250565b6000613a7a6032836128a6565b9150613a8582613a1e565b604082019050919050565b60006020820190508181036000830152613aa981613a6d565b9050919050565b7f4552433732314d657461646174613a2055524920717565727920666f72206e6f60008201527f6e6578697374656e7420746f6b656e0000000000000000000000000000000000602082015250565b6000613b0c602f836128a6565b9150613b1782613ab0565b604082019050919050565b60006020820190508181036000830152613b3b81613aff565b9050919050565b600081519050919050565b600082825260208201905092915050565b6000613b6982613b42565b613b738185613b4d565b9350613b838185602086016128b7565b613b8c816128ea565b840191505092915050565b6000608082019050613bac60008301876129eb565b613bb960208301866129eb565b613bc66040830185612a81565b8181036060830152613bd88184613b5e565b905095945050505050565b600081519050613bf28161280c565b92915050565b600060208284031215613c0e57613c0d6127d6565b5b6000613c1c84828501613be3565b91505092915050565b6000613c3082612956565b91507fffffffffffffffffffffffffffffffffffffffffffffffffffffffffffffffff821415613c6357613c626138f9565b5b600182019050919050565b7f4e487b7100000000000000000000000000000000000000000000000000000000600052601260045260246000fd5b6000613ca882612956565b9150613cb383612956565b925082613cc357613cc2613c6e565b5b828204905092915050565b6000613cd982612956565b9150613ce483612956565b925082613cf457613cf3613c6e565b5b828206905092915050565b7f4e487b7100000000000000000000000000000000000000000000000000000000600052603160045260246000fd5b7f4552433732313a206d696e7420746f20746865207a65726f2061646472657373600082015250565b6000613d646020836128a6565b9150613d6f82613d2e565b602082019050919050565b60006020820190508181036000830152613d9381613d57565b9050919050565b7f4552433732313a20746f6b656e20616c7265616479206d696e74656400000000600082015250565b6000613dd0601c836128a6565b9150613ddb82613d9a565b602082019050919050565b60006020820190508181036000830152613dff81613dc3565b905091905056fea2646970667358221220dea4256e4194f4ae9ccc26bb449c7603940bd6a117f50a7c9a2a912ec3fb073264736f6c634300080a0033",
  "immutableReferences": {},
  "source": "// SPDX-License-Identifier: MIT\npragma solidity ^0.8.0;\n\nimport \"@openzeppelin/contracts/token/ERC721/extensions/ERC721URIStorage.sol\";\nimport \"@openzeppelin/contracts/token/ERC721/extensions/ERC721Burnable.sol\";\nimport \"@openzeppelin/contracts/token/ERC721/extensions/ERC721Enumerable.sol\";\nimport \"@openzeppelin/contracts/utils/Counters.sol\";\nimport \"@openzeppelin/contracts/access/Ownable.sol\";\nimport \"./Building.sol\";\nimport \"./BuildingType.sol\";\nimport \"./LandType.sol\";\nimport \"./Land.sol\";\n\ncontract Lands is ERC721Enumerable, Ownable {\n    using Counters for Counters.Counter;\n    Counters.Counter private _tokenIds;\n    using Strings for uint256;\n\n    mapping(address => string) public names;\n\n    // Optional mapping for token URIs\n    mapping(uint256 => string) private _tokenURIs;\n\n    mapping(uint256 => Land) public indexToLand;\n\n    constructor() public ERC721(\"Land\", \"LAND\") {}\n\n    function mintLand(uint256 rarity, LandType landtype)\n        public\n        returns (uint256)\n    {\n        _tokenIds.increment();\n        uint256 newItemId = _tokenIds.current();\n        _safeMint(msg.sender, newItemId);\n        indexToLand[newItemId] = Land(newItemId, \"\", 1, landtype);\n\n        return newItemId;\n    }\n\n\n    function addLandType() public onlyOwner {}\n\n    function changeName(string memory name) public {\n        names[msg.sender] = name;\n    }\n\n    /// @notice Builds a building on top of a land, burning the Land NFT\n    /// @dev Explain to a developer any extra details\n    /// @param _building a parameter just like in doxygen (must be followed by parameter name)\n    function build(uint256 _building) public {}\n\n    /**\n     * @dev See {IERC721Metadata-tokenURI}.\n     */\n    function tokenURI(uint256 tokenId)\n        public\n        view\n        virtual\n        override\n        returns (string memory)\n    {\n        require(\n            _exists(tokenId),\n            \"ERC721URIStorage: URI query for nonexistent token\"\n        );\n\n        string memory _tokenURI = _tokenURIs[tokenId];\n        string memory base = _baseURI();\n\n        // If there is no base URI, return the token URI.\n        if (bytes(base).length == 0) {\n            return _tokenURI;\n        }\n        // If both are set, concatenate the baseURI and tokenURI (via abi.encodePacked).\n        if (bytes(_tokenURI).length > 0) {\n            return string(abi.encodePacked(base, _tokenURI));\n        }\n\n        return super.tokenURI(tokenId);\n    }\n\n    function burn(uint256 tokenId) public virtual {\n        //solhint-disable-next-line max-line-length\n        require(\n            _isApprovedOrOwner(_msgSender(), tokenId),\n            \"ERC721Burnable: caller is not owner nor approved\"\n        );\n        _burn(tokenId);\n    }\n\n    /**\n     * @dev Sets `_tokenURI` as the tokenURI of `tokenId`.\n     *\n     * Requirements:\n     *\n     * - `tokenId` must exist.\n     */\n    function _setTokenURI(uint256 tokenId, string memory _tokenURI)\n        internal\n        virtual\n    {\n        require(\n            _exists(tokenId),\n            \"ERC721URIStorage: URI set of nonexistent token\"\n        );\n        _tokenURIs[tokenId] = _tokenURI;\n    }\n\n    /**\n     * @dev Destroys `tokenId`.\n     * The approval is cleared when the token is burned.\n     *\n     * Requirements:\n     *\n     * - `tokenId` must exist.\n     *\n     * Emits a {Transfer} event.\n     */\n    function _burn(uint256 tokenId) internal virtual override {\n        super._burn(tokenId);\n\n        if (bytes(_tokenURIs[tokenId]).length != 0) {\n            delete _tokenURIs[tokenId];\n        }\n    }\n}\n",
  "sourcePath": "/home/darovip/projects/mayland_labs/shattered-contracts/contracts/Lands.sol",
  "compiler": {
    "name": "solc",
    "version": "0.8.10+commit.fc410830.Emscripten.clang"
  },
  "schemaVersion": "3.4.4",
  "updatedAt": "2022-01-14T20:54:21.513Z",
  "devdoc": {
    "kind": "dev",
    "methods": {
      "approve(address,uint256)": {
        "details": "See {IERC721-approve}."
      },
      "balanceOf(address)": {
        "details": "See {IERC721-balanceOf}."
      },
      "build(uint256)": {
        "details": "Explain to a developer any extra details",
        "params": {
          "_building": "a parameter just like in doxygen (must be followed by parameter name)"
        }
      },
      "getApproved(uint256)": {
        "details": "See {IERC721-getApproved}."
      },
      "isApprovedForAll(address,address)": {
        "details": "See {IERC721-isApprovedForAll}."
      },
      "name()": {
        "details": "See {IERC721Metadata-name}."
      },
      "owner()": {
        "details": "Returns the address of the current owner."
      },
      "ownerOf(uint256)": {
        "details": "See {IERC721-ownerOf}."
      },
      "renounceOwnership()": {
        "details": "Leaves the contract without owner. It will not be possible to call `onlyOwner` functions anymore. Can only be called by the current owner. NOTE: Renouncing ownership will leave the contract without an owner, thereby removing any functionality that is only available to the owner."
      },
      "safeTransferFrom(address,address,uint256)": {
        "details": "See {IERC721-safeTransferFrom}."
      },
      "safeTransferFrom(address,address,uint256,bytes)": {
        "details": "See {IERC721-safeTransferFrom}."
      },
      "setApprovalForAll(address,bool)": {
        "details": "See {IERC721-setApprovalForAll}."
      },
      "supportsInterface(bytes4)": {
        "details": "See {IERC165-supportsInterface}."
      },
      "symbol()": {
        "details": "See {IERC721Metadata-symbol}."
      },
      "tokenByIndex(uint256)": {
        "details": "See {IERC721Enumerable-tokenByIndex}."
      },
      "tokenOfOwnerByIndex(address,uint256)": {
        "details": "See {IERC721Enumerable-tokenOfOwnerByIndex}."
      },
      "tokenURI(uint256)": {
        "details": "See {IERC721Metadata-tokenURI}."
      },
      "totalSupply()": {
        "details": "See {IERC721Enumerable-totalSupply}."
      },
      "transferFrom(address,address,uint256)": {
        "details": "See {IERC721-transferFrom}."
      },
      "transferOwnership(address)": {
        "details": "Transfers ownership of the contract to a new account (`newOwner`). Can only be called by the current owner."
      }
    },
    "version": 1
  },
  "userdoc": {
    "kind": "user",
    "methods": {
      "build(uint256)": {
        "notice": "Builds a building on top of a land, burning the Land NFT"
      }
    },
    "version": 1
  }
}